{"abi":[{"inputs":[{"internalType":"uint256","name":"minimum","type":"uint256"}],"name":"createCampaign","outputs":[],"stateMutability":"nonpayable","type":"function"},{"inputs":[{"internalType":"uint256","name":"","type":"uint256"}],"name":"deployedCampaigns","outputs":[{"internalType":"contract Campaign","name":"","type":"address"}],"stateMutability":"view","type":"function"},{"inputs":[],"name":"getDeployedCampaign","outputs":[{"internalType":"contract Campaign[]","name":"","type":"address[]"}],"stateMutability":"view","type":"function"}],"devdoc":{"kind":"dev","methods":{},"version":1},"evm":{"assembly":"    /* \"Campaign.sol\":74:444  contract CampaignFactory {... */\n  mstore(0x40, 0x80)\n  callvalue\n  dup1\n  iszero\n  tag_1\n  jumpi\n  revert(0x00, 0x00)\ntag_1:\n  pop\n  dataSize(sub_0)\n  dup1\n  dataOffset(sub_0)\n  0x00\n  codecopy\n  0x00\n  return\nstop\n\nsub_0: assembly {\n        /* \"Campaign.sol\":74:444  contract CampaignFactory {... */\n      mstore(0x40, 0x80)\n      callvalue\n      dup1\n      iszero\n      tag_1\n      jumpi\n      revert(0x00, 0x00)\n    tag_1:\n      pop\n      jumpi(tag_2, lt(calldatasize, 0x04))\n      shr(0xe0, calldataload(0x00))\n      dup1\n      0x339d50a5\n      eq\n      tag_3\n      jumpi\n      dup1\n      0x5eac0007\n      eq\n      tag_4\n      jumpi\n      dup1\n      0xa3303a75\n      eq\n      tag_5\n      jumpi\n    tag_2:\n      revert(0x00, 0x00)\n        /* \"Campaign.sol\":106:141  Campaign[] public deployedCampaigns */\n    tag_3:\n      tag_6\n      0x04\n      dup1\n      calldatasize\n      sub\n      dup2\n      add\n      swap1\n      tag_7\n      swap2\n      swap1\n      tag_8\n      jump\t// in\n    tag_7:\n      tag_9\n      jump\t// in\n    tag_6:\n      mload(0x40)\n      tag_10\n      swap2\n      swap1\n      tag_11\n      jump\t// in\n    tag_10:\n      mload(0x40)\n      dup1\n      swap2\n      sub\n      swap1\n      return\n        /* \"Campaign.sol\":324:438  function getDeployedCampaign() public view returns (Campaign[] memory) {... */\n    tag_4:\n      tag_12\n      tag_13\n      jump\t// in\n    tag_12:\n      mload(0x40)\n      tag_14\n      swap2\n      swap1\n      tag_15\n      jump\t// in\n    tag_14:\n      mload(0x40)\n      dup1\n      swap2\n      sub\n      swap1\n      return\n        /* \"Campaign.sol\":150:316  function createCampaign(uint minimum) public {... */\n    tag_5:\n      tag_16\n      0x04\n      dup1\n      calldatasize\n      sub\n      dup2\n      add\n      swap1\n      tag_17\n      swap2\n      swap1\n      tag_8\n      jump\t// in\n    tag_17:\n      tag_18\n      jump\t// in\n    tag_16:\n      stop\n        /* \"Campaign.sol\":106:141  Campaign[] public deployedCampaigns */\n    tag_9:\n      0x00\n      dup2\n      dup2\n      sload\n      dup2\n      lt\n      tag_19\n      jumpi\n      0x00\n      dup1\n      revert\n    tag_19:\n      swap1\n      0x00\n      mstore\n      keccak256(0x00, 0x20)\n      add\n      0x00\n      swap2\n      pop\n      sload\n      swap1\n      0x0100\n      exp\n      swap1\n      div\n      0xffffffffffffffffffffffffffffffffffffffff\n      and\n      dup2\n      jump\t// out\n        /* \"Campaign.sol\":324:438  function getDeployedCampaign() public view returns (Campaign[] memory) {... */\n    tag_13:\n        /* \"Campaign.sol\":376:393  Campaign[] memory */\n      0x60\n        /* \"Campaign.sol\":413:430  deployedCampaigns */\n      0x00\n        /* \"Campaign.sol\":406:430  return deployedCampaigns */\n      dup1\n      sload\n      dup1\n      0x20\n      mul\n      0x20\n      add\n      mload(0x40)\n      swap1\n      dup2\n      add\n      0x40\n      mstore\n      dup1\n      swap3\n      swap2\n      swap1\n      dup2\n      dup2\n      mstore\n      0x20\n      add\n      dup3\n      dup1\n      sload\n      dup1\n      iszero\n      tag_22\n      jumpi\n      0x20\n      mul\n      dup3\n      add\n      swap2\n      swap1\n      0x00\n      mstore\n      keccak256(0x00, 0x20)\n      swap1\n    tag_23:\n      dup2\n      0x00\n      swap1\n      sload\n      swap1\n      0x0100\n      exp\n      swap1\n      div\n      0xffffffffffffffffffffffffffffffffffffffff\n      and\n      0xffffffffffffffffffffffffffffffffffffffff\n      and\n      dup2\n      mstore\n      0x20\n      add\n      swap1\n      0x01\n      add\n      swap1\n      dup1\n      dup4\n      gt\n      tag_23\n      jumpi\n    tag_22:\n      pop\n      pop\n      pop\n      pop\n      pop\n      swap1\n      pop\n        /* \"Campaign.sol\":324:438  function getDeployedCampaign() public view returns (Campaign[] memory) {... */\n      swap1\n      jump\t// out\n        /* \"Campaign.sol\":150:316  function createCampaign(uint minimum) public {... */\n    tag_18:\n        /* \"Campaign.sol\":206:226  Campaign newCampaign */\n      0x00\n        /* \"Campaign.sol\":242:249  minimum */\n      dup2\n        /* \"Campaign.sol\":251:261  msg.sender */\n      caller\n        /* \"Campaign.sol\":229:262  new Campaign(minimum, msg.sender) */\n      mload(0x40)\n      tag_25\n      swap1\n      tag_26\n      jump\t// in\n    tag_25:\n      tag_27\n      swap3\n      swap2\n      swap1\n      tag_28\n      jump\t// in\n    tag_27:\n      mload(0x40)\n      dup1\n      swap2\n      sub\n      swap1\n      0x00\n      create\n      dup1\n      iszero\n      dup1\n      iszero\n      tag_29\n      jumpi\n      returndatacopy(0x00, 0x00, returndatasize)\n      revert(0x00, returndatasize)\n    tag_29:\n      pop\n        /* \"Campaign.sol\":206:262  Campaign newCampaign = new Campaign(minimum, msg.sender) */\n      swap1\n      pop\n        /* \"Campaign.sol\":273:290  deployedCampaigns */\n      0x00\n        /* \"Campaign.sol\":296:307  newCampaign */\n      dup2\n        /* \"Campaign.sol\":273:308  deployedCampaigns.push(newCampaign) */\n      swap1\n      dup1\n      0x01\n      dup2\n      sload\n      add\n      dup1\n      dup3\n      sstore\n      dup1\n      swap2\n      pop\n      pop\n      0x01\n      swap1\n      sub\n      swap1\n      0x00\n      mstore\n      keccak256(0x00, 0x20)\n      add\n      0x00\n      swap1\n      swap2\n      swap1\n      swap2\n      swap1\n      swap2\n      0x0100\n      exp\n      dup2\n      sload\n      dup2\n      0xffffffffffffffffffffffffffffffffffffffff\n      mul\n      not\n      and\n      swap1\n      dup4\n      0xffffffffffffffffffffffffffffffffffffffff\n      and\n      mul\n      or\n      swap1\n      sstore\n      pop\n        /* \"Campaign.sol\":195:316  {... */\n      pop\n        /* \"Campaign.sol\":150:316  function createCampaign(uint minimum) public {... */\n      pop\n      jump\t// out\n    tag_26:\n      dataSize(sub_0)\n      dup1\n      dataOffset(sub_0)\n      dup4\n      codecopy\n      add\n      swap1\n      jump\t// out\n        /* \"#utility.yul\":88:205   */\n    tag_32:\n        /* \"#utility.yul\":197:198   */\n      0x00\n        /* \"#utility.yul\":194:195   */\n      0x00\n        /* \"#utility.yul\":187:199   */\n      revert\n        /* \"#utility.yul\":334:411   */\n    tag_34:\n        /* \"#utility.yul\":371:378   */\n      0x00\n        /* \"#utility.yul\":400:405   */\n      dup2\n        /* \"#utility.yul\":389:405   */\n      swap1\n      pop\n        /* \"#utility.yul\":334:411   */\n      swap2\n      swap1\n      pop\n      jump\t// out\n        /* \"#utility.yul\":417:539   */\n    tag_35:\n        /* \"#utility.yul\":490:514   */\n      tag_59\n        /* \"#utility.yul\":508:513   */\n      dup2\n        /* \"#utility.yul\":490:514   */\n      tag_34\n      jump\t// in\n    tag_59:\n        /* \"#utility.yul\":483:488   */\n      dup2\n        /* \"#utility.yul\":480:515   */\n      eq\n        /* \"#utility.yul\":470:533   */\n      tag_60\n      jumpi\n        /* \"#utility.yul\":529:530   */\n      0x00\n        /* \"#utility.yul\":526:527   */\n      0x00\n        /* \"#utility.yul\":519:531   */\n      revert\n        /* \"#utility.yul\":470:533   */\n    tag_60:\n        /* \"#utility.yul\":417:539   */\n      pop\n      jump\t// out\n        /* \"#utility.yul\":545:684   */\n    tag_36:\n        /* \"#utility.yul\":591:596   */\n      0x00\n        /* \"#utility.yul\":629:635   */\n      dup2\n        /* \"#utility.yul\":616:636   */\n      calldataload\n        /* \"#utility.yul\":607:636   */\n      swap1\n      pop\n        /* \"#utility.yul\":645:678   */\n      tag_62\n        /* \"#utility.yul\":672:677   */\n      dup2\n        /* \"#utility.yul\":645:678   */\n      tag_35\n      jump\t// in\n    tag_62:\n        /* \"#utility.yul\":545:684   */\n      swap3\n      swap2\n      pop\n      pop\n      jump\t// out\n        /* \"#utility.yul\":690:1019   */\n    tag_8:\n        /* \"#utility.yul\":749:755   */\n      0x00\n        /* \"#utility.yul\":798:800   */\n      0x20\n        /* \"#utility.yul\":786:795   */\n      dup3\n        /* \"#utility.yul\":777:784   */\n      dup5\n        /* \"#utility.yul\":773:796   */\n      sub\n        /* \"#utility.yul\":769:801   */\n      slt\n        /* \"#utility.yul\":766:885   */\n      iszero\n      tag_64\n      jumpi\n        /* \"#utility.yul\":804:883   */\n      tag_65\n      tag_32\n      jump\t// in\n    tag_65:\n        /* \"#utility.yul\":766:885   */\n    tag_64:\n        /* \"#utility.yul\":924:925   */\n      0x00\n        /* \"#utility.yul\":949:1002   */\n      tag_66\n        /* \"#utility.yul\":994:1001   */\n      dup5\n        /* \"#utility.yul\":985:991   */\n      dup3\n        /* \"#utility.yul\":974:983   */\n      dup6\n        /* \"#utility.yul\":970:992   */\n      add\n        /* \"#utility.yul\":949:1002   */\n      tag_36\n      jump\t// in\n    tag_66:\n        /* \"#utility.yul\":939:1002   */\n      swap2\n      pop\n        /* \"#utility.yul\":895:1012   */\n      pop\n        /* \"#utility.yul\":690:1019   */\n      swap3\n      swap2\n      pop\n      pop\n      jump\t// out\n        /* \"#utility.yul\":1025:1151   */\n    tag_37:\n        /* \"#utility.yul\":1062:1069   */\n      0x00\n        /* \"#utility.yul\":1102:1144   */\n      0xffffffffffffffffffffffffffffffffffffffff\n        /* \"#utility.yul\":1095:1100   */\n      dup3\n        /* \"#utility.yul\":1091:1145   */\n      and\n        /* \"#utility.yul\":1080:1145   */\n      swap1\n      pop\n        /* \"#utility.yul\":1025:1151   */\n      swap2\n      swap1\n      pop\n      jump\t// out\n        /* \"#utility.yul\":1157:1217   */\n    tag_38:\n        /* \"#utility.yul\":1185:1188   */\n      0x00\n        /* \"#utility.yul\":1206:1211   */\n      dup2\n        /* \"#utility.yul\":1199:1211   */\n      swap1\n      pop\n        /* \"#utility.yul\":1157:1217   */\n      swap2\n      swap1\n      pop\n      jump\t// out\n        /* \"#utility.yul\":1223:1365   */\n    tag_39:\n        /* \"#utility.yul\":1273:1282   */\n      0x00\n        /* \"#utility.yul\":1306:1359   */\n      tag_70\n        /* \"#utility.yul\":1324:1358   */\n      tag_71\n        /* \"#utility.yul\":1333:1357   */\n      tag_72\n        /* \"#utility.yul\":1351:1356   */\n      dup5\n        /* \"#utility.yul\":1333:1357   */\n      tag_37\n      jump\t// in\n    tag_72:\n        /* \"#utility.yul\":1324:1358   */\n      tag_38\n      jump\t// in\n    tag_71:\n        /* \"#utility.yul\":1306:1359   */\n      tag_37\n      jump\t// in\n    tag_70:\n        /* \"#utility.yul\":1293:1359   */\n      swap1\n      pop\n        /* \"#utility.yul\":1223:1365   */\n      swap2\n      swap1\n      pop\n      jump\t// out\n        /* \"#utility.yul\":1371:1497   */\n    tag_40:\n        /* \"#utility.yul\":1421:1430   */\n      0x00\n        /* \"#utility.yul\":1454:1491   */\n      tag_74\n        /* \"#utility.yul\":1485:1490   */\n      dup3\n        /* \"#utility.yul\":1454:1491   */\n      tag_39\n      jump\t// in\n    tag_74:\n        /* \"#utility.yul\":1441:1491   */\n      swap1\n      pop\n        /* \"#utility.yul\":1371:1497   */\n      swap2\n      swap1\n      pop\n      jump\t// out\n        /* \"#utility.yul\":1503:1645   */\n    tag_41:\n        /* \"#utility.yul\":1569:1578   */\n      0x00\n        /* \"#utility.yul\":1602:1639   */\n      tag_76\n        /* \"#utility.yul\":1633:1638   */\n      dup3\n        /* \"#utility.yul\":1602:1639   */\n      tag_40\n      jump\t// in\n    tag_76:\n        /* \"#utility.yul\":1589:1639   */\n      swap1\n      pop\n        /* \"#utility.yul\":1503:1645   */\n      swap2\n      swap1\n      pop\n      jump\t// out\n        /* \"#utility.yul\":1651:1814   */\n    tag_42:\n        /* \"#utility.yul\":1754:1807   */\n      tag_78\n        /* \"#utility.yul\":1801:1806   */\n      dup2\n        /* \"#utility.yul\":1754:1807   */\n      tag_41\n      jump\t// in\n    tag_78:\n        /* \"#utility.yul\":1749:1752   */\n      dup3\n        /* \"#utility.yul\":1742:1808   */\n      mstore\n        /* \"#utility.yul\":1651:1814   */\n      pop\n      pop\n      jump\t// out\n        /* \"#utility.yul\":1820:2074   */\n    tag_11:\n        /* \"#utility.yul\":1929:1933   */\n      0x00\n        /* \"#utility.yul\":1967:1969   */\n      0x20\n        /* \"#utility.yul\":1956:1965   */\n      dup3\n        /* \"#utility.yul\":1952:1970   */\n      add\n        /* \"#utility.yul\":1944:1970   */\n      swap1\n      pop\n        /* \"#utility.yul\":1980:2067   */\n      tag_80\n        /* \"#utility.yul\":2064:2065   */\n      0x00\n        /* \"#utility.yul\":2053:2062   */\n      dup4\n        /* \"#utility.yul\":2049:2066   */\n      add\n        /* \"#utility.yul\":2040:2046   */\n      dup5\n        /* \"#utility.yul\":1980:2067   */\n      tag_42\n      jump\t// in\n    tag_80:\n        /* \"#utility.yul\":1820:2074   */\n      swap3\n      swap2\n      pop\n      pop\n      jump\t// out\n        /* \"#utility.yul\":2080:2210   */\n    tag_43:\n        /* \"#utility.yul\":2163:2169   */\n      0x00\n        /* \"#utility.yul\":2197:2202   */\n      dup2\n        /* \"#utility.yul\":2191:2203   */\n      mload\n        /* \"#utility.yul\":2181:2203   */\n      swap1\n      pop\n        /* \"#utility.yul\":2080:2210   */\n      swap2\n      swap1\n      pop\n      jump\t// out\n        /* \"#utility.yul\":2216:2400   */\n    tag_44:\n        /* \"#utility.yul\":2315:2326   */\n      0x00\n        /* \"#utility.yul\":2349:2355   */\n      dup3\n        /* \"#utility.yul\":2344:2347   */\n      dup3\n        /* \"#utility.yul\":2337:2356   */\n      mstore\n        /* \"#utility.yul\":2389:2393   */\n      0x20\n        /* \"#utility.yul\":2384:2387   */\n      dup3\n        /* \"#utility.yul\":2380:2394   */\n      add\n        /* \"#utility.yul\":2365:2394   */\n      swap1\n      pop\n        /* \"#utility.yul\":2216:2400   */\n      swap3\n      swap2\n      pop\n      pop\n      jump\t// out\n        /* \"#utility.yul\":2406:2554   */\n    tag_45:\n        /* \"#utility.yul\":2489:2493   */\n      0x00\n        /* \"#utility.yul\":2512:2515   */\n      dup2\n        /* \"#utility.yul\":2504:2515   */\n      swap1\n      pop\n        /* \"#utility.yul\":2542:2546   */\n      0x20\n        /* \"#utility.yul\":2537:2540   */\n      dup3\n        /* \"#utility.yul\":2533:2547   */\n      add\n        /* \"#utility.yul\":2525:2547   */\n      swap1\n      pop\n        /* \"#utility.yul\":2406:2554   */\n      swap2\n      swap1\n      pop\n      jump\t// out\n        /* \"#utility.yul\":2560:2713   */\n    tag_46:\n        /* \"#utility.yul\":2653:2706   */\n      tag_85\n        /* \"#utility.yul\":2700:2705   */\n      dup2\n        /* \"#utility.yul\":2653:2706   */\n      tag_41\n      jump\t// in\n    tag_85:\n        /* \"#utility.yul\":2648:2651   */\n      dup3\n        /* \"#utility.yul\":2641:2707   */\n      mstore\n        /* \"#utility.yul\":2560:2713   */\n      pop\n      pop\n      jump\t// out\n        /* \"#utility.yul\":2719:2930   */\n    tag_47:\n        /* \"#utility.yul\":2804:2814   */\n      0x00\n        /* \"#utility.yul\":2825:2887   */\n      tag_87\n        /* \"#utility.yul\":2883:2886   */\n      dup4\n        /* \"#utility.yul\":2875:2881   */\n      dup4\n        /* \"#utility.yul\":2825:2887   */\n      tag_46\n      jump\t// in\n    tag_87:\n        /* \"#utility.yul\":2919:2923   */\n      0x20\n        /* \"#utility.yul\":2914:2917   */\n      dup4\n        /* \"#utility.yul\":2910:2924   */\n      add\n        /* \"#utility.yul\":2896:2924   */\n      swap1\n      pop\n        /* \"#utility.yul\":2719:2930   */\n      swap3\n      swap2\n      pop\n      pop\n      jump\t// out\n        /* \"#utility.yul\":2936:3065   */\n    tag_48:\n        /* \"#utility.yul\":3022:3026   */\n      0x00\n        /* \"#utility.yul\":3054:3058   */\n      0x20\n        /* \"#utility.yul\":3049:3052   */\n      dup3\n        /* \"#utility.yul\":3045:3059   */\n      add\n        /* \"#utility.yul\":3037:3059   */\n      swap1\n      pop\n        /* \"#utility.yul\":2936:3065   */\n      swap2\n      swap1\n      pop\n      jump\t// out\n        /* \"#utility.yul\":3111:3923   */\n    tag_49:\n        /* \"#utility.yul\":3246:3249   */\n      0x00\n        /* \"#utility.yul\":3275:3345   */\n      tag_90\n        /* \"#utility.yul\":3339:3344   */\n      dup3\n        /* \"#utility.yul\":3275:3345   */\n      tag_43\n      jump\t// in\n    tag_90:\n        /* \"#utility.yul\":3361:3447   */\n      tag_91\n        /* \"#utility.yul\":3440:3446   */\n      dup2\n        /* \"#utility.yul\":3435:3438   */\n      dup6\n        /* \"#utility.yul\":3361:3447   */\n      tag_44\n      jump\t// in\n    tag_91:\n        /* \"#utility.yul\":3354:3447   */\n      swap4\n      pop\n        /* \"#utility.yul\":3471:3543   */\n      tag_92\n        /* \"#utility.yul\":3537:3542   */\n      dup4\n        /* \"#utility.yul\":3471:3543   */\n      tag_45\n      jump\t// in\n    tag_92:\n        /* \"#utility.yul\":3566:3573   */\n      dup1\n        /* \"#utility.yul\":3597:3598   */\n      0x00\n        /* \"#utility.yul\":3582:3898   */\n    tag_93:\n        /* \"#utility.yul\":3607:3613   */\n      dup4\n        /* \"#utility.yul\":3604:3605   */\n      dup2\n        /* \"#utility.yul\":3601:3614   */\n      lt\n        /* \"#utility.yul\":3582:3898   */\n      iszero\n      tag_95\n      jumpi\n        /* \"#utility.yul\":3683:3689   */\n      dup2\n        /* \"#utility.yul\":3677:3690   */\n      mload\n        /* \"#utility.yul\":3710:3789   */\n      tag_96\n        /* \"#utility.yul\":3785:3788   */\n      dup9\n        /* \"#utility.yul\":3770:3783   */\n      dup3\n        /* \"#utility.yul\":3710:3789   */\n      tag_47\n      jump\t// in\n    tag_96:\n        /* \"#utility.yul\":3703:3789   */\n      swap8\n      pop\n        /* \"#utility.yul\":3812:3888   */\n      tag_97\n        /* \"#utility.yul\":3881:3887   */\n      dup4\n        /* \"#utility.yul\":3812:3888   */\n      tag_48\n      jump\t// in\n    tag_97:\n        /* \"#utility.yul\":3802:3888   */\n      swap3\n      pop\n        /* \"#utility.yul\":3642:3898   */\n      pop\n        /* \"#utility.yul\":3629:3630   */\n      0x01\n        /* \"#utility.yul\":3626:3627   */\n      dup2\n        /* \"#utility.yul\":3622:3631   */\n      add\n        /* \"#utility.yul\":3617:3631   */\n      swap1\n      pop\n        /* \"#utility.yul\":3582:3898   */\n      jump(tag_93)\n    tag_95:\n        /* \"#utility.yul\":3586:3600   */\n      pop\n        /* \"#utility.yul\":3914:3917   */\n      dup6\n        /* \"#utility.yul\":3907:3917   */\n      swap4\n      pop\n        /* \"#utility.yul\":3251:3923   */\n      pop\n      pop\n      pop\n        /* \"#utility.yul\":3111:3923   */\n      swap3\n      swap2\n      pop\n      pop\n      jump\t// out\n        /* \"#utility.yul\":3929:4334   */\n    tag_15:\n        /* \"#utility.yul\":4088:4092   */\n      0x00\n        /* \"#utility.yul\":4126:4128   */\n      0x20\n        /* \"#utility.yul\":4115:4124   */\n      dup3\n        /* \"#utility.yul\":4111:4129   */\n      add\n        /* \"#utility.yul\":4103:4129   */\n      swap1\n      pop\n        /* \"#utility.yul\":4175:4184   */\n      dup2\n        /* \"#utility.yul\":4169:4173   */\n      dup2\n        /* \"#utility.yul\":4165:4185   */\n      sub\n        /* \"#utility.yul\":4161:4162   */\n      0x00\n        /* \"#utility.yul\":4150:4159   */\n      dup4\n        /* \"#utility.yul\":4146:4163   */\n      add\n        /* \"#utility.yul\":4139:4186   */\n      mstore\n        /* \"#utility.yul\":4203:4327   */\n      tag_99\n        /* \"#utility.yul\":4322:4326   */\n      dup2\n        /* \"#utility.yul\":4313:4319   */\n      dup5\n        /* \"#utility.yul\":4203:4327   */\n      tag_49\n      jump\t// in\n    tag_99:\n        /* \"#utility.yul\":4195:4327   */\n      swap1\n      pop\n        /* \"#utility.yul\":3929:4334   */\n      swap3\n      swap2\n      pop\n      pop\n      jump\t// out\n        /* \"#utility.yul\":4340:4458   */\n    tag_50:\n        /* \"#utility.yul\":4427:4451   */\n      tag_101\n        /* \"#utility.yul\":4445:4450   */\n      dup2\n        /* \"#utility.yul\":4427:4451   */\n      tag_34\n      jump\t// in\n    tag_101:\n        /* \"#utility.yul\":4422:4425   */\n      dup3\n        /* \"#utility.yul\":4415:4452   */\n      mstore\n        /* \"#utility.yul\":4340:4458   */\n      pop\n      pop\n      jump\t// out\n        /* \"#utility.yul\":4464:4560   */\n    tag_51:\n        /* \"#utility.yul\":4501:4508   */\n      0x00\n        /* \"#utility.yul\":4530:4554   */\n      tag_103\n        /* \"#utility.yul\":4548:4553   */\n      dup3\n        /* \"#utility.yul\":4530:4554   */\n      tag_37\n      jump\t// in\n    tag_103:\n        /* \"#utility.yul\":4519:4554   */\n      swap1\n      pop\n        /* \"#utility.yul\":4464:4560   */\n      swap2\n      swap1\n      pop\n      jump\t// out\n        /* \"#utility.yul\":4566:4684   */\n    tag_52:\n        /* \"#utility.yul\":4653:4677   */\n      tag_105\n        /* \"#utility.yul\":4671:4676   */\n      dup2\n        /* \"#utility.yul\":4653:4677   */\n      tag_51\n      jump\t// in\n    tag_105:\n        /* \"#utility.yul\":4648:4651   */\n      dup3\n        /* \"#utility.yul\":4641:4678   */\n      mstore\n        /* \"#utility.yul\":4566:4684   */\n      pop\n      pop\n      jump\t// out\n        /* \"#utility.yul\":4690:5022   */\n    tag_28:\n        /* \"#utility.yul\":4811:4815   */\n      0x00\n        /* \"#utility.yul\":4849:4851   */\n      0x40\n        /* \"#utility.yul\":4838:4847   */\n      dup3\n        /* \"#utility.yul\":4834:4852   */\n      add\n        /* \"#utility.yul\":4826:4852   */\n      swap1\n      pop\n        /* \"#utility.yul\":4862:4933   */\n      tag_107\n        /* \"#utility.yul\":4930:4931   */\n      0x00\n        /* \"#utility.yul\":4919:4928   */\n      dup4\n        /* \"#utility.yul\":4915:4932   */\n      add\n        /* \"#utility.yul\":4906:4912   */\n      dup6\n        /* \"#utility.yul\":4862:4933   */\n      tag_50\n      jump\t// in\n    tag_107:\n        /* \"#utility.yul\":4943:5015   */\n      tag_108\n        /* \"#utility.yul\":5011:5013   */\n      0x20\n        /* \"#utility.yul\":5000:5009   */\n      dup4\n        /* \"#utility.yul\":4996:5014   */\n      add\n        /* \"#utility.yul\":4987:4993   */\n      dup5\n        /* \"#utility.yul\":4943:5015   */\n      tag_52\n      jump\t// in\n    tag_108:\n        /* \"#utility.yul\":4690:5022   */\n      swap4\n      swap3\n      pop\n      pop\n      pop\n      jump\t// out\n    stop\n\n    sub_0: assembly {\n            /* \"Campaign.sol\":448:3120  contract Campaign {... */\n          mstore(0x40, 0x80)\n            /* \"Campaign.sol\":914:1033  constructor(uint minimum, address creator) {... */\n          callvalue\n          dup1\n          iszero\n          tag_1\n          jumpi\n          revert(0x00, 0x00)\n        tag_1:\n          pop\n          mload(0x40)\n          sub(codesize, bytecodeSize)\n          dup1\n          bytecodeSize\n          dup4\n          codecopy\n          dup2\n          dup2\n          add\n          0x40\n          mstore\n          dup2\n          add\n          swap1\n          tag_2\n          swap2\n          swap1\n          tag_3\n          jump\t// in\n        tag_2:\n            /* \"Campaign.sol\":978:985  creator */\n          dup1\n            /* \"Campaign.sol\":968:975  manager */\n          0x01\n          0x00\n            /* \"Campaign.sol\":968:985  manager = creator */\n          0x0100\n          exp\n          dup2\n          sload\n          dup2\n          0xffffffffffffffffffffffffffffffffffffffff\n          mul\n          not\n          and\n          swap1\n          dup4\n          0xffffffffffffffffffffffffffffffffffffffff\n          and\n          mul\n          or\n          swap1\n          sstore\n          pop\n            /* \"Campaign.sol\":1018:1025  minimum */\n          dup2\n            /* \"Campaign.sol\":996:1015  minimumContribution */\n          0x02\n            /* \"Campaign.sol\":996:1025  minimumContribution = minimum */\n          dup2\n          swap1\n          sstore\n          pop\n            /* \"Campaign.sol\":914:1033  constructor(uint minimum, address creator) {... */\n          pop\n          pop\n            /* \"Campaign.sol\":448:3120  contract Campaign {... */\n          jump(tag_6)\n            /* \"#utility.yul\":88:205   */\n        tag_8:\n            /* \"#utility.yul\":197:198   */\n          0x00\n            /* \"#utility.yul\":194:195   */\n          0x00\n            /* \"#utility.yul\":187:199   */\n          revert\n            /* \"#utility.yul\":334:411   */\n        tag_10:\n            /* \"#utility.yul\":371:378   */\n          0x00\n            /* \"#utility.yul\":400:405   */\n          dup2\n            /* \"#utility.yul\":389:405   */\n          swap1\n          pop\n            /* \"#utility.yul\":334:411   */\n          swap2\n          swap1\n          pop\n          jump\t// out\n            /* \"#utility.yul\":417:539   */\n        tag_11:\n            /* \"#utility.yul\":490:514   */\n          tag_23\n            /* \"#utility.yul\":508:513   */\n          dup2\n            /* \"#utility.yul\":490:514   */\n          tag_10\n          jump\t// in\n        tag_23:\n            /* \"#utility.yul\":483:488   */\n          dup2\n            /* \"#utility.yul\":480:515   */\n          eq\n            /* \"#utility.yul\":470:533   */\n          tag_24\n          jumpi\n            /* \"#utility.yul\":529:530   */\n          0x00\n            /* \"#utility.yul\":526:527   */\n          0x00\n            /* \"#utility.yul\":519:531   */\n          revert\n            /* \"#utility.yul\":470:533   */\n        tag_24:\n            /* \"#utility.yul\":417:539   */\n          pop\n          jump\t// out\n            /* \"#utility.yul\":545:688   */\n        tag_12:\n            /* \"#utility.yul\":602:607   */\n          0x00\n            /* \"#utility.yul\":633:639   */\n          dup2\n            /* \"#utility.yul\":627:640   */\n          mload\n            /* \"#utility.yul\":618:640   */\n          swap1\n          pop\n            /* \"#utility.yul\":649:682   */\n          tag_26\n            /* \"#utility.yul\":676:681   */\n          dup2\n            /* \"#utility.yul\":649:682   */\n          tag_11\n          jump\t// in\n        tag_26:\n            /* \"#utility.yul\":545:688   */\n          swap3\n          swap2\n          pop\n          pop\n          jump\t// out\n            /* \"#utility.yul\":694:820   */\n        tag_13:\n            /* \"#utility.yul\":731:738   */\n          0x00\n            /* \"#utility.yul\":771:813   */\n          0xffffffffffffffffffffffffffffffffffffffff\n            /* \"#utility.yul\":764:769   */\n          dup3\n            /* \"#utility.yul\":760:814   */\n          and\n            /* \"#utility.yul\":749:814   */\n          swap1\n          pop\n            /* \"#utility.yul\":694:820   */\n          swap2\n          swap1\n          pop\n          jump\t// out\n            /* \"#utility.yul\":826:922   */\n        tag_14:\n            /* \"#utility.yul\":863:870   */\n          0x00\n            /* \"#utility.yul\":892:916   */\n          tag_29\n            /* \"#utility.yul\":910:915   */\n          dup3\n            /* \"#utility.yul\":892:916   */\n          tag_13\n          jump\t// in\n        tag_29:\n            /* \"#utility.yul\":881:916   */\n          swap1\n          pop\n            /* \"#utility.yul\":826:922   */\n          swap2\n          swap1\n          pop\n          jump\t// out\n            /* \"#utility.yul\":928:1050   */\n        tag_15:\n            /* \"#utility.yul\":1001:1025   */\n          tag_31\n            /* \"#utility.yul\":1019:1024   */\n          dup2\n            /* \"#utility.yul\":1001:1025   */\n          tag_14\n          jump\t// in\n        tag_31:\n            /* \"#utility.yul\":994:999   */\n          dup2\n            /* \"#utility.yul\":991:1026   */\n          eq\n            /* \"#utility.yul\":981:1044   */\n          tag_32\n          jumpi\n            /* \"#utility.yul\":1040:1041   */\n          0x00\n            /* \"#utility.yul\":1037:1038   */\n          0x00\n            /* \"#utility.yul\":1030:1042   */\n          revert\n            /* \"#utility.yul\":981:1044   */\n        tag_32:\n            /* \"#utility.yul\":928:1050   */\n          pop\n          jump\t// out\n            /* \"#utility.yul\":1056:1199   */\n        tag_16:\n            /* \"#utility.yul\":1113:1118   */\n          0x00\n            /* \"#utility.yul\":1144:1150   */\n          dup2\n            /* \"#utility.yul\":1138:1151   */\n          mload\n            /* \"#utility.yul\":1129:1151   */\n          swap1\n          pop\n            /* \"#utility.yul\":1160:1193   */\n          tag_34\n            /* \"#utility.yul\":1187:1192   */\n          dup2\n            /* \"#utility.yul\":1160:1193   */\n          tag_15\n          jump\t// in\n        tag_34:\n            /* \"#utility.yul\":1056:1199   */\n          swap3\n          swap2\n          pop\n          pop\n          jump\t// out\n            /* \"#utility.yul\":1205:1712   */\n        tag_3:\n            /* \"#utility.yul\":1284:1290   */\n          0x00\n            /* \"#utility.yul\":1292:1298   */\n          0x00\n            /* \"#utility.yul\":1341:1343   */\n          0x40\n            /* \"#utility.yul\":1329:1338   */\n          dup4\n            /* \"#utility.yul\":1320:1327   */\n          dup6\n            /* \"#utility.yul\":1316:1339   */\n          sub\n            /* \"#utility.yul\":1312:1344   */\n          slt\n            /* \"#utility.yul\":1309:1428   */\n          iszero\n          tag_36\n          jumpi\n            /* \"#utility.yul\":1347:1426   */\n          tag_37\n          tag_8\n          jump\t// in\n        tag_37:\n            /* \"#utility.yul\":1309:1428   */\n        tag_36:\n            /* \"#utility.yul\":1467:1468   */\n          0x00\n            /* \"#utility.yul\":1492:1556   */\n          tag_38\n            /* \"#utility.yul\":1548:1555   */\n          dup6\n            /* \"#utility.yul\":1539:1545   */\n          dup3\n            /* \"#utility.yul\":1528:1537   */\n          dup7\n            /* \"#utility.yul\":1524:1546   */\n          add\n            /* \"#utility.yul\":1492:1556   */\n          tag_12\n          jump\t// in\n        tag_38:\n            /* \"#utility.yul\":1482:1556   */\n          swap3\n          pop\n            /* \"#utility.yul\":1438:1566   */\n          pop\n            /* \"#utility.yul\":1605:1607   */\n          0x20\n            /* \"#utility.yul\":1631:1695   */\n          tag_39\n            /* \"#utility.yul\":1687:1694   */\n          dup6\n            /* \"#utility.yul\":1678:1684   */\n          dup3\n            /* \"#utility.yul\":1667:1676   */\n          dup7\n            /* \"#utility.yul\":1663:1685   */\n          add\n            /* \"#utility.yul\":1631:1695   */\n          tag_16\n          jump\t// in\n        tag_39:\n            /* \"#utility.yul\":1621:1695   */\n          swap2\n          pop\n            /* \"#utility.yul\":1576:1705   */\n          pop\n            /* \"#utility.yul\":1205:1712   */\n          swap3\n          pop\n          swap3\n          swap1\n          pop\n          jump\t// out\n            /* \"Campaign.sol\":448:3120  contract Campaign {... */\n        tag_6:\n          dataSize(sub_0)\n          dup1\n          dataOffset(sub_0)\n          0x00\n          codecopy\n          0x00\n          return\n        stop\n\n        sub_0: assembly {\n                /* \"Campaign.sol\":448:3120  contract Campaign {... */\n              mstore(0x40, 0x80)\n              jumpi(tag_1, lt(calldatasize, 0x04))\n              shr(0xe0, calldataload(0x00))\n              dup1\n              0x81d12c58\n              gt\n              tag_13\n              jumpi\n              dup1\n              0x81d12c58\n              eq\n              tag_7\n              jumpi\n              dup1\n              0x82fde093\n              eq\n              tag_8\n              jumpi\n              dup1\n              0x8a9cfd55\n              eq\n              tag_9\n              jumpi\n              dup1\n              0x937e09b1\n              eq\n              tag_10\n              jumpi\n              dup1\n              0xd7bb99ba\n              eq\n              tag_11\n              jumpi\n              dup1\n              0xd7d1bbdb\n              eq\n              tag_12\n              jumpi\n              jump(tag_1)\n            tag_13:\n              dup1\n              0x03441006\n              eq\n              tag_2\n              jumpi\n              dup1\n              0x0a144391\n              eq\n              tag_3\n              jumpi\n              dup1\n              0x3410452a\n              eq\n              tag_4\n              jumpi\n              dup1\n              0x4051ddac\n              eq\n              tag_5\n              jumpi\n              dup1\n              0x481c6a75\n              eq\n              tag_6\n              jumpi\n            tag_1:\n              revert(0x00, 0x00)\n                /* \"Campaign.sol\":2106:2567  function finalizeRequest(uint index) public restricted payable{... */\n            tag_2:\n              tag_14\n              0x04\n              dup1\n              calldatasize\n              sub\n              dup2\n              add\n              swap1\n              tag_15\n              swap2\n              swap1\n              tag_16\n              jump\t// in\n            tag_15:\n              tag_17\n              jump\t// in\n            tag_14:\n              stop\n                /* \"Campaign.sol\":808:849  mapping(address => bool) public approvers */\n            tag_3:\n              callvalue\n              dup1\n              iszero\n              tag_18\n              jumpi\n              revert(0x00, 0x00)\n            tag_18:\n              pop\n              tag_19\n              0x04\n              dup1\n              calldatasize\n              sub\n              dup2\n              add\n              swap1\n              tag_20\n              swap2\n              swap1\n              tag_21\n              jump\t// in\n            tag_20:\n              tag_22\n              jump\t// in\n            tag_19:\n              mload(0x40)\n              tag_23\n              swap2\n              swap1\n              tag_24\n              jump\t// in\n            tag_23:\n              mload(0x40)\n              dup1\n              swap2\n              sub\n              swap1\n              return\n                /* \"Campaign.sol\":2842:2934  function getRequestsCount() public view returns (uint) {... */\n            tag_4:\n              callvalue\n              dup1\n              iszero\n              tag_25\n              jumpi\n              revert(0x00, 0x00)\n            tag_25:\n              pop\n              tag_26\n              tag_27\n              jump\t// in\n            tag_26:\n              mload(0x40)\n              tag_28\n              swap2\n              swap1\n              tag_29\n              jump\t// in\n            tag_28:\n              mload(0x40)\n              dup1\n              swap2\n              sub\n              swap1\n              return\n                /* \"Campaign.sol\":2575:2834  function getSummary() public view returns(uint, uint, uint, uint, address) {... */\n            tag_5:\n              callvalue\n              dup1\n              iszero\n              tag_30\n              jumpi\n              revert(0x00, 0x00)\n            tag_30:\n              pop\n              tag_31\n              tag_32\n              jump\t// in\n            tag_31:\n              mload(0x40)\n              tag_33\n              swap6\n              swap5\n              swap4\n              swap3\n              swap2\n              swap1\n              tag_34\n              jump\t// in\n            tag_33:\n              mload(0x40)\n              dup1\n              swap2\n              sub\n              swap1\n              return\n                /* \"Campaign.sol\":741:763  address public manager */\n            tag_6:\n              callvalue\n              dup1\n              iszero\n              tag_35\n              jumpi\n              revert(0x00, 0x00)\n            tag_35:\n              pop\n              tag_36\n              tag_37\n              jump\t// in\n            tag_36:\n              mload(0x40)\n              tag_38\n              swap2\n              swap1\n              tag_39\n              jump\t// in\n            tag_38:\n              mload(0x40)\n              dup1\n              swap2\n              sub\n              swap1\n              return\n                /* \"Campaign.sol\":694:734  mapping(uint => Request) public requests */\n            tag_7:\n              callvalue\n              dup1\n              iszero\n              tag_40\n              jumpi\n              revert(0x00, 0x00)\n            tag_40:\n              pop\n              tag_41\n              0x04\n              dup1\n              calldatasize\n              sub\n              dup2\n              add\n              swap1\n              tag_42\n              swap2\n              swap1\n              tag_16\n              jump\t// in\n            tag_42:\n              tag_43\n              jump\t// in\n            tag_41:\n              mload(0x40)\n              tag_44\n              swap6\n              swap5\n              swap4\n              swap3\n              swap2\n              swap1\n              tag_45\n              jump\t// in\n            tag_44:\n              mload(0x40)\n              dup1\n              swap2\n              sub\n              swap1\n              return\n                /* \"Campaign.sol\":879:905  uint public approversCount */\n            tag_8:\n              callvalue\n              dup1\n              iszero\n              tag_46\n              jumpi\n              revert(0x00, 0x00)\n            tag_46:\n              pop\n              tag_47\n              tag_48\n              jump\t// in\n            tag_47:\n              mload(0x40)\n              tag_49\n              swap2\n              swap1\n              tag_29\n              jump\t// in\n            tag_49:\n              mload(0x40)\n              dup1\n              swap2\n              sub\n              swap1\n              return\n                /* \"Campaign.sol\":1288:1617  function createRequest(string memory description, uint256 value, address payable recipient) public restricted {... */\n            tag_9:\n              callvalue\n              dup1\n              iszero\n              tag_50\n              jumpi\n              revert(0x00, 0x00)\n            tag_50:\n              pop\n              tag_51\n              0x04\n              dup1\n              calldatasize\n              sub\n              dup2\n              add\n              swap1\n              tag_52\n              swap2\n              swap1\n              tag_53\n              jump\t// in\n            tag_52:\n              tag_54\n              jump\t// in\n            tag_51:\n              stop\n                /* \"Campaign.sol\":770:801  uint public minimumContribution */\n            tag_10:\n              callvalue\n              dup1\n              iszero\n              tag_55\n              jumpi\n              revert(0x00, 0x00)\n            tag_55:\n              pop\n              tag_56\n              tag_57\n              jump\t// in\n            tag_56:\n              mload(0x40)\n              tag_58\n              swap2\n              swap1\n              tag_29\n              jump\t// in\n            tag_58:\n              mload(0x40)\n              dup1\n              swap2\n              sub\n              swap1\n              return\n                /* \"Campaign.sol\":1041:1282  function contribute() public payable {... */\n            tag_11:\n              tag_59\n              tag_60\n              jump\t// in\n            tag_59:\n              stop\n                /* \"Campaign.sol\":1625:2098  function approveRequest(uint index) public {... */\n            tag_12:\n              callvalue\n              dup1\n              iszero\n              tag_61\n              jumpi\n              revert(0x00, 0x00)\n            tag_61:\n              pop\n              tag_62\n              0x04\n              dup1\n              calldatasize\n              sub\n              dup2\n              add\n              swap1\n              tag_63\n              swap2\n              swap1\n              tag_16\n              jump\t// in\n            tag_63:\n              tag_64\n              jump\t// in\n            tag_62:\n              stop\n                /* \"Campaign.sol\":2106:2567  function finalizeRequest(uint index) public restricted payable{... */\n            tag_17:\n                /* \"Campaign.sol\":3011:3018  manager */\n              0x01\n              0x00\n              swap1\n              sload\n              swap1\n              0x0100\n              exp\n              swap1\n              div\n              0xffffffffffffffffffffffffffffffffffffffff\n              and\n                /* \"Campaign.sol\":2997:3018  msg.sender == manager */\n              0xffffffffffffffffffffffffffffffffffffffff\n              and\n                /* \"Campaign.sol\":2997:3007  msg.sender */\n              caller\n                /* \"Campaign.sol\":2997:3018  msg.sender == manager */\n              0xffffffffffffffffffffffffffffffffffffffff\n              and\n              eq\n                /* \"Campaign.sol\":2975:3095  require(... */\n              tag_66\n              jumpi\n              mload(0x40)\n              0x08c379a000000000000000000000000000000000000000000000000000000000\n              dup2\n              mstore\n              0x04\n              add\n              tag_67\n              swap1\n              tag_68\n              jump\t// in\n            tag_67:\n              mload(0x40)\n              dup1\n              swap2\n              sub\n              swap1\n              revert\n            tag_66:\n                /* \"Campaign.sol\":2179:2202  Request storage request */\n              0x00\n                /* \"Campaign.sol\":2205:2213  requests */\n              0x00\n                /* \"Campaign.sol\":2205:2220  requests[index] */\n              0x00\n                /* \"Campaign.sol\":2214:2219  index */\n              dup4\n                /* \"Campaign.sol\":2205:2220  requests[index] */\n              dup2\n              mstore\n              0x20\n              add\n              swap1\n              dup2\n              mstore\n              0x20\n              add\n              0x00\n              keccak256\n                /* \"Campaign.sol\":2179:2220  Request storage request = requests[index] */\n              swap1\n              pop\n                /* \"Campaign.sol\":2297:2298  2 */\n              0x02\n                /* \"Campaign.sol\":2280:2294  approversCount */\n              sload(0x05)\n                /* \"Campaign.sol\":2280:2298  approversCount / 2 */\n              tag_70\n              swap2\n              swap1\n              tag_71\n              jump\t// in\n            tag_70:\n                /* \"Campaign.sol\":2255:2262  request */\n              dup2\n                /* \"Campaign.sol\":2255:2276  request.approvalCount */\n              0x03\n              add\n              sload\n                /* \"Campaign.sol\":2255:2299  request.approvalCount > (approversCount / 2) */\n              gt\n                /* \"Campaign.sol\":2233:2387  require(... */\n              tag_72\n              jumpi\n              mload(0x40)\n              0x08c379a000000000000000000000000000000000000000000000000000000000\n              dup2\n              mstore\n              0x04\n              add\n              tag_73\n              swap1\n              tag_74\n              jump\t// in\n            tag_73:\n              mload(0x40)\n              dup1\n              swap2\n              sub\n              swap1\n              revert\n            tag_72:\n                /* \"Campaign.sol\":2410:2417  request */\n              dup1\n                /* \"Campaign.sol\":2410:2426  request.complete */\n              0x02\n              add\n              0x14\n              swap1\n              sload\n              swap1\n              0x0100\n              exp\n              swap1\n              div\n              0xff\n              and\n                /* \"Campaign.sol\":2408:2427  !(request.complete) */\n              iszero\n                /* \"Campaign.sol\":2400:2471  require(!(request.complete), \"This request has already been finalized\") */\n              tag_75\n              jumpi\n              mload(0x40)\n              0x08c379a000000000000000000000000000000000000000000000000000000000\n              dup2\n              mstore\n              0x04\n              add\n              tag_76\n              swap1\n              tag_77\n              jump\t// in\n            tag_76:\n              mload(0x40)\n              dup1\n              swap2\n              sub\n              swap1\n              revert\n            tag_75:\n                /* \"Campaign.sol\":2484:2491  request */\n              dup1\n                /* \"Campaign.sol\":2484:2501  request.recipient */\n              0x02\n              add\n              0x00\n              swap1\n              sload\n              swap1\n              0x0100\n              exp\n              swap1\n              div\n              0xffffffffffffffffffffffffffffffffffffffff\n              and\n                /* \"Campaign.sol\":2484:2510  request.recipient.transfer */\n              0xffffffffffffffffffffffffffffffffffffffff\n              and\n                /* \"Campaign.sol\":2484:2525  request.recipient.transfer(request.value) */\n              0x08fc\n                /* \"Campaign.sol\":2511:2518  request */\n              dup3\n                /* \"Campaign.sol\":2511:2524  request.value */\n              0x01\n              add\n              sload\n                /* \"Campaign.sol\":2484:2525  request.recipient.transfer(request.value) */\n              swap1\n              dup2\n              iszero\n              mul\n              swap1\n              mload(0x40)\n              0x00\n              mload(0x40)\n              dup1\n              dup4\n              sub\n              dup2\n              dup6\n              dup9\n              dup9\n              call\n              swap4\n              pop\n              pop\n              pop\n              pop\n              iszero\n              dup1\n              iszero\n              tag_79\n              jumpi\n              returndatacopy(0x00, 0x00, returndatasize)\n              revert(0x00, returndatasize)\n            tag_79:\n              pop\n                /* \"Campaign.sol\":2555:2559  true */\n              0x01\n                /* \"Campaign.sol\":2536:2543  request */\n              dup2\n                /* \"Campaign.sol\":2536:2552  request.complete */\n              0x02\n              add\n              0x14\n                /* \"Campaign.sol\":2536:2559  request.complete = true */\n              0x0100\n              exp\n              dup2\n              sload\n              dup2\n              0xff\n              mul\n              not\n              and\n              swap1\n              dup4\n              iszero\n              iszero\n              mul\n              or\n              swap1\n              sstore\n              pop\n                /* \"Campaign.sol\":2168:2567  {... */\n              pop\n                /* \"Campaign.sol\":2106:2567  function finalizeRequest(uint index) public restricted payable{... */\n              pop\n              jump\t// out\n                /* \"Campaign.sol\":808:849  mapping(address => bool) public approvers */\n            tag_22:\n              mstore(0x20, 0x03)\n              dup1\n              0x00\n              mstore\n              keccak256(0x00, 0x40)\n              0x00\n              swap2\n              pop\n              sload\n              swap1\n              0x0100\n              exp\n              swap1\n              div\n              0xff\n              and\n              dup2\n              jump\t// out\n                /* \"Campaign.sol\":2842:2934  function getRequestsCount() public view returns (uint) {... */\n            tag_27:\n                /* \"Campaign.sol\":2891:2895  uint */\n              0x00\n                /* \"Campaign.sol\":2915:2926  numRequests */\n              sload(0x04)\n                /* \"Campaign.sol\":2908:2926  return numRequests */\n              swap1\n              pop\n                /* \"Campaign.sol\":2842:2934  function getRequestsCount() public view returns (uint) {... */\n              swap1\n              jump\t// out\n                /* \"Campaign.sol\":2575:2834  function getSummary() public view returns(uint, uint, uint, uint, address) {... */\n            tag_32:\n                /* \"Campaign.sol\":2617:2621  uint */\n              0x00\n                /* \"Campaign.sol\":2623:2627  uint */\n              0x00\n                /* \"Campaign.sol\":2629:2633  uint */\n              0x00\n                /* \"Campaign.sol\":2635:2639  uint */\n              0x00\n                /* \"Campaign.sol\":2641:2648  address */\n              0x00\n                /* \"Campaign.sol\":2683:2702  minimumContribution */\n              sload(0x02)\n                /* \"Campaign.sol\":2717:2738  address(this).balance */\n              selfbalance\n                /* \"Campaign.sol\":2753:2764  numRequests */\n              sload(0x04)\n                /* \"Campaign.sol\":2779:2793  approversCount */\n              sload(0x05)\n                /* \"Campaign.sol\":2808:2815  manager */\n              0x01\n              0x00\n              swap1\n              sload\n              swap1\n              0x0100\n              exp\n              swap1\n              div\n              0xffffffffffffffffffffffffffffffffffffffff\n              and\n                /* \"Campaign.sol\":2661:2826  return (... */\n              swap5\n              pop\n              swap5\n              pop\n              swap5\n              pop\n              swap5\n              pop\n              swap5\n              pop\n                /* \"Campaign.sol\":2575:2834  function getSummary() public view returns(uint, uint, uint, uint, address) {... */\n              swap1\n              swap2\n              swap3\n              swap4\n              swap5\n              jump\t// out\n                /* \"Campaign.sol\":741:763  address public manager */\n            tag_37:\n              0x01\n              0x00\n              swap1\n              sload\n              swap1\n              0x0100\n              exp\n              swap1\n              div\n              0xffffffffffffffffffffffffffffffffffffffff\n              and\n              dup2\n              jump\t// out\n                /* \"Campaign.sol\":694:734  mapping(uint => Request) public requests */\n            tag_43:\n              mstore(0x20, 0x00)\n              dup1\n              0x00\n              mstore\n              keccak256(0x00, 0x40)\n              0x00\n              swap2\n              pop\n              swap1\n              pop\n              dup1\n              0x00\n              add\n              dup1\n              sload\n              tag_82\n              swap1\n              tag_83\n              jump\t// in\n            tag_82:\n              dup1\n              0x1f\n              add\n              0x20\n              dup1\n              swap2\n              div\n              mul\n              0x20\n              add\n              mload(0x40)\n              swap1\n              dup2\n              add\n              0x40\n              mstore\n              dup1\n              swap3\n              swap2\n              swap1\n              dup2\n              dup2\n              mstore\n              0x20\n              add\n              dup3\n              dup1\n              sload\n              tag_84\n              swap1\n              tag_83\n              jump\t// in\n            tag_84:\n              dup1\n              iszero\n              tag_85\n              jumpi\n              dup1\n              0x1f\n              lt\n              tag_86\n              jumpi\n              0x0100\n              dup1\n              dup4\n              sload\n              div\n              mul\n              dup4\n              mstore\n              swap2\n              0x20\n              add\n              swap2\n              jump(tag_85)\n            tag_86:\n              dup3\n              add\n              swap2\n              swap1\n              0x00\n              mstore\n              keccak256(0x00, 0x20)\n              swap1\n            tag_87:\n              dup2\n              sload\n              dup2\n              mstore\n              swap1\n              0x01\n              add\n              swap1\n              0x20\n              add\n              dup1\n              dup4\n              gt\n              tag_87\n              jumpi\n              dup3\n              swap1\n              sub\n              0x1f\n              and\n              dup3\n              add\n              swap2\n            tag_85:\n              pop\n              pop\n              pop\n              pop\n              pop\n              swap1\n              dup1\n              0x01\n              add\n              sload\n              swap1\n              dup1\n              0x02\n              add\n              0x00\n              swap1\n              sload\n              swap1\n              0x0100\n              exp\n              swap1\n              div\n              0xffffffffffffffffffffffffffffffffffffffff\n              and\n              swap1\n              dup1\n              0x02\n              add\n              0x14\n              swap1\n              sload\n              swap1\n              0x0100\n              exp\n              swap1\n              div\n              0xff\n              and\n              swap1\n              dup1\n              0x03\n              add\n              sload\n              swap1\n              pop\n              dup6\n              jump\t// out\n                /* \"Campaign.sol\":879:905  uint public approversCount */\n            tag_48:\n              sload(0x05)\n              dup2\n              jump\t// out\n                /* \"Campaign.sol\":1288:1617  function createRequest(string memory description, uint256 value, address payable recipient) public restricted {... */\n            tag_54:\n                /* \"Campaign.sol\":3011:3018  manager */\n              0x01\n              0x00\n              swap1\n              sload\n              swap1\n              0x0100\n              exp\n              swap1\n              div\n              0xffffffffffffffffffffffffffffffffffffffff\n              and\n                /* \"Campaign.sol\":2997:3018  msg.sender == manager */\n              0xffffffffffffffffffffffffffffffffffffffff\n              and\n                /* \"Campaign.sol\":2997:3007  msg.sender */\n              caller\n                /* \"Campaign.sol\":2997:3018  msg.sender == manager */\n              0xffffffffffffffffffffffffffffffffffffffff\n              and\n              eq\n                /* \"Campaign.sol\":2975:3095  require(... */\n              tag_89\n              jumpi\n              mload(0x40)\n              0x08c379a000000000000000000000000000000000000000000000000000000000\n              dup2\n              mstore\n              0x04\n              add\n              tag_90\n              swap1\n              tag_68\n              jump\t// in\n            tag_90:\n              mload(0x40)\n              dup1\n              swap2\n              sub\n              swap1\n              revert\n            tag_89:\n                /* \"Campaign.sol\":1409:1426  Request storage r */\n              0x00\n                /* \"Campaign.sol\":1429:1437  requests */\n              0x00\n                /* \"Campaign.sol\":1429:1452  requests[numRequests++] */\n              0x00\n                /* \"Campaign.sol\":1438:1449  numRequests */\n              0x04\n              0x00\n                /* \"Campaign.sol\":1438:1451  numRequests++ */\n              dup2\n              sload\n              dup1\n              swap3\n              swap2\n              swap1\n              tag_92\n              swap1\n              tag_93\n              jump\t// in\n            tag_92:\n              swap2\n              swap1\n              pop\n              sstore\n                /* \"Campaign.sol\":1429:1452  requests[numRequests++] */\n              dup2\n              mstore\n              0x20\n              add\n              swap1\n              dup2\n              mstore\n              0x20\n              add\n              0x00\n              keccak256\n                /* \"Campaign.sol\":1409:1452  Request storage r = requests[numRequests++] */\n              swap1\n              pop\n                /* \"Campaign.sol\":1479:1490  description */\n              dup4\n                /* \"Campaign.sol\":1463:1464  r */\n              dup2\n                /* \"Campaign.sol\":1463:1476  r.description */\n              0x00\n              add\n                /* \"Campaign.sol\":1463:1490  r.description = description */\n              swap1\n              dup2\n              tag_94\n              swap2\n              swap1\n              tag_95\n              jump\t// in\n            tag_94:\n              pop\n                /* \"Campaign.sol\":1511:1516  value */\n              dup3\n                /* \"Campaign.sol\":1501:1502  r */\n              dup2\n                /* \"Campaign.sol\":1501:1508  r.value */\n              0x01\n              add\n                /* \"Campaign.sol\":1501:1516  r.value = value */\n              dup2\n              swap1\n              sstore\n              pop\n                /* \"Campaign.sol\":1541:1550  recipient */\n              dup2\n                /* \"Campaign.sol\":1527:1528  r */\n              dup2\n                /* \"Campaign.sol\":1527:1538  r.recipient */\n              0x02\n              add\n              0x00\n                /* \"Campaign.sol\":1527:1550  r.recipient = recipient */\n              0x0100\n              exp\n              dup2\n              sload\n              dup2\n              0xffffffffffffffffffffffffffffffffffffffff\n              mul\n              not\n              and\n              swap1\n              dup4\n              0xffffffffffffffffffffffffffffffffffffffff\n              and\n              mul\n              or\n              swap1\n              sstore\n              pop\n                /* \"Campaign.sol\":1574:1579  false */\n              0x00\n                /* \"Campaign.sol\":1561:1562  r */\n              dup2\n                /* \"Campaign.sol\":1561:1571  r.complete */\n              0x02\n              add\n              0x14\n                /* \"Campaign.sol\":1561:1579  r.complete = false */\n              0x0100\n              exp\n              dup2\n              sload\n              dup2\n              0xff\n              mul\n              not\n              and\n              swap1\n              dup4\n              iszero\n              iszero\n              mul\n              or\n              swap1\n              sstore\n              pop\n                /* \"Campaign.sol\":1608:1609  0 */\n              0x00\n                /* \"Campaign.sol\":1590:1591  r */\n              dup2\n                /* \"Campaign.sol\":1590:1605  r.approvalCount */\n              0x03\n              add\n                /* \"Campaign.sol\":1590:1609  r.approvalCount = 0 */\n              dup2\n              swap1\n              sstore\n              pop\n                /* \"Campaign.sol\":1398:1617  {... */\n              pop\n                /* \"Campaign.sol\":1288:1617  function createRequest(string memory description, uint256 value, address payable recipient) public restricted {... */\n              pop\n              pop\n              pop\n              jump\t// out\n                /* \"Campaign.sol\":770:801  uint public minimumContribution */\n            tag_57:\n              sload(0x02)\n              dup2\n              jump\t// out\n                /* \"Campaign.sol\":1041:1282  function contribute() public payable {... */\n            tag_60:\n                /* \"Campaign.sol\":1124:1143  minimumContribution */\n              sload(0x02)\n                /* \"Campaign.sol\":1111:1120  msg.value */\n              callvalue\n                /* \"Campaign.sol\":1111:1143  msg.value >= minimumContribution */\n              lt\n              iszero\n                /* \"Campaign.sol\":1089:1206  require(... */\n              tag_97\n              jumpi\n              mload(0x40)\n              0x08c379a000000000000000000000000000000000000000000000000000000000\n              dup2\n              mstore\n              0x04\n              add\n              tag_98\n              swap1\n              tag_99\n              jump\t// in\n            tag_98:\n              mload(0x40)\n              dup1\n              swap2\n              sub\n              swap1\n              revert\n            tag_97:\n                /* \"Campaign.sol\":1243:1247  true */\n              0x01\n                /* \"Campaign.sol\":1219:1228  approvers */\n              0x03\n                /* \"Campaign.sol\":1219:1240  approvers[msg.sender] */\n              0x00\n                /* \"Campaign.sol\":1229:1239  msg.sender */\n              caller\n                /* \"Campaign.sol\":1219:1240  approvers[msg.sender] */\n              0xffffffffffffffffffffffffffffffffffffffff\n              and\n              0xffffffffffffffffffffffffffffffffffffffff\n              and\n              dup2\n              mstore\n              0x20\n              add\n              swap1\n              dup2\n              mstore\n              0x20\n              add\n              0x00\n              keccak256\n              0x00\n                /* \"Campaign.sol\":1219:1247  approvers[msg.sender] = true */\n              0x0100\n              exp\n              dup2\n              sload\n              dup2\n              0xff\n              mul\n              not\n              and\n              swap1\n              dup4\n              iszero\n              iszero\n              mul\n              or\n              swap1\n              sstore\n              pop\n                /* \"Campaign.sol\":1258:1272  approversCount */\n              0x05\n              0x00\n                /* \"Campaign.sol\":1258:1274  approversCount++ */\n              dup2\n              sload\n              dup1\n              swap3\n              swap2\n              swap1\n              tag_100\n              swap1\n              tag_93\n              jump\t// in\n            tag_100:\n              swap2\n              swap1\n              pop\n              sstore\n              pop\n                /* \"Campaign.sol\":1041:1282  function contribute() public payable {... */\n              jump\t// out\n                /* \"Campaign.sol\":1625:2098  function approveRequest(uint index) public {... */\n            tag_64:\n                /* \"Campaign.sol\":1679:1702  Request storage request */\n              0x00\n                /* \"Campaign.sol\":1705:1713  requests */\n              0x00\n                /* \"Campaign.sol\":1705:1720  requests[index] */\n              0x00\n                /* \"Campaign.sol\":1714:1719  index */\n              dup4\n                /* \"Campaign.sol\":1705:1720  requests[index] */\n              dup2\n              mstore\n              0x20\n              add\n              swap1\n              dup2\n              mstore\n              0x20\n              add\n              0x00\n              keccak256\n                /* \"Campaign.sol\":1679:1720  Request storage request = requests[index] */\n              swap1\n              pop\n                /* \"Campaign.sol\":1753:1762  approvers */\n              0x03\n                /* \"Campaign.sol\":1753:1774  approvers[msg.sender] */\n              0x00\n                /* \"Campaign.sol\":1763:1773  msg.sender */\n              caller\n                /* \"Campaign.sol\":1753:1774  approvers[msg.sender] */\n              0xffffffffffffffffffffffffffffffffffffffff\n              and\n              0xffffffffffffffffffffffffffffffffffffffff\n              and\n              dup2\n              mstore\n              0x20\n              add\n              swap1\n              dup2\n              mstore\n              0x20\n              add\n              0x00\n              keccak256\n              0x00\n              swap1\n              sload\n              swap1\n              0x0100\n              exp\n              swap1\n              div\n              0xff\n              and\n                /* \"Campaign.sol\":1731:1858  require(... */\n              tag_102\n              jumpi\n              mload(0x40)\n              0x08c379a000000000000000000000000000000000000000000000000000000000\n              dup2\n              mstore\n              0x04\n              add\n              tag_103\n              swap1\n              tag_104\n              jump\t// in\n            tag_103:\n              mload(0x40)\n              dup1\n              swap2\n              sub\n              swap1\n              revert\n            tag_102:\n                /* \"Campaign.sol\":1892:1899  request */\n              dup1\n                /* \"Campaign.sol\":1892:1909  request.approvals */\n              0x04\n              add\n                /* \"Campaign.sol\":1892:1921  request.approvals[msg.sender] */\n              0x00\n                /* \"Campaign.sol\":1910:1920  msg.sender */\n              caller\n                /* \"Campaign.sol\":1892:1921  request.approvals[msg.sender] */\n              0xffffffffffffffffffffffffffffffffffffffff\n              and\n              0xffffffffffffffffffffffffffffffffffffffff\n              and\n              dup2\n              mstore\n              0x20\n              add\n              swap1\n              dup2\n              mstore\n              0x20\n              add\n              0x00\n              keccak256\n              0x00\n              swap1\n              sload\n              swap1\n              0x0100\n              exp\n              swap1\n              div\n              0xff\n              and\n                /* \"Campaign.sol\":1891:1921  !request.approvals[msg.sender] */\n              iszero\n                /* \"Campaign.sol\":1869:1995  require(... */\n              tag_105\n              jumpi\n              mload(0x40)\n              0x08c379a000000000000000000000000000000000000000000000000000000000\n              dup2\n              mstore\n              0x04\n              add\n              tag_106\n              swap1\n              tag_107\n              jump\t// in\n            tag_106:\n              mload(0x40)\n              dup1\n              swap2\n              sub\n              swap1\n              revert\n            tag_105:\n                /* \"Campaign.sol\":2040:2044  true */\n              0x01\n                /* \"Campaign.sol\":2008:2015  request */\n              dup2\n                /* \"Campaign.sol\":2008:2025  request.approvals */\n              0x04\n              add\n                /* \"Campaign.sol\":2008:2037  request.approvals[msg.sender] */\n              0x00\n                /* \"Campaign.sol\":2026:2036  msg.sender */\n              caller\n                /* \"Campaign.sol\":2008:2037  request.approvals[msg.sender] */\n              0xffffffffffffffffffffffffffffffffffffffff\n              and\n              0xffffffffffffffffffffffffffffffffffffffff\n              and\n              dup2\n              mstore\n              0x20\n              add\n              swap1\n              dup2\n              mstore\n              0x20\n              add\n              0x00\n              keccak256\n              0x00\n                /* \"Campaign.sol\":2008:2044  request.approvals[msg.sender] = true */\n              0x0100\n              exp\n              dup2\n              sload\n              dup2\n              0xff\n              mul\n              not\n              and\n              swap1\n              dup4\n              iszero\n              iszero\n              mul\n              or\n              swap1\n              sstore\n              pop\n                /* \"Campaign.sol\":2055:2062  request */\n              dup1\n                /* \"Campaign.sol\":2055:2076  request.approvalCount */\n              0x03\n              add\n              0x00\n                /* \"Campaign.sol\":2055:2078  request.approvalCount++ */\n              dup2\n              sload\n              dup1\n              swap3\n              swap2\n              swap1\n              tag_108\n              swap1\n              tag_93\n              jump\t// in\n            tag_108:\n              swap2\n              swap1\n              pop\n              sstore\n              pop\n                /* \"Campaign.sol\":1668:2098  {... */\n              pop\n                /* \"Campaign.sol\":1625:2098  function approveRequest(uint index) public {... */\n              pop\n              jump\t// out\n                /* \"#utility.yul\":7:82   */\n            tag_109:\n                /* \"#utility.yul\":40:46   */\n              0x00\n                /* \"#utility.yul\":73:75   */\n              0x40\n                /* \"#utility.yul\":67:76   */\n              mload\n                /* \"#utility.yul\":57:76   */\n              swap1\n              pop\n                /* \"#utility.yul\":7:82   */\n              swap1\n              jump\t// out\n                /* \"#utility.yul\":88:205   */\n            tag_110:\n                /* \"#utility.yul\":197:198   */\n              0x00\n                /* \"#utility.yul\":194:195   */\n              0x00\n                /* \"#utility.yul\":187:199   */\n              revert\n                /* \"#utility.yul\":211:328   */\n            tag_111:\n                /* \"#utility.yul\":320:321   */\n              0x00\n                /* \"#utility.yul\":317:318   */\n              0x00\n                /* \"#utility.yul\":310:322   */\n              revert\n                /* \"#utility.yul\":334:411   */\n            tag_112:\n                /* \"#utility.yul\":371:378   */\n              0x00\n                /* \"#utility.yul\":400:405   */\n              dup2\n                /* \"#utility.yul\":389:405   */\n              swap1\n              pop\n                /* \"#utility.yul\":334:411   */\n              swap2\n              swap1\n              pop\n              jump\t// out\n                /* \"#utility.yul\":417:539   */\n            tag_113:\n                /* \"#utility.yul\":490:514   */\n              tag_177\n                /* \"#utility.yul\":508:513   */\n              dup2\n                /* \"#utility.yul\":490:514   */\n              tag_112\n              jump\t// in\n            tag_177:\n                /* \"#utility.yul\":483:488   */\n              dup2\n                /* \"#utility.yul\":480:515   */\n              eq\n                /* \"#utility.yul\":470:533   */\n              tag_178\n              jumpi\n                /* \"#utility.yul\":529:530   */\n              0x00\n                /* \"#utility.yul\":526:527   */\n              0x00\n                /* \"#utility.yul\":519:531   */\n              revert\n                /* \"#utility.yul\":470:533   */\n            tag_178:\n                /* \"#utility.yul\":417:539   */\n              pop\n              jump\t// out\n                /* \"#utility.yul\":545:684   */\n            tag_114:\n                /* \"#utility.yul\":591:596   */\n              0x00\n                /* \"#utility.yul\":629:635   */\n              dup2\n                /* \"#utility.yul\":616:636   */\n              calldataload\n                /* \"#utility.yul\":607:636   */\n              swap1\n              pop\n                /* \"#utility.yul\":645:678   */\n              tag_180\n                /* \"#utility.yul\":672:677   */\n              dup2\n                /* \"#utility.yul\":645:678   */\n              tag_113\n              jump\t// in\n            tag_180:\n                /* \"#utility.yul\":545:684   */\n              swap3\n              swap2\n              pop\n              pop\n              jump\t// out\n                /* \"#utility.yul\":690:1019   */\n            tag_16:\n                /* \"#utility.yul\":749:755   */\n              0x00\n                /* \"#utility.yul\":798:800   */\n              0x20\n                /* \"#utility.yul\":786:795   */\n              dup3\n                /* \"#utility.yul\":777:784   */\n              dup5\n                /* \"#utility.yul\":773:796   */\n              sub\n                /* \"#utility.yul\":769:801   */\n              slt\n                /* \"#utility.yul\":766:885   */\n              iszero\n              tag_182\n              jumpi\n                /* \"#utility.yul\":804:883   */\n              tag_183\n              tag_110\n              jump\t// in\n            tag_183:\n                /* \"#utility.yul\":766:885   */\n            tag_182:\n                /* \"#utility.yul\":924:925   */\n              0x00\n                /* \"#utility.yul\":949:1002   */\n              tag_184\n                /* \"#utility.yul\":994:1001   */\n              dup5\n                /* \"#utility.yul\":985:991   */\n              dup3\n                /* \"#utility.yul\":974:983   */\n              dup6\n                /* \"#utility.yul\":970:992   */\n              add\n                /* \"#utility.yul\":949:1002   */\n              tag_114\n              jump\t// in\n            tag_184:\n                /* \"#utility.yul\":939:1002   */\n              swap2\n              pop\n                /* \"#utility.yul\":895:1012   */\n              pop\n                /* \"#utility.yul\":690:1019   */\n              swap3\n              swap2\n              pop\n              pop\n              jump\t// out\n                /* \"#utility.yul\":1025:1151   */\n            tag_115:\n                /* \"#utility.yul\":1062:1069   */\n              0x00\n                /* \"#utility.yul\":1102:1144   */\n              0xffffffffffffffffffffffffffffffffffffffff\n                /* \"#utility.yul\":1095:1100   */\n              dup3\n                /* \"#utility.yul\":1091:1145   */\n              and\n                /* \"#utility.yul\":1080:1145   */\n              swap1\n              pop\n                /* \"#utility.yul\":1025:1151   */\n              swap2\n              swap1\n              pop\n              jump\t// out\n                /* \"#utility.yul\":1157:1253   */\n            tag_116:\n                /* \"#utility.yul\":1194:1201   */\n              0x00\n                /* \"#utility.yul\":1223:1247   */\n              tag_187\n                /* \"#utility.yul\":1241:1246   */\n              dup3\n                /* \"#utility.yul\":1223:1247   */\n              tag_115\n              jump\t// in\n            tag_187:\n                /* \"#utility.yul\":1212:1247   */\n              swap1\n              pop\n                /* \"#utility.yul\":1157:1253   */\n              swap2\n              swap1\n              pop\n              jump\t// out\n                /* \"#utility.yul\":1259:1381   */\n            tag_117:\n                /* \"#utility.yul\":1332:1356   */\n              tag_189\n                /* \"#utility.yul\":1350:1355   */\n              dup2\n                /* \"#utility.yul\":1332:1356   */\n              tag_116\n              jump\t// in\n            tag_189:\n                /* \"#utility.yul\":1325:1330   */\n              dup2\n                /* \"#utility.yul\":1322:1357   */\n              eq\n                /* \"#utility.yul\":1312:1375   */\n              tag_190\n              jumpi\n                /* \"#utility.yul\":1371:1372   */\n              0x00\n                /* \"#utility.yul\":1368:1369   */\n              0x00\n                /* \"#utility.yul\":1361:1373   */\n              revert\n                /* \"#utility.yul\":1312:1375   */\n            tag_190:\n                /* \"#utility.yul\":1259:1381   */\n              pop\n              jump\t// out\n                /* \"#utility.yul\":1387:1526   */\n            tag_118:\n                /* \"#utility.yul\":1433:1438   */\n              0x00\n                /* \"#utility.yul\":1471:1477   */\n              dup2\n                /* \"#utility.yul\":1458:1478   */\n              calldataload\n                /* \"#utility.yul\":1449:1478   */\n              swap1\n              pop\n                /* \"#utility.yul\":1487:1520   */\n              tag_192\n                /* \"#utility.yul\":1514:1519   */\n              dup2\n                /* \"#utility.yul\":1487:1520   */\n              tag_117\n              jump\t// in\n            tag_192:\n                /* \"#utility.yul\":1387:1526   */\n              swap3\n              swap2\n              pop\n              pop\n              jump\t// out\n                /* \"#utility.yul\":1532:1861   */\n            tag_21:\n                /* \"#utility.yul\":1591:1597   */\n              0x00\n                /* \"#utility.yul\":1640:1642   */\n              0x20\n                /* \"#utility.yul\":1628:1637   */\n              dup3\n                /* \"#utility.yul\":1619:1626   */\n              dup5\n                /* \"#utility.yul\":1615:1638   */\n              sub\n                /* \"#utility.yul\":1611:1643   */\n              slt\n                /* \"#utility.yul\":1608:1727   */\n              iszero\n              tag_194\n              jumpi\n                /* \"#utility.yul\":1646:1725   */\n              tag_195\n              tag_110\n              jump\t// in\n            tag_195:\n                /* \"#utility.yul\":1608:1727   */\n            tag_194:\n                /* \"#utility.yul\":1766:1767   */\n              0x00\n                /* \"#utility.yul\":1791:1844   */\n              tag_196\n                /* \"#utility.yul\":1836:1843   */\n              dup5\n                /* \"#utility.yul\":1827:1833   */\n              dup3\n                /* \"#utility.yul\":1816:1825   */\n              dup6\n                /* \"#utility.yul\":1812:1834   */\n              add\n                /* \"#utility.yul\":1791:1844   */\n              tag_118\n              jump\t// in\n            tag_196:\n                /* \"#utility.yul\":1781:1844   */\n              swap2\n              pop\n                /* \"#utility.yul\":1737:1854   */\n              pop\n                /* \"#utility.yul\":1532:1861   */\n              swap3\n              swap2\n              pop\n              pop\n              jump\t// out\n                /* \"#utility.yul\":1867:1957   */\n            tag_119:\n                /* \"#utility.yul\":1901:1908   */\n              0x00\n                /* \"#utility.yul\":1944:1949   */\n              dup2\n                /* \"#utility.yul\":1937:1950   */\n              iszero\n                /* \"#utility.yul\":1930:1951   */\n              iszero\n                /* \"#utility.yul\":1919:1951   */\n              swap1\n              pop\n                /* \"#utility.yul\":1867:1957   */\n              swap2\n              swap1\n              pop\n              jump\t// out\n                /* \"#utility.yul\":1963:2072   */\n            tag_120:\n                /* \"#utility.yul\":2044:2065   */\n              tag_199\n                /* \"#utility.yul\":2059:2064   */\n              dup2\n                /* \"#utility.yul\":2044:2065   */\n              tag_119\n              jump\t// in\n            tag_199:\n                /* \"#utility.yul\":2039:2042   */\n              dup3\n                /* \"#utility.yul\":2032:2066   */\n              mstore\n                /* \"#utility.yul\":1963:2072   */\n              pop\n              pop\n              jump\t// out\n                /* \"#utility.yul\":2078:2288   */\n            tag_24:\n                /* \"#utility.yul\":2165:2169   */\n              0x00\n                /* \"#utility.yul\":2203:2205   */\n              0x20\n                /* \"#utility.yul\":2192:2201   */\n              dup3\n                /* \"#utility.yul\":2188:2206   */\n              add\n                /* \"#utility.yul\":2180:2206   */\n              swap1\n              pop\n                /* \"#utility.yul\":2216:2281   */\n              tag_201\n                /* \"#utility.yul\":2278:2279   */\n              0x00\n                /* \"#utility.yul\":2267:2276   */\n              dup4\n                /* \"#utility.yul\":2263:2280   */\n              add\n                /* \"#utility.yul\":2254:2260   */\n              dup5\n                /* \"#utility.yul\":2216:2281   */\n              tag_120\n              jump\t// in\n            tag_201:\n                /* \"#utility.yul\":2078:2288   */\n              swap3\n              swap2\n              pop\n              pop\n              jump\t// out\n                /* \"#utility.yul\":2294:2412   */\n            tag_121:\n                /* \"#utility.yul\":2381:2405   */\n              tag_203\n                /* \"#utility.yul\":2399:2404   */\n              dup2\n                /* \"#utility.yul\":2381:2405   */\n              tag_112\n              jump\t// in\n            tag_203:\n                /* \"#utility.yul\":2376:2379   */\n              dup3\n                /* \"#utility.yul\":2369:2406   */\n              mstore\n                /* \"#utility.yul\":2294:2412   */\n              pop\n              pop\n              jump\t// out\n                /* \"#utility.yul\":2418:2640   */\n            tag_29:\n                /* \"#utility.yul\":2511:2515   */\n              0x00\n                /* \"#utility.yul\":2549:2551   */\n              0x20\n                /* \"#utility.yul\":2538:2547   */\n              dup3\n                /* \"#utility.yul\":2534:2552   */\n              add\n                /* \"#utility.yul\":2526:2552   */\n              swap1\n              pop\n                /* \"#utility.yul\":2562:2633   */\n              tag_205\n                /* \"#utility.yul\":2630:2631   */\n              0x00\n                /* \"#utility.yul\":2619:2628   */\n              dup4\n                /* \"#utility.yul\":2615:2632   */\n              add\n                /* \"#utility.yul\":2606:2612   */\n              dup5\n                /* \"#utility.yul\":2562:2633   */\n              tag_121\n              jump\t// in\n            tag_205:\n                /* \"#utility.yul\":2418:2640   */\n              swap3\n              swap2\n              pop\n              pop\n              jump\t// out\n                /* \"#utility.yul\":2646:2764   */\n            tag_122:\n                /* \"#utility.yul\":2733:2757   */\n              tag_207\n                /* \"#utility.yul\":2751:2756   */\n              dup2\n                /* \"#utility.yul\":2733:2757   */\n              tag_116\n              jump\t// in\n            tag_207:\n                /* \"#utility.yul\":2728:2731   */\n              dup3\n                /* \"#utility.yul\":2721:2758   */\n              mstore\n                /* \"#utility.yul\":2646:2764   */\n              pop\n              pop\n              jump\t// out\n                /* \"#utility.yul\":2770:3434   */\n            tag_34:\n                /* \"#utility.yul\":2975:2979   */\n              0x00\n                /* \"#utility.yul\":3013:3016   */\n              0xa0\n                /* \"#utility.yul\":3002:3011   */\n              dup3\n                /* \"#utility.yul\":2998:3017   */\n              add\n                /* \"#utility.yul\":2990:3017   */\n              swap1\n              pop\n                /* \"#utility.yul\":3027:3098   */\n              tag_209\n                /* \"#utility.yul\":3095:3096   */\n              0x00\n                /* \"#utility.yul\":3084:3093   */\n              dup4\n                /* \"#utility.yul\":3080:3097   */\n              add\n                /* \"#utility.yul\":3071:3077   */\n              dup9\n                /* \"#utility.yul\":3027:3098   */\n              tag_121\n              jump\t// in\n            tag_209:\n                /* \"#utility.yul\":3108:3180   */\n              tag_210\n                /* \"#utility.yul\":3176:3178   */\n              0x20\n                /* \"#utility.yul\":3165:3174   */\n              dup4\n                /* \"#utility.yul\":3161:3179   */\n              add\n                /* \"#utility.yul\":3152:3158   */\n              dup8\n                /* \"#utility.yul\":3108:3180   */\n              tag_121\n              jump\t// in\n            tag_210:\n                /* \"#utility.yul\":3190:3262   */\n              tag_211\n                /* \"#utility.yul\":3258:3260   */\n              0x40\n                /* \"#utility.yul\":3247:3256   */\n              dup4\n                /* \"#utility.yul\":3243:3261   */\n              add\n                /* \"#utility.yul\":3234:3240   */\n              dup7\n                /* \"#utility.yul\":3190:3262   */\n              tag_121\n              jump\t// in\n            tag_211:\n                /* \"#utility.yul\":3272:3344   */\n              tag_212\n                /* \"#utility.yul\":3340:3342   */\n              0x60\n                /* \"#utility.yul\":3329:3338   */\n              dup4\n                /* \"#utility.yul\":3325:3343   */\n              add\n                /* \"#utility.yul\":3316:3322   */\n              dup6\n                /* \"#utility.yul\":3272:3344   */\n              tag_121\n              jump\t// in\n            tag_212:\n                /* \"#utility.yul\":3354:3427   */\n              tag_213\n                /* \"#utility.yul\":3422:3425   */\n              0x80\n                /* \"#utility.yul\":3411:3420   */\n              dup4\n                /* \"#utility.yul\":3407:3426   */\n              add\n                /* \"#utility.yul\":3398:3404   */\n              dup5\n                /* \"#utility.yul\":3354:3427   */\n              tag_122\n              jump\t// in\n            tag_213:\n                /* \"#utility.yul\":2770:3434   */\n              swap7\n              swap6\n              pop\n              pop\n              pop\n              pop\n              pop\n              pop\n              jump\t// out\n                /* \"#utility.yul\":3440:3662   */\n            tag_39:\n                /* \"#utility.yul\":3533:3537   */\n              0x00\n                /* \"#utility.yul\":3571:3573   */\n              0x20\n                /* \"#utility.yul\":3560:3569   */\n              dup3\n                /* \"#utility.yul\":3556:3574   */\n              add\n                /* \"#utility.yul\":3548:3574   */\n              swap1\n              pop\n                /* \"#utility.yul\":3584:3655   */\n              tag_215\n                /* \"#utility.yul\":3652:3653   */\n              0x00\n                /* \"#utility.yul\":3641:3650   */\n              dup4\n                /* \"#utility.yul\":3637:3654   */\n              add\n                /* \"#utility.yul\":3628:3634   */\n              dup5\n                /* \"#utility.yul\":3584:3655   */\n              tag_122\n              jump\t// in\n            tag_215:\n                /* \"#utility.yul\":3440:3662   */\n              swap3\n              swap2\n              pop\n              pop\n              jump\t// out\n                /* \"#utility.yul\":3668:3767   */\n            tag_123:\n                /* \"#utility.yul\":3720:3726   */\n              0x00\n                /* \"#utility.yul\":3754:3759   */\n              dup2\n                /* \"#utility.yul\":3748:3760   */\n              mload\n                /* \"#utility.yul\":3738:3760   */\n              swap1\n              pop\n                /* \"#utility.yul\":3668:3767   */\n              swap2\n              swap1\n              pop\n              jump\t// out\n                /* \"#utility.yul\":3773:3942   */\n            tag_124:\n                /* \"#utility.yul\":3857:3868   */\n              0x00\n                /* \"#utility.yul\":3891:3897   */\n              dup3\n                /* \"#utility.yul\":3886:3889   */\n              dup3\n                /* \"#utility.yul\":3879:3898   */\n              mstore\n                /* \"#utility.yul\":3931:3935   */\n              0x20\n                /* \"#utility.yul\":3926:3929   */\n              dup3\n                /* \"#utility.yul\":3922:3936   */\n              add\n                /* \"#utility.yul\":3907:3936   */\n              swap1\n              pop\n                /* \"#utility.yul\":3773:3942   */\n              swap3\n              swap2\n              pop\n              pop\n              jump\t// out\n                /* \"#utility.yul\":3948:4087   */\n            tag_125:\n                /* \"#utility.yul\":4037:4043   */\n              dup3\n                /* \"#utility.yul\":4032:4035   */\n              dup2\n                /* \"#utility.yul\":4027:4030   */\n              dup4\n                /* \"#utility.yul\":4021:4044   */\n              mcopy\n                /* \"#utility.yul\":4078:4079   */\n              0x00\n                /* \"#utility.yul\":4069:4075   */\n              dup4\n                /* \"#utility.yul\":4064:4067   */\n              dup4\n                /* \"#utility.yul\":4060:4076   */\n              add\n                /* \"#utility.yul\":4053:4080   */\n              mstore\n                /* \"#utility.yul\":3948:4087   */\n              pop\n              pop\n              pop\n              jump\t// out\n                /* \"#utility.yul\":4093:4195   */\n            tag_126:\n                /* \"#utility.yul\":4134:4140   */\n              0x00\n                /* \"#utility.yul\":4185:4187   */\n              0x1f\n                /* \"#utility.yul\":4181:4188   */\n              not\n                /* \"#utility.yul\":4176:4178   */\n              0x1f\n                /* \"#utility.yul\":4169:4174   */\n              dup4\n                /* \"#utility.yul\":4165:4179   */\n              add\n                /* \"#utility.yul\":4161:4189   */\n              and\n                /* \"#utility.yul\":4151:4189   */\n              swap1\n              pop\n                /* \"#utility.yul\":4093:4195   */\n              swap2\n              swap1\n              pop\n              jump\t// out\n                /* \"#utility.yul\":4201:4578   */\n            tag_127:\n                /* \"#utility.yul\":4289:4292   */\n              0x00\n                /* \"#utility.yul\":4317:4356   */\n              tag_221\n                /* \"#utility.yul\":4350:4355   */\n              dup3\n                /* \"#utility.yul\":4317:4356   */\n              tag_123\n              jump\t// in\n            tag_221:\n                /* \"#utility.yul\":4372:4443   */\n              tag_222\n                /* \"#utility.yul\":4436:4442   */\n              dup2\n                /* \"#utility.yul\":4431:4434   */\n              dup6\n                /* \"#utility.yul\":4372:4443   */\n              tag_124\n              jump\t// in\n            tag_222:\n                /* \"#utility.yul\":4365:4443   */\n              swap4\n              pop\n                /* \"#utility.yul\":4452:4517   */\n              tag_223\n                /* \"#utility.yul\":4510:4516   */\n              dup2\n                /* \"#utility.yul\":4505:4508   */\n              dup6\n                /* \"#utility.yul\":4498:4502   */\n              0x20\n                /* \"#utility.yul\":4491:4496   */\n              dup7\n                /* \"#utility.yul\":4487:4503   */\n              add\n                /* \"#utility.yul\":4452:4517   */\n              tag_125\n              jump\t// in\n            tag_223:\n                /* \"#utility.yul\":4542:4571   */\n              tag_224\n                /* \"#utility.yul\":4564:4570   */\n              dup2\n                /* \"#utility.yul\":4542:4571   */\n              tag_126\n              jump\t// in\n            tag_224:\n                /* \"#utility.yul\":4537:4540   */\n              dup5\n                /* \"#utility.yul\":4533:4572   */\n              add\n                /* \"#utility.yul\":4526:4572   */\n              swap2\n              pop\n                /* \"#utility.yul\":4293:4578   */\n              pop\n                /* \"#utility.yul\":4201:4578   */\n              swap3\n              swap2\n              pop\n              pop\n              jump\t// out\n                /* \"#utility.yul\":4584:4688   */\n            tag_128:\n                /* \"#utility.yul\":4629:4636   */\n              0x00\n                /* \"#utility.yul\":4658:4682   */\n              tag_226\n                /* \"#utility.yul\":4676:4681   */\n              dup3\n                /* \"#utility.yul\":4658:4682   */\n              tag_115\n              jump\t// in\n            tag_226:\n                /* \"#utility.yul\":4647:4682   */\n              swap1\n              pop\n                /* \"#utility.yul\":4584:4688   */\n              swap2\n              swap1\n              pop\n              jump\t// out\n                /* \"#utility.yul\":4694:4836   */\n            tag_129:\n                /* \"#utility.yul\":4797:4829   */\n              tag_228\n                /* \"#utility.yul\":4823:4828   */\n              dup2\n                /* \"#utility.yul\":4797:4829   */\n              tag_128\n              jump\t// in\n            tag_228:\n                /* \"#utility.yul\":4792:4795   */\n              dup3\n                /* \"#utility.yul\":4785:4830   */\n              mstore\n                /* \"#utility.yul\":4694:4836   */\n              pop\n              pop\n              jump\t// out\n                /* \"#utility.yul\":4842:5617   */\n            tag_45:\n                /* \"#utility.yul\":5077:5081   */\n              0x00\n                /* \"#utility.yul\":5115:5118   */\n              0xa0\n                /* \"#utility.yul\":5104:5113   */\n              dup3\n                /* \"#utility.yul\":5100:5119   */\n              add\n                /* \"#utility.yul\":5092:5119   */\n              swap1\n              pop\n                /* \"#utility.yul\":5165:5174   */\n              dup2\n                /* \"#utility.yul\":5159:5163   */\n              dup2\n                /* \"#utility.yul\":5155:5175   */\n              sub\n                /* \"#utility.yul\":5151:5152   */\n              0x00\n                /* \"#utility.yul\":5140:5149   */\n              dup4\n                /* \"#utility.yul\":5136:5153   */\n              add\n                /* \"#utility.yul\":5129:5176   */\n              mstore\n                /* \"#utility.yul\":5193:5271   */\n              tag_230\n                /* \"#utility.yul\":5266:5270   */\n              dup2\n                /* \"#utility.yul\":5257:5263   */\n              dup9\n                /* \"#utility.yul\":5193:5271   */\n              tag_127\n              jump\t// in\n            tag_230:\n                /* \"#utility.yul\":5185:5271   */\n              swap1\n              pop\n                /* \"#utility.yul\":5281:5353   */\n              tag_231\n                /* \"#utility.yul\":5349:5351   */\n              0x20\n                /* \"#utility.yul\":5338:5347   */\n              dup4\n                /* \"#utility.yul\":5334:5352   */\n              add\n                /* \"#utility.yul\":5325:5331   */\n              dup8\n                /* \"#utility.yul\":5281:5353   */\n              tag_121\n              jump\t// in\n            tag_231:\n                /* \"#utility.yul\":5363:5451   */\n              tag_232\n                /* \"#utility.yul\":5447:5449   */\n              0x40\n                /* \"#utility.yul\":5436:5445   */\n              dup4\n                /* \"#utility.yul\":5432:5450   */\n              add\n                /* \"#utility.yul\":5423:5429   */\n              dup7\n                /* \"#utility.yul\":5363:5451   */\n              tag_129\n              jump\t// in\n            tag_232:\n                /* \"#utility.yul\":5461:5527   */\n              tag_233\n                /* \"#utility.yul\":5523:5525   */\n              0x60\n                /* \"#utility.yul\":5512:5521   */\n              dup4\n                /* \"#utility.yul\":5508:5526   */\n              add\n                /* \"#utility.yul\":5499:5505   */\n              dup6\n                /* \"#utility.yul\":5461:5527   */\n              tag_120\n              jump\t// in\n            tag_233:\n                /* \"#utility.yul\":5537:5610   */\n              tag_234\n                /* \"#utility.yul\":5605:5608   */\n              0x80\n                /* \"#utility.yul\":5594:5603   */\n              dup4\n                /* \"#utility.yul\":5590:5609   */\n              add\n                /* \"#utility.yul\":5581:5587   */\n              dup5\n                /* \"#utility.yul\":5537:5610   */\n              tag_121\n              jump\t// in\n            tag_234:\n                /* \"#utility.yul\":4842:5617   */\n              swap7\n              swap6\n              pop\n              pop\n              pop\n              pop\n              pop\n              pop\n              jump\t// out\n                /* \"#utility.yul\":5623:5740   */\n            tag_130:\n                /* \"#utility.yul\":5732:5733   */\n              0x00\n                /* \"#utility.yul\":5729:5730   */\n              0x00\n                /* \"#utility.yul\":5722:5734   */\n              revert\n                /* \"#utility.yul\":5746:5863   */\n            tag_131:\n                /* \"#utility.yul\":5855:5856   */\n              0x00\n                /* \"#utility.yul\":5852:5853   */\n              0x00\n                /* \"#utility.yul\":5845:5857   */\n              revert\n                /* \"#utility.yul\":5869:6049   */\n            tag_132:\n                /* \"#utility.yul\":5917:5994   */\n              0x4e487b7100000000000000000000000000000000000000000000000000000000\n                /* \"#utility.yul\":5914:5915   */\n              0x00\n                /* \"#utility.yul\":5907:5995   */\n              mstore\n                /* \"#utility.yul\":6014:6018   */\n              0x41\n                /* \"#utility.yul\":6011:6012   */\n              0x04\n                /* \"#utility.yul\":6004:6019   */\n              mstore\n                /* \"#utility.yul\":6038:6042   */\n              0x24\n                /* \"#utility.yul\":6035:6036   */\n              0x00\n                /* \"#utility.yul\":6028:6043   */\n              revert\n                /* \"#utility.yul\":6055:6336   */\n            tag_133:\n                /* \"#utility.yul\":6138:6165   */\n              tag_239\n                /* \"#utility.yul\":6160:6164   */\n              dup3\n                /* \"#utility.yul\":6138:6165   */\n              tag_126\n              jump\t// in\n            tag_239:\n                /* \"#utility.yul\":6130:6136   */\n              dup2\n                /* \"#utility.yul\":6126:6166   */\n              add\n                /* \"#utility.yul\":6268:6274   */\n              dup2\n                /* \"#utility.yul\":6256:6266   */\n              dup2\n                /* \"#utility.yul\":6253:6275   */\n              lt\n                /* \"#utility.yul\":6232:6250   */\n              0xffffffffffffffff\n                /* \"#utility.yul\":6220:6230   */\n              dup3\n                /* \"#utility.yul\":6217:6251   */\n              gt\n                /* \"#utility.yul\":6214:6276   */\n              or\n                /* \"#utility.yul\":6211:6299   */\n              iszero\n              tag_240\n              jumpi\n                /* \"#utility.yul\":6279:6297   */\n              tag_241\n              tag_132\n              jump\t// in\n            tag_241:\n                /* \"#utility.yul\":6211:6299   */\n            tag_240:\n                /* \"#utility.yul\":6319:6329   */\n              dup1\n                /* \"#utility.yul\":6315:6317   */\n              0x40\n                /* \"#utility.yul\":6308:6330   */\n              mstore\n                /* \"#utility.yul\":6098:6336   */\n              pop\n                /* \"#utility.yul\":6055:6336   */\n              pop\n              pop\n              jump\t// out\n                /* \"#utility.yul\":6342:6471   */\n            tag_134:\n                /* \"#utility.yul\":6376:6382   */\n              0x00\n                /* \"#utility.yul\":6403:6423   */\n              tag_243\n              tag_109\n              jump\t// in\n            tag_243:\n                /* \"#utility.yul\":6393:6423   */\n              swap1\n              pop\n                /* \"#utility.yul\":6432:6465   */\n              tag_244\n                /* \"#utility.yul\":6460:6464   */\n              dup3\n                /* \"#utility.yul\":6452:6458   */\n              dup3\n                /* \"#utility.yul\":6432:6465   */\n              tag_133\n              jump\t// in\n            tag_244:\n                /* \"#utility.yul\":6342:6471   */\n              swap2\n              swap1\n              pop\n              jump\t// out\n                /* \"#utility.yul\":6477:6785   */\n            tag_135:\n                /* \"#utility.yul\":6539:6543   */\n              0x00\n                /* \"#utility.yul\":6629:6647   */\n              0xffffffffffffffff\n                /* \"#utility.yul\":6621:6627   */\n              dup3\n                /* \"#utility.yul\":6618:6648   */\n              gt\n                /* \"#utility.yul\":6615:6671   */\n              iszero\n              tag_246\n              jumpi\n                /* \"#utility.yul\":6651:6669   */\n              tag_247\n              tag_132\n              jump\t// in\n            tag_247:\n                /* \"#utility.yul\":6615:6671   */\n            tag_246:\n                /* \"#utility.yul\":6689:6718   */\n              tag_248\n                /* \"#utility.yul\":6711:6717   */\n              dup3\n                /* \"#utility.yul\":6689:6718   */\n              tag_126\n              jump\t// in\n            tag_248:\n                /* \"#utility.yul\":6681:6718   */\n              swap1\n              pop\n                /* \"#utility.yul\":6773:6777   */\n              0x20\n                /* \"#utility.yul\":6767:6771   */\n              dup2\n                /* \"#utility.yul\":6763:6778   */\n              add\n                /* \"#utility.yul\":6755:6778   */\n              swap1\n              pop\n                /* \"#utility.yul\":6477:6785   */\n              swap2\n              swap1\n              pop\n              jump\t// out\n                /* \"#utility.yul\":6791:6939   */\n            tag_136:\n                /* \"#utility.yul\":6889:6895   */\n              dup3\n                /* \"#utility.yul\":6884:6887   */\n              dup2\n                /* \"#utility.yul\":6879:6882   */\n              dup4\n                /* \"#utility.yul\":6866:6896   */\n              calldatacopy\n                /* \"#utility.yul\":6930:6931   */\n              0x00\n                /* \"#utility.yul\":6921:6927   */\n              dup4\n                /* \"#utility.yul\":6916:6919   */\n              dup4\n                /* \"#utility.yul\":6912:6928   */\n              add\n                /* \"#utility.yul\":6905:6932   */\n              mstore\n                /* \"#utility.yul\":6791:6939   */\n              pop\n              pop\n              pop\n              jump\t// out\n                /* \"#utility.yul\":6945:7370   */\n            tag_137:\n                /* \"#utility.yul\":7023:7028   */\n              0x00\n                /* \"#utility.yul\":7048:7114   */\n              tag_251\n                /* \"#utility.yul\":7064:7113   */\n              tag_252\n                /* \"#utility.yul\":7106:7112   */\n              dup5\n                /* \"#utility.yul\":7064:7113   */\n              tag_135\n              jump\t// in\n            tag_252:\n                /* \"#utility.yul\":7048:7114   */\n              tag_134\n              jump\t// in\n            tag_251:\n                /* \"#utility.yul\":7039:7114   */\n              swap1\n              pop\n                /* \"#utility.yul\":7137:7143   */\n              dup3\n                /* \"#utility.yul\":7130:7135   */\n              dup2\n                /* \"#utility.yul\":7123:7144   */\n              mstore\n                /* \"#utility.yul\":7175:7179   */\n              0x20\n                /* \"#utility.yul\":7168:7173   */\n              dup2\n                /* \"#utility.yul\":7164:7180   */\n              add\n                /* \"#utility.yul\":7213:7216   */\n              dup5\n                /* \"#utility.yul\":7204:7210   */\n              dup5\n                /* \"#utility.yul\":7199:7202   */\n              dup5\n                /* \"#utility.yul\":7195:7211   */\n              add\n                /* \"#utility.yul\":7192:7217   */\n              gt\n                /* \"#utility.yul\":7189:7301   */\n              iszero\n              tag_253\n              jumpi\n                /* \"#utility.yul\":7220:7299   */\n              tag_254\n              tag_131\n              jump\t// in\n            tag_254:\n                /* \"#utility.yul\":7189:7301   */\n            tag_253:\n                /* \"#utility.yul\":7310:7364   */\n              tag_255\n                /* \"#utility.yul\":7357:7363   */\n              dup5\n                /* \"#utility.yul\":7352:7355   */\n              dup3\n                /* \"#utility.yul\":7347:7350   */\n              dup6\n                /* \"#utility.yul\":7310:7364   */\n              tag_136\n              jump\t// in\n            tag_255:\n                /* \"#utility.yul\":7029:7370   */\n              pop\n                /* \"#utility.yul\":6945:7370   */\n              swap4\n              swap3\n              pop\n              pop\n              pop\n              jump\t// out\n                /* \"#utility.yul\":7390:7730   */\n            tag_138:\n                /* \"#utility.yul\":7446:7451   */\n              0x00\n                /* \"#utility.yul\":7495:7498   */\n              dup3\n                /* \"#utility.yul\":7488:7492   */\n              0x1f\n                /* \"#utility.yul\":7480:7486   */\n              dup4\n                /* \"#utility.yul\":7476:7493   */\n              add\n                /* \"#utility.yul\":7472:7499   */\n              slt\n                /* \"#utility.yul\":7462:7584   */\n              tag_257\n              jumpi\n                /* \"#utility.yul\":7503:7582   */\n              tag_258\n              tag_130\n              jump\t// in\n            tag_258:\n                /* \"#utility.yul\":7462:7584   */\n            tag_257:\n                /* \"#utility.yul\":7620:7626   */\n              dup2\n                /* \"#utility.yul\":7607:7627   */\n              calldataload\n                /* \"#utility.yul\":7645:7724   */\n              tag_259\n                /* \"#utility.yul\":7720:7723   */\n              dup5\n                /* \"#utility.yul\":7712:7718   */\n              dup3\n                /* \"#utility.yul\":7705:7709   */\n              0x20\n                /* \"#utility.yul\":7697:7703   */\n              dup7\n                /* \"#utility.yul\":7693:7710   */\n              add\n                /* \"#utility.yul\":7645:7724   */\n              tag_137\n              jump\t// in\n            tag_259:\n                /* \"#utility.yul\":7636:7724   */\n              swap2\n              pop\n                /* \"#utility.yul\":7452:7730   */\n              pop\n                /* \"#utility.yul\":7390:7730   */\n              swap3\n              swap2\n              pop\n              pop\n              jump\t// out\n                /* \"#utility.yul\":7736:7874   */\n            tag_139:\n                /* \"#utility.yul\":7817:7849   */\n              tag_261\n                /* \"#utility.yul\":7843:7848   */\n              dup2\n                /* \"#utility.yul\":7817:7849   */\n              tag_128\n              jump\t// in\n            tag_261:\n                /* \"#utility.yul\":7810:7815   */\n              dup2\n                /* \"#utility.yul\":7807:7850   */\n              eq\n                /* \"#utility.yul\":7797:7868   */\n              tag_262\n              jumpi\n                /* \"#utility.yul\":7864:7865   */\n              0x00\n                /* \"#utility.yul\":7861:7862   */\n              0x00\n                /* \"#utility.yul\":7854:7866   */\n              revert\n                /* \"#utility.yul\":7797:7868   */\n            tag_262:\n                /* \"#utility.yul\":7736:7874   */\n              pop\n              jump\t// out\n                /* \"#utility.yul\":7880:8035   */\n            tag_140:\n                /* \"#utility.yul\":7934:7939   */\n              0x00\n                /* \"#utility.yul\":7972:7978   */\n              dup2\n                /* \"#utility.yul\":7959:7979   */\n              calldataload\n                /* \"#utility.yul\":7950:7979   */\n              swap1\n              pop\n                /* \"#utility.yul\":7988:8029   */\n              tag_264\n                /* \"#utility.yul\":8023:8028   */\n              dup2\n                /* \"#utility.yul\":7988:8029   */\n              tag_139\n              jump\t// in\n            tag_264:\n                /* \"#utility.yul\":7880:8035   */\n              swap3\n              swap2\n              pop\n              pop\n              jump\t// out\n                /* \"#utility.yul\":8041:8856   */\n            tag_53:\n                /* \"#utility.yul\":8136:8142   */\n              0x00\n                /* \"#utility.yul\":8144:8150   */\n              0x00\n                /* \"#utility.yul\":8152:8158   */\n              0x00\n                /* \"#utility.yul\":8201:8203   */\n              0x60\n                /* \"#utility.yul\":8189:8198   */\n              dup5\n                /* \"#utility.yul\":8180:8187   */\n              dup7\n                /* \"#utility.yul\":8176:8199   */\n              sub\n                /* \"#utility.yul\":8172:8204   */\n              slt\n                /* \"#utility.yul\":8169:8288   */\n              iszero\n              tag_266\n              jumpi\n                /* \"#utility.yul\":8207:8286   */\n              tag_267\n              tag_110\n              jump\t// in\n            tag_267:\n                /* \"#utility.yul\":8169:8288   */\n            tag_266:\n                /* \"#utility.yul\":8355:8356   */\n              0x00\n                /* \"#utility.yul\":8344:8353   */\n              dup5\n                /* \"#utility.yul\":8340:8357   */\n              add\n                /* \"#utility.yul\":8327:8358   */\n              calldataload\n                /* \"#utility.yul\":8385:8403   */\n              0xffffffffffffffff\n                /* \"#utility.yul\":8377:8383   */\n              dup2\n                /* \"#utility.yul\":8374:8404   */\n              gt\n                /* \"#utility.yul\":8371:8488   */\n              iszero\n              tag_268\n              jumpi\n                /* \"#utility.yul\":8407:8486   */\n              tag_269\n              tag_111\n              jump\t// in\n            tag_269:\n                /* \"#utility.yul\":8371:8488   */\n            tag_268:\n                /* \"#utility.yul\":8512:8575   */\n              tag_270\n                /* \"#utility.yul\":8567:8574   */\n              dup7\n                /* \"#utility.yul\":8558:8564   */\n              dup3\n                /* \"#utility.yul\":8547:8556   */\n              dup8\n                /* \"#utility.yul\":8543:8565   */\n              add\n                /* \"#utility.yul\":8512:8575   */\n              tag_138\n              jump\t// in\n            tag_270:\n                /* \"#utility.yul\":8502:8575   */\n              swap4\n              pop\n                /* \"#utility.yul\":8298:8585   */\n              pop\n                /* \"#utility.yul\":8624:8626   */\n              0x20\n                /* \"#utility.yul\":8650:8703   */\n              tag_271\n                /* \"#utility.yul\":8695:8702   */\n              dup7\n                /* \"#utility.yul\":8686:8692   */\n              dup3\n                /* \"#utility.yul\":8675:8684   */\n              dup8\n                /* \"#utility.yul\":8671:8693   */\n              add\n                /* \"#utility.yul\":8650:8703   */\n              tag_114\n              jump\t// in\n            tag_271:\n                /* \"#utility.yul\":8640:8703   */\n              swap3\n              pop\n                /* \"#utility.yul\":8595:8713   */\n              pop\n                /* \"#utility.yul\":8752:8754   */\n              0x40\n                /* \"#utility.yul\":8778:8839   */\n              tag_272\n                /* \"#utility.yul\":8831:8838   */\n              dup7\n                /* \"#utility.yul\":8822:8828   */\n              dup3\n                /* \"#utility.yul\":8811:8820   */\n              dup8\n                /* \"#utility.yul\":8807:8829   */\n              add\n                /* \"#utility.yul\":8778:8839   */\n              tag_140\n              jump\t// in\n            tag_272:\n                /* \"#utility.yul\":8768:8839   */\n              swap2\n              pop\n                /* \"#utility.yul\":8723:8849   */\n              pop\n                /* \"#utility.yul\":8041:8856   */\n              swap3\n              pop\n              swap3\n              pop\n              swap3\n              jump\t// out\n                /* \"#utility.yul\":8862:9098   */\n            tag_141:\n                /* \"#utility.yul\":9002:9036   */\n              0x4f6e6c79207468652063616d706169676e206d616e616765722063616e206361\n                /* \"#utility.yul\":8998:8999   */\n              0x00\n                /* \"#utility.yul\":8990:8996   */\n              dup3\n                /* \"#utility.yul\":8986:9000   */\n              add\n                /* \"#utility.yul\":8979:9037   */\n              mstore\n                /* \"#utility.yul\":9071:9090   */\n              0x6c6c20746869732066756e6374696f6e2e000000000000000000000000000000\n                /* \"#utility.yul\":9066:9068   */\n              0x20\n                /* \"#utility.yul\":9058:9064   */\n              dup3\n                /* \"#utility.yul\":9054:9069   */\n              add\n                /* \"#utility.yul\":9047:9091   */\n              mstore\n                /* \"#utility.yul\":8862:9098   */\n              pop\n              jump\t// out\n                /* \"#utility.yul\":9104:9470   */\n            tag_142:\n                /* \"#utility.yul\":9246:9249   */\n              0x00\n                /* \"#utility.yul\":9267:9334   */\n              tag_275\n                /* \"#utility.yul\":9331:9333   */\n              0x31\n                /* \"#utility.yul\":9326:9329   */\n              dup4\n                /* \"#utility.yul\":9267:9334   */\n              tag_124\n              jump\t// in\n            tag_275:\n                /* \"#utility.yul\":9260:9334   */\n              swap2\n              pop\n                /* \"#utility.yul\":9343:9436   */\n              tag_276\n                /* \"#utility.yul\":9432:9435   */\n              dup3\n                /* \"#utility.yul\":9343:9436   */\n              tag_141\n              jump\t// in\n            tag_276:\n                /* \"#utility.yul\":9461:9463   */\n              0x40\n                /* \"#utility.yul\":9456:9459   */\n              dup3\n                /* \"#utility.yul\":9452:9464   */\n              add\n                /* \"#utility.yul\":9445:9464   */\n              swap1\n              pop\n                /* \"#utility.yul\":9104:9470   */\n              swap2\n              swap1\n              pop\n              jump\t// out\n                /* \"#utility.yul\":9476:9895   */\n            tag_68:\n                /* \"#utility.yul\":9642:9646   */\n              0x00\n                /* \"#utility.yul\":9680:9682   */\n              0x20\n                /* \"#utility.yul\":9669:9678   */\n              dup3\n                /* \"#utility.yul\":9665:9683   */\n              add\n                /* \"#utility.yul\":9657:9683   */\n              swap1\n              pop\n                /* \"#utility.yul\":9729:9738   */\n              dup2\n                /* \"#utility.yul\":9723:9727   */\n              dup2\n                /* \"#utility.yul\":9719:9739   */\n              sub\n                /* \"#utility.yul\":9715:9716   */\n              0x00\n                /* \"#utility.yul\":9704:9713   */\n              dup4\n                /* \"#utility.yul\":9700:9717   */\n              add\n                /* \"#utility.yul\":9693:9740   */\n              mstore\n                /* \"#utility.yul\":9757:9888   */\n              tag_278\n                /* \"#utility.yul\":9883:9887   */\n              dup2\n                /* \"#utility.yul\":9757:9888   */\n              tag_142\n              jump\t// in\n            tag_278:\n                /* \"#utility.yul\":9749:9888   */\n              swap1\n              pop\n                /* \"#utility.yul\":9476:9895   */\n              swap2\n              swap1\n              pop\n              jump\t// out\n                /* \"#utility.yul\":9901:10081   */\n            tag_143:\n                /* \"#utility.yul\":9949:10026   */\n              0x4e487b7100000000000000000000000000000000000000000000000000000000\n                /* \"#utility.yul\":9946:9947   */\n              0x00\n                /* \"#utility.yul\":9939:10027   */\n              mstore\n                /* \"#utility.yul\":10046:10050   */\n              0x12\n                /* \"#utility.yul\":10043:10044   */\n              0x04\n                /* \"#utility.yul\":10036:10051   */\n              mstore\n                /* \"#utility.yul\":10070:10074   */\n              0x24\n                /* \"#utility.yul\":10067:10068   */\n              0x00\n                /* \"#utility.yul\":10060:10075   */\n              revert\n                /* \"#utility.yul\":10087:10267   */\n            tag_144:\n                /* \"#utility.yul\":10135:10212   */\n              0x4e487b7100000000000000000000000000000000000000000000000000000000\n                /* \"#utility.yul\":10132:10133   */\n              0x00\n                /* \"#utility.yul\":10125:10213   */\n              mstore\n                /* \"#utility.yul\":10232:10236   */\n              0x11\n                /* \"#utility.yul\":10229:10230   */\n              0x04\n                /* \"#utility.yul\":10222:10237   */\n              mstore\n                /* \"#utility.yul\":10256:10260   */\n              0x24\n                /* \"#utility.yul\":10253:10254   */\n              0x00\n                /* \"#utility.yul\":10246:10261   */\n              revert\n                /* \"#utility.yul\":10273:10458   */\n            tag_71:\n                /* \"#utility.yul\":10313:10314   */\n              0x00\n                /* \"#utility.yul\":10330:10350   */\n              tag_282\n                /* \"#utility.yul\":10348:10349   */\n              dup3\n                /* \"#utility.yul\":10330:10350   */\n              tag_112\n              jump\t// in\n            tag_282:\n                /* \"#utility.yul\":10325:10350   */\n              swap2\n              pop\n                /* \"#utility.yul\":10364:10384   */\n              tag_283\n                /* \"#utility.yul\":10382:10383   */\n              dup4\n                /* \"#utility.yul\":10364:10384   */\n              tag_112\n              jump\t// in\n            tag_283:\n                /* \"#utility.yul\":10359:10384   */\n              swap3\n              pop\n                /* \"#utility.yul\":10403:10404   */\n              dup3\n                /* \"#utility.yul\":10393:10428   */\n              tag_284\n              jumpi\n                /* \"#utility.yul\":10408:10426   */\n              tag_285\n              tag_143\n              jump\t// in\n            tag_285:\n                /* \"#utility.yul\":10393:10428   */\n            tag_284:\n                /* \"#utility.yul\":10450:10451   */\n              dup3\n                /* \"#utility.yul\":10447:10448   */\n              dup3\n                /* \"#utility.yul\":10443:10452   */\n              div\n                /* \"#utility.yul\":10438:10452   */\n              swap1\n              pop\n                /* \"#utility.yul\":10273:10458   */\n              swap3\n              swap2\n              pop\n              pop\n              jump\t// out\n                /* \"#utility.yul\":10464:10711   */\n            tag_145:\n                /* \"#utility.yul\":10604:10638   */\n              0x546869732072657175657374206e65656473206d6f726520617070726f76616c\n                /* \"#utility.yul\":10600:10601   */\n              0x00\n                /* \"#utility.yul\":10592:10598   */\n              dup3\n                /* \"#utility.yul\":10588:10602   */\n              add\n                /* \"#utility.yul\":10581:10639   */\n              mstore\n                /* \"#utility.yul\":10673:10703   */\n              0x73206265666f72652069742063616e2062652066696e616c697a656400000000\n                /* \"#utility.yul\":10668:10670   */\n              0x20\n                /* \"#utility.yul\":10660:10666   */\n              dup3\n                /* \"#utility.yul\":10656:10671   */\n              add\n                /* \"#utility.yul\":10649:10704   */\n              mstore\n                /* \"#utility.yul\":10464:10711   */\n              pop\n              jump\t// out\n                /* \"#utility.yul\":10717:11083   */\n            tag_146:\n                /* \"#utility.yul\":10859:10862   */\n              0x00\n                /* \"#utility.yul\":10880:10947   */\n              tag_288\n                /* \"#utility.yul\":10944:10946   */\n              0x3c\n                /* \"#utility.yul\":10939:10942   */\n              dup4\n                /* \"#utility.yul\":10880:10947   */\n              tag_124\n              jump\t// in\n            tag_288:\n                /* \"#utility.yul\":10873:10947   */\n              swap2\n              pop\n                /* \"#utility.yul\":10956:11049   */\n              tag_289\n                /* \"#utility.yul\":11045:11048   */\n              dup3\n                /* \"#utility.yul\":10956:11049   */\n              tag_145\n              jump\t// in\n            tag_289:\n                /* \"#utility.yul\":11074:11076   */\n              0x40\n                /* \"#utility.yul\":11069:11072   */\n              dup3\n                /* \"#utility.yul\":11065:11077   */\n              add\n                /* \"#utility.yul\":11058:11077   */\n              swap1\n              pop\n                /* \"#utility.yul\":10717:11083   */\n              swap2\n              swap1\n              pop\n              jump\t// out\n                /* \"#utility.yul\":11089:11508   */\n            tag_74:\n                /* \"#utility.yul\":11255:11259   */\n              0x00\n                /* \"#utility.yul\":11293:11295   */\n              0x20\n                /* \"#utility.yul\":11282:11291   */\n              dup3\n                /* \"#utility.yul\":11278:11296   */\n              add\n                /* \"#utility.yul\":11270:11296   */\n              swap1\n              pop\n                /* \"#utility.yul\":11342:11351   */\n              dup2\n                /* \"#utility.yul\":11336:11340   */\n              dup2\n                /* \"#utility.yul\":11332:11352   */\n              sub\n                /* \"#utility.yul\":11328:11329   */\n              0x00\n                /* \"#utility.yul\":11317:11326   */\n              dup4\n                /* \"#utility.yul\":11313:11330   */\n              add\n                /* \"#utility.yul\":11306:11353   */\n              mstore\n                /* \"#utility.yul\":11370:11501   */\n              tag_291\n                /* \"#utility.yul\":11496:11500   */\n              dup2\n                /* \"#utility.yul\":11370:11501   */\n              tag_146\n              jump\t// in\n            tag_291:\n                /* \"#utility.yul\":11362:11501   */\n              swap1\n              pop\n                /* \"#utility.yul\":11089:11508   */\n              swap2\n              swap1\n              pop\n              jump\t// out\n                /* \"#utility.yul\":11514:11740   */\n            tag_147:\n                /* \"#utility.yul\":11654:11688   */\n              0x5468697320726571756573742068617320616c7265616479206265656e206669\n                /* \"#utility.yul\":11650:11651   */\n              0x00\n                /* \"#utility.yul\":11642:11648   */\n              dup3\n                /* \"#utility.yul\":11638:11652   */\n              add\n                /* \"#utility.yul\":11631:11689   */\n              mstore\n                /* \"#utility.yul\":11723:11732   */\n              0x6e616c697a656400000000000000000000000000000000000000000000000000\n                /* \"#utility.yul\":11718:11720   */\n              0x20\n                /* \"#utility.yul\":11710:11716   */\n              dup3\n                /* \"#utility.yul\":11706:11721   */\n              add\n                /* \"#utility.yul\":11699:11733   */\n              mstore\n                /* \"#utility.yul\":11514:11740   */\n              pop\n              jump\t// out\n                /* \"#utility.yul\":11746:12112   */\n            tag_148:\n                /* \"#utility.yul\":11888:11891   */\n              0x00\n                /* \"#utility.yul\":11909:11976   */\n              tag_294\n                /* \"#utility.yul\":11973:11975   */\n              0x27\n                /* \"#utility.yul\":11968:11971   */\n              dup4\n                /* \"#utility.yul\":11909:11976   */\n              tag_124\n              jump\t// in\n            tag_294:\n                /* \"#utility.yul\":11902:11976   */\n              swap2\n              pop\n                /* \"#utility.yul\":11985:12078   */\n              tag_295\n                /* \"#utility.yul\":12074:12077   */\n              dup3\n                /* \"#utility.yul\":11985:12078   */\n              tag_147\n              jump\t// in\n            tag_295:\n                /* \"#utility.yul\":12103:12105   */\n              0x40\n                /* \"#utility.yul\":12098:12101   */\n              dup3\n                /* \"#utility.yul\":12094:12106   */\n              add\n                /* \"#utility.yul\":12087:12106   */\n              swap1\n              pop\n                /* \"#utility.yul\":11746:12112   */\n              swap2\n              swap1\n              pop\n              jump\t// out\n                /* \"#utility.yul\":12118:12537   */\n            tag_77:\n                /* \"#utility.yul\":12284:12288   */\n              0x00\n                /* \"#utility.yul\":12322:12324   */\n              0x20\n                /* \"#utility.yul\":12311:12320   */\n              dup3\n                /* \"#utility.yul\":12307:12325   */\n              add\n                /* \"#utility.yul\":12299:12325   */\n              swap1\n              pop\n                /* \"#utility.yul\":12371:12380   */\n              dup2\n                /* \"#utility.yul\":12365:12369   */\n              dup2\n                /* \"#utility.yul\":12361:12381   */\n              sub\n                /* \"#utility.yul\":12357:12358   */\n              0x00\n                /* \"#utility.yul\":12346:12355   */\n              dup4\n                /* \"#utility.yul\":12342:12359   */\n              add\n                /* \"#utility.yul\":12335:12382   */\n              mstore\n                /* \"#utility.yul\":12399:12530   */\n              tag_297\n                /* \"#utility.yul\":12525:12529   */\n              dup2\n                /* \"#utility.yul\":12399:12530   */\n              tag_148\n              jump\t// in\n            tag_297:\n                /* \"#utility.yul\":12391:12530   */\n              swap1\n              pop\n                /* \"#utility.yul\":12118:12537   */\n              swap2\n              swap1\n              pop\n              jump\t// out\n                /* \"#utility.yul\":12543:12723   */\n            tag_149:\n                /* \"#utility.yul\":12591:12668   */\n              0x4e487b7100000000000000000000000000000000000000000000000000000000\n                /* \"#utility.yul\":12588:12589   */\n              0x00\n                /* \"#utility.yul\":12581:12669   */\n              mstore\n                /* \"#utility.yul\":12688:12692   */\n              0x22\n                /* \"#utility.yul\":12685:12686   */\n              0x04\n                /* \"#utility.yul\":12678:12693   */\n              mstore\n                /* \"#utility.yul\":12712:12716   */\n              0x24\n                /* \"#utility.yul\":12709:12710   */\n              0x00\n                /* \"#utility.yul\":12702:12717   */\n              revert\n                /* \"#utility.yul\":12729:13049   */\n            tag_83:\n                /* \"#utility.yul\":12773:12779   */\n              0x00\n                /* \"#utility.yul\":12810:12811   */\n              0x02\n                /* \"#utility.yul\":12804:12808   */\n              dup3\n                /* \"#utility.yul\":12800:12812   */\n              div\n                /* \"#utility.yul\":12790:12812   */\n              swap1\n              pop\n                /* \"#utility.yul\":12857:12858   */\n              0x01\n                /* \"#utility.yul\":12851:12855   */\n              dup3\n                /* \"#utility.yul\":12847:12859   */\n              and\n                /* \"#utility.yul\":12878:12896   */\n              dup1\n                /* \"#utility.yul\":12868:12949   */\n              tag_300\n              jumpi\n                /* \"#utility.yul\":12934:12938   */\n              0x7f\n                /* \"#utility.yul\":12926:12932   */\n              dup3\n                /* \"#utility.yul\":12922:12939   */\n              and\n                /* \"#utility.yul\":12912:12939   */\n              swap2\n              pop\n                /* \"#utility.yul\":12868:12949   */\n            tag_300:\n                /* \"#utility.yul\":12996:12998   */\n              0x20\n                /* \"#utility.yul\":12988:12994   */\n              dup3\n                /* \"#utility.yul\":12985:12999   */\n              lt\n                /* \"#utility.yul\":12965:12983   */\n              dup2\n                /* \"#utility.yul\":12962:13000   */\n              sub\n                /* \"#utility.yul\":12959:13043   */\n              tag_301\n              jumpi\n                /* \"#utility.yul\":13015:13033   */\n              tag_302\n              tag_149\n              jump\t// in\n            tag_302:\n                /* \"#utility.yul\":12959:13043   */\n            tag_301:\n                /* \"#utility.yul\":12780:13049   */\n              pop\n                /* \"#utility.yul\":12729:13049   */\n              swap2\n              swap1\n              pop\n              jump\t// out\n                /* \"#utility.yul\":13055:13288   */\n            tag_93:\n                /* \"#utility.yul\":13094:13097   */\n              0x00\n                /* \"#utility.yul\":13117:13141   */\n              tag_304\n                /* \"#utility.yul\":13135:13140   */\n              dup3\n                /* \"#utility.yul\":13117:13141   */\n              tag_112\n              jump\t// in\n            tag_304:\n                /* \"#utility.yul\":13108:13141   */\n              swap2\n              pop\n                /* \"#utility.yul\":13163:13229   */\n              0xffffffffffffffffffffffffffffffffffffffffffffffffffffffffffffffff\n                /* \"#utility.yul\":13156:13161   */\n              dup3\n                /* \"#utility.yul\":13153:13230   */\n              sub\n                /* \"#utility.yul\":13150:13253   */\n              tag_305\n              jumpi\n                /* \"#utility.yul\":13233:13251   */\n              tag_306\n              tag_144\n              jump\t// in\n            tag_306:\n                /* \"#utility.yul\":13150:13253   */\n            tag_305:\n                /* \"#utility.yul\":13280:13281   */\n              0x01\n                /* \"#utility.yul\":13273:13278   */\n              dup3\n                /* \"#utility.yul\":13269:13282   */\n              add\n                /* \"#utility.yul\":13262:13282   */\n              swap1\n              pop\n                /* \"#utility.yul\":13055:13288   */\n              swap2\n              swap1\n              pop\n              jump\t// out\n                /* \"#utility.yul\":13294:13435   */\n            tag_150:\n                /* \"#utility.yul\":13343:13347   */\n              0x00\n                /* \"#utility.yul\":13366:13369   */\n              dup2\n                /* \"#utility.yul\":13358:13369   */\n              swap1\n              pop\n                /* \"#utility.yul\":13389:13392   */\n              dup2\n                /* \"#utility.yul\":13386:13387   */\n              0x00\n                /* \"#utility.yul\":13379:13393   */\n              mstore\n                /* \"#utility.yul\":13423:13427   */\n              0x20\n                /* \"#utility.yul\":13420:13421   */\n              0x00\n                /* \"#utility.yul\":13410:13428   */\n              keccak256\n                /* \"#utility.yul\":13402:13428   */\n              swap1\n              pop\n                /* \"#utility.yul\":13294:13435   */\n              swap2\n              swap1\n              pop\n              jump\t// out\n                /* \"#utility.yul\":13441:13534   */\n            tag_151:\n                /* \"#utility.yul\":13478:13484   */\n              0x00\n                /* \"#utility.yul\":13525:13527   */\n              0x20\n                /* \"#utility.yul\":13520:13522   */\n              0x1f\n                /* \"#utility.yul\":13513:13518   */\n              dup4\n                /* \"#utility.yul\":13509:13523   */\n              add\n                /* \"#utility.yul\":13505:13528   */\n              div\n                /* \"#utility.yul\":13495:13528   */\n              swap1\n              pop\n                /* \"#utility.yul\":13441:13534   */\n              swap2\n              swap1\n              pop\n              jump\t// out\n                /* \"#utility.yul\":13540:13647   */\n            tag_152:\n                /* \"#utility.yul\":13584:13592   */\n              0x00\n                /* \"#utility.yul\":13634:13639   */\n              dup3\n                /* \"#utility.yul\":13628:13632   */\n              dup3\n                /* \"#utility.yul\":13624:13640   */\n              shl\n                /* \"#utility.yul\":13603:13640   */\n              swap1\n              pop\n                /* \"#utility.yul\":13540:13647   */\n              swap3\n              swap2\n              pop\n              pop\n              jump\t// out\n                /* \"#utility.yul\":13653:14046   */\n            tag_153:\n                /* \"#utility.yul\":13722:13728   */\n              0x00\n                /* \"#utility.yul\":13772:13773   */\n              0x08\n                /* \"#utility.yul\":13760:13770   */\n              dup4\n                /* \"#utility.yul\":13756:13774   */\n              mul\n                /* \"#utility.yul\":13795:13892   */\n              tag_311\n                /* \"#utility.yul\":13825:13891   */\n              0xffffffffffffffffffffffffffffffffffffffffffffffffffffffffffffffff\n                /* \"#utility.yul\":13814:13823   */\n              dup3\n                /* \"#utility.yul\":13795:13892   */\n              tag_152\n              jump\t// in\n            tag_311:\n                /* \"#utility.yul\":13913:13952   */\n              tag_312\n                /* \"#utility.yul\":13943:13951   */\n              dup7\n                /* \"#utility.yul\":13932:13941   */\n              dup4\n                /* \"#utility.yul\":13913:13952   */\n              tag_152\n              jump\t// in\n            tag_312:\n                /* \"#utility.yul\":13901:13952   */\n              swap6\n              pop\n                /* \"#utility.yul\":13985:13989   */\n              dup1\n                /* \"#utility.yul\":13981:13990   */\n              not\n                /* \"#utility.yul\":13974:13979   */\n              dup5\n                /* \"#utility.yul\":13970:13991   */\n              and\n                /* \"#utility.yul\":13961:13991   */\n              swap4\n              pop\n                /* \"#utility.yul\":14034:14038   */\n              dup1\n                /* \"#utility.yul\":14024:14032   */\n              dup7\n                /* \"#utility.yul\":14020:14039   */\n              and\n                /* \"#utility.yul\":14013:14018   */\n              dup5\n                /* \"#utility.yul\":14010:14040   */\n              or\n                /* \"#utility.yul\":14000:14040   */\n              swap3\n              pop\n                /* \"#utility.yul\":13729:14046   */\n              pop\n              pop\n                /* \"#utility.yul\":13653:14046   */\n              swap4\n              swap3\n              pop\n              pop\n              pop\n              jump\t// out\n                /* \"#utility.yul\":14052:14112   */\n            tag_154:\n                /* \"#utility.yul\":14080:14083   */\n              0x00\n                /* \"#utility.yul\":14101:14106   */\n              dup2\n                /* \"#utility.yul\":14094:14106   */\n              swap1\n              pop\n                /* \"#utility.yul\":14052:14112   */\n              swap2\n              swap1\n              pop\n              jump\t// out\n                /* \"#utility.yul\":14118:14260   */\n            tag_155:\n                /* \"#utility.yul\":14168:14177   */\n              0x00\n                /* \"#utility.yul\":14201:14254   */\n              tag_315\n                /* \"#utility.yul\":14219:14253   */\n              tag_316\n                /* \"#utility.yul\":14228:14252   */\n              tag_317\n                /* \"#utility.yul\":14246:14251   */\n              dup5\n                /* \"#utility.yul\":14228:14252   */\n              tag_112\n              jump\t// in\n            tag_317:\n                /* \"#utility.yul\":14219:14253   */\n              tag_154\n              jump\t// in\n            tag_316:\n                /* \"#utility.yul\":14201:14254   */\n              tag_112\n              jump\t// in\n            tag_315:\n                /* \"#utility.yul\":14188:14254   */\n              swap1\n              pop\n                /* \"#utility.yul\":14118:14260   */\n              swap2\n              swap1\n              pop\n              jump\t// out\n                /* \"#utility.yul\":14266:14341   */\n            tag_156:\n                /* \"#utility.yul\":14309:14312   */\n              0x00\n                /* \"#utility.yul\":14330:14335   */\n              dup2\n                /* \"#utility.yul\":14323:14335   */\n              swap1\n              pop\n                /* \"#utility.yul\":14266:14341   */\n              swap2\n              swap1\n              pop\n              jump\t// out\n                /* \"#utility.yul\":14347:14616   */\n            tag_157:\n                /* \"#utility.yul\":14457:14496   */\n              tag_320\n                /* \"#utility.yul\":14488:14495   */\n              dup4\n                /* \"#utility.yul\":14457:14496   */\n              tag_155\n              jump\t// in\n            tag_320:\n                /* \"#utility.yul\":14518:14609   */\n              tag_321\n                /* \"#utility.yul\":14567:14608   */\n              tag_322\n                /* \"#utility.yul\":14591:14607   */\n              dup3\n                /* \"#utility.yul\":14567:14608   */\n              tag_156\n              jump\t// in\n            tag_322:\n                /* \"#utility.yul\":14559:14565   */\n              dup5\n                /* \"#utility.yul\":14552:14556   */\n              dup5\n                /* \"#utility.yul\":14546:14557   */\n              sload\n                /* \"#utility.yul\":14518:14609   */\n              tag_153\n              jump\t// in\n            tag_321:\n                /* \"#utility.yul\":14512:14516   */\n              dup3\n                /* \"#utility.yul\":14505:14610   */\n              sstore\n                /* \"#utility.yul\":14423:14616   */\n              pop\n                /* \"#utility.yul\":14347:14616   */\n              pop\n              pop\n              pop\n              jump\t// out\n                /* \"#utility.yul\":14622:14695   */\n            tag_158:\n                /* \"#utility.yul\":14667:14670   */\n              0x00\n                /* \"#utility.yul\":14688:14689   */\n              0x00\n                /* \"#utility.yul\":14681:14689   */\n              swap1\n              pop\n                /* \"#utility.yul\":14622:14695   */\n              swap1\n              jump\t// out\n                /* \"#utility.yul\":14701:14890   */\n            tag_159:\n                /* \"#utility.yul\":14778:14810   */\n              tag_325\n              tag_158\n              jump\t// in\n            tag_325:\n                /* \"#utility.yul\":14819:14884   */\n              tag_326\n                /* \"#utility.yul\":14877:14883   */\n              dup2\n                /* \"#utility.yul\":14869:14875   */\n              dup5\n                /* \"#utility.yul\":14863:14867   */\n              dup5\n                /* \"#utility.yul\":14819:14884   */\n              tag_157\n              jump\t// in\n            tag_326:\n                /* \"#utility.yul\":14754:14890   */\n              pop\n                /* \"#utility.yul\":14701:14890   */\n              pop\n              pop\n              jump\t// out\n                /* \"#utility.yul\":14896:15082   */\n            tag_160:\n                /* \"#utility.yul\":14956:15076   */\n            tag_328:\n                /* \"#utility.yul\":14973:14976   */\n              dup2\n                /* \"#utility.yul\":14966:14971   */\n              dup2\n                /* \"#utility.yul\":14963:14977   */\n              lt\n                /* \"#utility.yul\":14956:15076   */\n              iszero\n              tag_330\n              jumpi\n                /* \"#utility.yul\":15027:15066   */\n              tag_331\n                /* \"#utility.yul\":15064:15065   */\n              0x00\n                /* \"#utility.yul\":15057:15062   */\n              dup3\n                /* \"#utility.yul\":15027:15066   */\n              tag_159\n              jump\t// in\n            tag_331:\n                /* \"#utility.yul\":15000:15001   */\n              0x01\n                /* \"#utility.yul\":14993:14998   */\n              dup2\n                /* \"#utility.yul\":14989:15002   */\n              add\n                /* \"#utility.yul\":14980:15002   */\n              swap1\n              pop\n                /* \"#utility.yul\":14956:15076   */\n              jump(tag_328)\n            tag_330:\n                /* \"#utility.yul\":14896:15082   */\n              pop\n              pop\n              jump\t// out\n                /* \"#utility.yul\":15088:15631   */\n            tag_161:\n                /* \"#utility.yul\":15189:15191   */\n              0x1f\n                /* \"#utility.yul\":15184:15187   */\n              dup3\n                /* \"#utility.yul\":15181:15192   */\n              gt\n                /* \"#utility.yul\":15178:15624   */\n              iszero\n              tag_333\n              jumpi\n                /* \"#utility.yul\":15223:15261   */\n              tag_334\n                /* \"#utility.yul\":15255:15260   */\n              dup2\n                /* \"#utility.yul\":15223:15261   */\n              tag_150\n              jump\t// in\n            tag_334:\n                /* \"#utility.yul\":15307:15336   */\n              tag_335\n                /* \"#utility.yul\":15325:15335   */\n              dup5\n                /* \"#utility.yul\":15307:15336   */\n              tag_151\n              jump\t// in\n            tag_335:\n                /* \"#utility.yul\":15297:15305   */\n              dup2\n                /* \"#utility.yul\":15293:15337   */\n              add\n                /* \"#utility.yul\":15490:15492   */\n              0x20\n                /* \"#utility.yul\":15478:15488   */\n              dup6\n                /* \"#utility.yul\":15475:15493   */\n              lt\n                /* \"#utility.yul\":15472:15521   */\n              iszero\n              tag_336\n              jumpi\n                /* \"#utility.yul\":15511:15519   */\n              dup2\n                /* \"#utility.yul\":15496:15519   */\n              swap1\n              pop\n                /* \"#utility.yul\":15472:15521   */\n            tag_336:\n                /* \"#utility.yul\":15534:15614   */\n              tag_337\n                /* \"#utility.yul\":15590:15612   */\n              tag_338\n                /* \"#utility.yul\":15608:15611   */\n              dup6\n                /* \"#utility.yul\":15590:15612   */\n              tag_151\n              jump\t// in\n            tag_338:\n                /* \"#utility.yul\":15580:15588   */\n              dup4\n                /* \"#utility.yul\":15576:15613   */\n              add\n                /* \"#utility.yul\":15563:15574   */\n              dup3\n                /* \"#utility.yul\":15534:15614   */\n              tag_160\n              jump\t// in\n            tag_337:\n                /* \"#utility.yul\":15193:15624   */\n              pop\n              pop\n                /* \"#utility.yul\":15178:15624   */\n            tag_333:\n                /* \"#utility.yul\":15088:15631   */\n              pop\n              pop\n              pop\n              jump\t// out\n                /* \"#utility.yul\":15637:15754   */\n            tag_162:\n                /* \"#utility.yul\":15691:15699   */\n              0x00\n                /* \"#utility.yul\":15741:15746   */\n              dup3\n                /* \"#utility.yul\":15735:15739   */\n              dup3\n                /* \"#utility.yul\":15731:15747   */\n              shr\n                /* \"#utility.yul\":15710:15747   */\n              swap1\n              pop\n                /* \"#utility.yul\":15637:15754   */\n              swap3\n              swap2\n              pop\n              pop\n              jump\t// out\n                /* \"#utility.yul\":15760:15929   */\n            tag_163:\n                /* \"#utility.yul\":15804:15810   */\n              0x00\n                /* \"#utility.yul\":15837:15888   */\n              tag_341\n                /* \"#utility.yul\":15885:15886   */\n              0x00\n                /* \"#utility.yul\":15881:15887   */\n              not\n                /* \"#utility.yul\":15873:15878   */\n              dup5\n                /* \"#utility.yul\":15870:15871   */\n              0x08\n                /* \"#utility.yul\":15866:15879   */\n              mul\n                /* \"#utility.yul\":15837:15888   */\n              tag_162\n              jump\t// in\n            tag_341:\n                /* \"#utility.yul\":15833:15889   */\n              not\n                /* \"#utility.yul\":15918:15922   */\n              dup1\n                /* \"#utility.yul\":15912:15916   */\n              dup4\n                /* \"#utility.yul\":15908:15923   */\n              and\n                /* \"#utility.yul\":15898:15923   */\n              swap2\n              pop\n                /* \"#utility.yul\":15811:15929   */\n              pop\n                /* \"#utility.yul\":15760:15929   */\n              swap3\n              swap2\n              pop\n              pop\n              jump\t// out\n                /* \"#utility.yul\":15934:16229   */\n            tag_164:\n                /* \"#utility.yul\":16010:16014   */\n              0x00\n                /* \"#utility.yul\":16156:16185   */\n              tag_343\n                /* \"#utility.yul\":16181:16184   */\n              dup4\n                /* \"#utility.yul\":16175:16179   */\n              dup4\n                /* \"#utility.yul\":16156:16185   */\n              tag_163\n              jump\t// in\n            tag_343:\n                /* \"#utility.yul\":16148:16185   */\n              swap2\n              pop\n                /* \"#utility.yul\":16218:16221   */\n              dup3\n                /* \"#utility.yul\":16215:16216   */\n              0x02\n                /* \"#utility.yul\":16211:16222   */\n              mul\n                /* \"#utility.yul\":16205:16209   */\n              dup3\n                /* \"#utility.yul\":16202:16223   */\n              or\n                /* \"#utility.yul\":16194:16223   */\n              swap1\n              pop\n                /* \"#utility.yul\":15934:16229   */\n              swap3\n              swap2\n              pop\n              pop\n              jump\t// out\n                /* \"#utility.yul\":16234:17629   */\n            tag_95:\n                /* \"#utility.yul\":16351:16388   */\n              tag_345\n                /* \"#utility.yul\":16384:16387   */\n              dup3\n                /* \"#utility.yul\":16351:16388   */\n              tag_123\n              jump\t// in\n            tag_345:\n                /* \"#utility.yul\":16453:16471   */\n              0xffffffffffffffff\n                /* \"#utility.yul\":16445:16451   */\n              dup2\n                /* \"#utility.yul\":16442:16472   */\n              gt\n                /* \"#utility.yul\":16439:16495   */\n              iszero\n              tag_346\n              jumpi\n                /* \"#utility.yul\":16475:16493   */\n              tag_347\n              tag_132\n              jump\t// in\n            tag_347:\n                /* \"#utility.yul\":16439:16495   */\n            tag_346:\n                /* \"#utility.yul\":16519:16557   */\n              tag_348\n                /* \"#utility.yul\":16551:16555   */\n              dup3\n                /* \"#utility.yul\":16545:16556   */\n              sload\n                /* \"#utility.yul\":16519:16557   */\n              tag_83\n              jump\t// in\n            tag_348:\n                /* \"#utility.yul\":16604:16671   */\n              tag_349\n                /* \"#utility.yul\":16664:16670   */\n              dup3\n                /* \"#utility.yul\":16656:16662   */\n              dup3\n                /* \"#utility.yul\":16650:16654   */\n              dup6\n                /* \"#utility.yul\":16604:16671   */\n              tag_161\n              jump\t// in\n            tag_349:\n                /* \"#utility.yul\":16698:16699   */\n              0x00\n                /* \"#utility.yul\":16722:16726   */\n              0x20\n                /* \"#utility.yul\":16709:16726   */\n              swap1\n              pop\n                /* \"#utility.yul\":16754:16756   */\n              0x1f\n                /* \"#utility.yul\":16746:16752   */\n              dup4\n                /* \"#utility.yul\":16743:16757   */\n              gt\n                /* \"#utility.yul\":16771:16772   */\n              0x01\n                /* \"#utility.yul\":16766:17384   */\n              dup2\n              eq\n              tag_351\n              jumpi\n                /* \"#utility.yul\":17428:17429   */\n              0x00\n                /* \"#utility.yul\":17445:17451   */\n              dup5\n                /* \"#utility.yul\":17442:17519   */\n              iszero\n              tag_352\n              jumpi\n                /* \"#utility.yul\":17494:17503   */\n              dup3\n                /* \"#utility.yul\":17489:17492   */\n              dup8\n                /* \"#utility.yul\":17485:17504   */\n              add\n                /* \"#utility.yul\":17479:17505   */\n              mload\n                /* \"#utility.yul\":17470:17505   */\n              swap1\n              pop\n                /* \"#utility.yul\":17442:17519   */\n            tag_352:\n                /* \"#utility.yul\":17545:17612   */\n              tag_353\n                /* \"#utility.yul\":17605:17611   */\n              dup6\n                /* \"#utility.yul\":17598:17603   */\n              dup3\n                /* \"#utility.yul\":17545:17612   */\n              tag_164\n              jump\t// in\n            tag_353:\n                /* \"#utility.yul\":17539:17543   */\n              dup7\n                /* \"#utility.yul\":17532:17613   */\n              sstore\n                /* \"#utility.yul\":17401:17623   */\n              pop\n                /* \"#utility.yul\":16736:17623   */\n              jump(tag_350)\n                /* \"#utility.yul\":16766:17384   */\n            tag_351:\n                /* \"#utility.yul\":16818:16822   */\n              0x1f\n                /* \"#utility.yul\":16814:16823   */\n              not\n                /* \"#utility.yul\":16806:16812   */\n              dup5\n                /* \"#utility.yul\":16802:16824   */\n              and\n                /* \"#utility.yul\":16852:16889   */\n              tag_354\n                /* \"#utility.yul\":16884:16888   */\n              dup7\n                /* \"#utility.yul\":16852:16889   */\n              tag_150\n              jump\t// in\n            tag_354:\n                /* \"#utility.yul\":16911:16912   */\n              0x00\n                /* \"#utility.yul\":16925:17133   */\n            tag_355:\n                /* \"#utility.yul\":16939:16946   */\n              dup3\n                /* \"#utility.yul\":16936:16937   */\n              dup2\n                /* \"#utility.yul\":16933:16947   */\n              lt\n                /* \"#utility.yul\":16925:17133   */\n              iszero\n              tag_357\n              jumpi\n                /* \"#utility.yul\":17018:17027   */\n              dup5\n                /* \"#utility.yul\":17013:17016   */\n              dup10\n                /* \"#utility.yul\":17009:17028   */\n              add\n                /* \"#utility.yul\":17003:17029   */\n              mload\n                /* \"#utility.yul\":16995:17001   */\n              dup3\n                /* \"#utility.yul\":16988:17030   */\n              sstore\n                /* \"#utility.yul\":17069:17070   */\n              0x01\n                /* \"#utility.yul\":17061:17067   */\n              dup3\n                /* \"#utility.yul\":17057:17071   */\n              add\n                /* \"#utility.yul\":17047:17071   */\n              swap2\n              pop\n                /* \"#utility.yul\":17116:17118   */\n              0x20\n                /* \"#utility.yul\":17105:17114   */\n              dup6\n                /* \"#utility.yul\":17101:17119   */\n              add\n                /* \"#utility.yul\":17088:17119   */\n              swap5\n              pop\n                /* \"#utility.yul\":16962:16966   */\n              0x20\n                /* \"#utility.yul\":16959:16960   */\n              dup2\n                /* \"#utility.yul\":16955:16967   */\n              add\n                /* \"#utility.yul\":16950:16967   */\n              swap1\n              pop\n                /* \"#utility.yul\":16925:17133   */\n              jump(tag_355)\n            tag_357:\n                /* \"#utility.yul\":17161:17167   */\n              dup7\n                /* \"#utility.yul\":17152:17159   */\n              dup4\n                /* \"#utility.yul\":17149:17168   */\n              lt\n                /* \"#utility.yul\":17146:17325   */\n              iszero\n              tag_358\n              jumpi\n                /* \"#utility.yul\":17219:17228   */\n              dup5\n                /* \"#utility.yul\":17214:17217   */\n              dup10\n                /* \"#utility.yul\":17210:17229   */\n              add\n                /* \"#utility.yul\":17204:17230   */\n              mload\n                /* \"#utility.yul\":17262:17310   */\n              tag_359\n                /* \"#utility.yul\":17304:17308   */\n              0x1f\n                /* \"#utility.yul\":17296:17302   */\n              dup10\n                /* \"#utility.yul\":17292:17309   */\n              and\n                /* \"#utility.yul\":17281:17290   */\n              dup3\n                /* \"#utility.yul\":17262:17310   */\n              tag_163\n              jump\t// in\n            tag_359:\n                /* \"#utility.yul\":17254:17260   */\n              dup4\n                /* \"#utility.yul\":17247:17311   */\n              sstore\n                /* \"#utility.yul\":17169:17325   */\n              pop\n                /* \"#utility.yul\":17146:17325   */\n            tag_358:\n                /* \"#utility.yul\":17371:17372   */\n              0x01\n                /* \"#utility.yul\":17367:17368   */\n              0x02\n                /* \"#utility.yul\":17359:17365   */\n              dup9\n                /* \"#utility.yul\":17355:17369   */\n              mul\n                /* \"#utility.yul\":17351:17373   */\n              add\n                /* \"#utility.yul\":17345:17349   */\n              dup9\n                /* \"#utility.yul\":17338:17374   */\n              sstore\n                /* \"#utility.yul\":16773:17384   */\n              pop\n              pop\n              pop\n                /* \"#utility.yul\":16736:17623   */\n            tag_350:\n              pop\n                /* \"#utility.yul\":16326:17629   */\n              pop\n              pop\n              pop\n                /* \"#utility.yul\":16234:17629   */\n              pop\n              pop\n              jump\t// out\n                /* \"#utility.yul\":17635:17857   */\n            tag_165:\n                /* \"#utility.yul\":17775:17809   */\n              0x41206d696e756d756d20636f6e747269627574696f6e20697320726571756972\n                /* \"#utility.yul\":17771:17772   */\n              0x00\n                /* \"#utility.yul\":17763:17769   */\n              dup3\n                /* \"#utility.yul\":17759:17773   */\n              add\n                /* \"#utility.yul\":17752:17810   */\n              mstore\n                /* \"#utility.yul\":17844:17849   */\n              0x65642e0000000000000000000000000000000000000000000000000000000000\n                /* \"#utility.yul\":17839:17841   */\n              0x20\n                /* \"#utility.yul\":17831:17837   */\n              dup3\n                /* \"#utility.yul\":17827:17842   */\n              add\n                /* \"#utility.yul\":17820:17850   */\n              mstore\n                /* \"#utility.yul\":17635:17857   */\n              pop\n              jump\t// out\n                /* \"#utility.yul\":17863:18229   */\n            tag_166:\n                /* \"#utility.yul\":18005:18008   */\n              0x00\n                /* \"#utility.yul\":18026:18093   */\n              tag_362\n                /* \"#utility.yul\":18090:18092   */\n              0x23\n                /* \"#utility.yul\":18085:18088   */\n              dup4\n                /* \"#utility.yul\":18026:18093   */\n              tag_124\n              jump\t// in\n            tag_362:\n                /* \"#utility.yul\":18019:18093   */\n              swap2\n              pop\n                /* \"#utility.yul\":18102:18195   */\n              tag_363\n                /* \"#utility.yul\":18191:18194   */\n              dup3\n                /* \"#utility.yul\":18102:18195   */\n              tag_165\n              jump\t// in\n            tag_363:\n                /* \"#utility.yul\":18220:18222   */\n              0x40\n                /* \"#utility.yul\":18215:18218   */\n              dup3\n                /* \"#utility.yul\":18211:18223   */\n              add\n                /* \"#utility.yul\":18204:18223   */\n              swap1\n              pop\n                /* \"#utility.yul\":17863:18229   */\n              swap2\n              swap1\n              pop\n              jump\t// out\n                /* \"#utility.yul\":18235:18654   */\n            tag_99:\n                /* \"#utility.yul\":18401:18405   */\n              0x00\n                /* \"#utility.yul\":18439:18441   */\n              0x20\n                /* \"#utility.yul\":18428:18437   */\n              dup3\n                /* \"#utility.yul\":18424:18442   */\n              add\n                /* \"#utility.yul\":18416:18442   */\n              swap1\n              pop\n                /* \"#utility.yul\":18488:18497   */\n              dup2\n                /* \"#utility.yul\":18482:18486   */\n              dup2\n                /* \"#utility.yul\":18478:18498   */\n              sub\n                /* \"#utility.yul\":18474:18475   */\n              0x00\n                /* \"#utility.yul\":18463:18472   */\n              dup4\n                /* \"#utility.yul\":18459:18476   */\n              add\n                /* \"#utility.yul\":18452:18499   */\n              mstore\n                /* \"#utility.yul\":18516:18647   */\n              tag_365\n                /* \"#utility.yul\":18642:18646   */\n              dup2\n                /* \"#utility.yul\":18516:18647   */\n              tag_166\n              jump\t// in\n            tag_365:\n                /* \"#utility.yul\":18508:18647   */\n              swap1\n              pop\n                /* \"#utility.yul\":18235:18654   */\n              swap2\n              swap1\n              pop\n              jump\t// out\n                /* \"#utility.yul\":18660:18903   */\n            tag_167:\n                /* \"#utility.yul\":18800:18834   */\n              0x4f6e6c7920636f6e7472696275746f72732063616e20617070726f7665206120\n                /* \"#utility.yul\":18796:18797   */\n              0x00\n                /* \"#utility.yul\":18788:18794   */\n              dup3\n                /* \"#utility.yul\":18784:18798   */\n              add\n                /* \"#utility.yul\":18777:18835   */\n              mstore\n                /* \"#utility.yul\":18869:18895   */\n              0x7370656369666963207061796d656e7420726571756573740000000000000000\n                /* \"#utility.yul\":18864:18866   */\n              0x20\n                /* \"#utility.yul\":18856:18862   */\n              dup3\n                /* \"#utility.yul\":18852:18867   */\n              add\n                /* \"#utility.yul\":18845:18896   */\n              mstore\n                /* \"#utility.yul\":18660:18903   */\n              pop\n              jump\t// out\n                /* \"#utility.yul\":18909:19275   */\n            tag_168:\n                /* \"#utility.yul\":19051:19054   */\n              0x00\n                /* \"#utility.yul\":19072:19139   */\n              tag_368\n                /* \"#utility.yul\":19136:19138   */\n              0x38\n                /* \"#utility.yul\":19131:19134   */\n              dup4\n                /* \"#utility.yul\":19072:19139   */\n              tag_124\n              jump\t// in\n            tag_368:\n                /* \"#utility.yul\":19065:19139   */\n              swap2\n              pop\n                /* \"#utility.yul\":19148:19241   */\n              tag_369\n                /* \"#utility.yul\":19237:19240   */\n              dup3\n                /* \"#utility.yul\":19148:19241   */\n              tag_167\n              jump\t// in\n            tag_369:\n                /* \"#utility.yul\":19266:19268   */\n              0x40\n                /* \"#utility.yul\":19261:19264   */\n              dup3\n                /* \"#utility.yul\":19257:19269   */\n              add\n                /* \"#utility.yul\":19250:19269   */\n              swap1\n              pop\n                /* \"#utility.yul\":18909:19275   */\n              swap2\n              swap1\n              pop\n              jump\t// out\n                /* \"#utility.yul\":19281:19700   */\n            tag_104:\n                /* \"#utility.yul\":19447:19451   */\n              0x00\n                /* \"#utility.yul\":19485:19487   */\n              0x20\n                /* \"#utility.yul\":19474:19483   */\n              dup3\n                /* \"#utility.yul\":19470:19488   */\n              add\n                /* \"#utility.yul\":19462:19488   */\n              swap1\n              pop\n                /* \"#utility.yul\":19534:19543   */\n              dup2\n                /* \"#utility.yul\":19528:19532   */\n              dup2\n                /* \"#utility.yul\":19524:19544   */\n              sub\n                /* \"#utility.yul\":19520:19521   */\n              0x00\n                /* \"#utility.yul\":19509:19518   */\n              dup4\n                /* \"#utility.yul\":19505:19522   */\n              add\n                /* \"#utility.yul\":19498:19545   */\n              mstore\n                /* \"#utility.yul\":19562:19693   */\n              tag_371\n                /* \"#utility.yul\":19688:19692   */\n              dup2\n                /* \"#utility.yul\":19562:19693   */\n              tag_168\n              jump\t// in\n            tag_371:\n                /* \"#utility.yul\":19554:19693   */\n              swap1\n              pop\n                /* \"#utility.yul\":19281:19700   */\n              swap2\n              swap1\n              pop\n              jump\t// out\n                /* \"#utility.yul\":19706:19939   */\n            tag_169:\n                /* \"#utility.yul\":19846:19880   */\n              0x596f75206861766520616c726561647920766f74656420746f20617070726f76\n                /* \"#utility.yul\":19842:19843   */\n              0x00\n                /* \"#utility.yul\":19834:19840   */\n              dup3\n                /* \"#utility.yul\":19830:19844   */\n              add\n                /* \"#utility.yul\":19823:19881   */\n              mstore\n                /* \"#utility.yul\":19915:19931   */\n              0x6520746869732072657175657374000000000000000000000000000000000000\n                /* \"#utility.yul\":19910:19912   */\n              0x20\n                /* \"#utility.yul\":19902:19908   */\n              dup3\n                /* \"#utility.yul\":19898:19913   */\n              add\n                /* \"#utility.yul\":19891:19932   */\n              mstore\n                /* \"#utility.yul\":19706:19939   */\n              pop\n              jump\t// out\n                /* \"#utility.yul\":19945:20311   */\n            tag_170:\n                /* \"#utility.yul\":20087:20090   */\n              0x00\n                /* \"#utility.yul\":20108:20175   */\n              tag_374\n                /* \"#utility.yul\":20172:20174   */\n              0x2e\n                /* \"#utility.yul\":20167:20170   */\n              dup4\n                /* \"#utility.yul\":20108:20175   */\n              tag_124\n              jump\t// in\n            tag_374:\n                /* \"#utility.yul\":20101:20175   */\n              swap2\n              pop\n                /* \"#utility.yul\":20184:20277   */\n              tag_375\n                /* \"#utility.yul\":20273:20276   */\n              dup3\n                /* \"#utility.yul\":20184:20277   */\n              tag_169\n              jump\t// in\n            tag_375:\n                /* \"#utility.yul\":20302:20304   */\n              0x40\n                /* \"#utility.yul\":20297:20300   */\n              dup3\n                /* \"#utility.yul\":20293:20305   */\n              add\n                /* \"#utility.yul\":20286:20305   */\n              swap1\n              pop\n                /* \"#utility.yul\":19945:20311   */\n              swap2\n              swap1\n              pop\n              jump\t// out\n                /* \"#utility.yul\":20317:20736   */\n            tag_107:\n                /* \"#utility.yul\":20483:20487   */\n              0x00\n                /* \"#utility.yul\":20521:20523   */\n              0x20\n                /* \"#utility.yul\":20510:20519   */\n              dup3\n                /* \"#utility.yul\":20506:20524   */\n              add\n                /* \"#utility.yul\":20498:20524   */\n              swap1\n              pop\n                /* \"#utility.yul\":20570:20579   */\n              dup2\n                /* \"#utility.yul\":20564:20568   */\n              dup2\n                /* \"#utility.yul\":20560:20580   */\n              sub\n                /* \"#utility.yul\":20556:20557   */\n              0x00\n                /* \"#utility.yul\":20545:20554   */\n              dup4\n                /* \"#utility.yul\":20541:20558   */\n              add\n                /* \"#utility.yul\":20534:20581   */\n              mstore\n                /* \"#utility.yul\":20598:20729   */\n              tag_377\n                /* \"#utility.yul\":20724:20728   */\n              dup2\n                /* \"#utility.yul\":20598:20729   */\n              tag_170\n              jump\t// in\n            tag_377:\n                /* \"#utility.yul\":20590:20729   */\n              swap1\n              pop\n                /* \"#utility.yul\":20317:20736   */\n              swap2\n              swap1\n              pop\n              jump\t// out\n\n            auxdata: 0xa2646970667358221220934916665ad7f359f7d1e0a3202287a389ad18a8b2199bc5e792ffe6c78bb29e64736f6c634300081b0033\n        }\n    }\n\n    auxdata: 0xa264697066735822122071335fdd150935b4b5c1f3ecc33d3e1883f8f3fc84f07558843fe18b023a10c464736f6c634300081b0033\n}\n","bytecode":{"linkReferences":{},"object":"6080604052348015600e575f5ffd5b50611aa78061001c5f395ff3fe608060405234801561000f575f5ffd5b506004361061003f575f3560e01c8063339d50a5146100435780635eac000714610073578063a3303a7514610091575b5f5ffd5b61005d6004803603810190610058919061024e565b6100ad565b60405161006a91906102f3565b60405180910390f35b61007b6100e7565b60405161008891906103c3565b60405180910390f35b6100ab60048036038101906100a6919061024e565b610171565b005b5f81815481106100bb575f80fd5b905f5260205f20015f915054906101000a900473ffffffffffffffffffffffffffffffffffffffff1681565b60605f80548060200260200160405190810160405280929190818152602001828054801561016757602002820191905f5260205f20905b815f9054906101000a900473ffffffffffffffffffffffffffffffffffffffff1673ffffffffffffffffffffffffffffffffffffffff168152602001906001019080831161011e575b5050505050905090565b5f81336040516101809061020a565b61018b929190610412565b604051809103905ff0801580156101a4573d5f5f3e3d5ffd5b5090505f81908060018154018082558091505060019003905f5260205f20015f9091909190916101000a81548173ffffffffffffffffffffffffffffffffffffffff021916908373ffffffffffffffffffffffffffffffffffffffff1602179055505050565b6116388061043a83390190565b5f5ffd5b5f819050919050565b61022d8161021b565b8114610237575f5ffd5b50565b5f8135905061024881610224565b92915050565b5f6020828403121561026357610262610217565b5b5f6102708482850161023a565b91505092915050565b5f73ffffffffffffffffffffffffffffffffffffffff82169050919050565b5f819050919050565b5f6102bb6102b66102b184610279565b610298565b610279565b9050919050565b5f6102cc826102a1565b9050919050565b5f6102dd826102c2565b9050919050565b6102ed816102d3565b82525050565b5f6020820190506103065f8301846102e4565b92915050565b5f81519050919050565b5f82825260208201905092915050565b5f819050602082019050919050565b61033e816102d3565b82525050565b5f61034f8383610335565b60208301905092915050565b5f602082019050919050565b5f6103718261030c565b61037b8185610316565b935061038683610326565b805f5b838110156103b657815161039d8882610344565b97506103a88361035b565b925050600181019050610389565b5085935050505092915050565b5f6020820190508181035f8301526103db8184610367565b905092915050565b6103ec8161021b565b82525050565b5f6103fc82610279565b9050919050565b61040c816103f2565b82525050565b5f6040820190506104255f8301856103e3565b6104326020830184610403565b939250505056fe608060405234801561000f575f5ffd5b5060405161163838038061163883398181016040528101906100319190610110565b8060015f6101000a81548173ffffffffffffffffffffffffffffffffffffffff021916908373ffffffffffffffffffffffffffffffffffffffff16021790555081600281905550505061014e565b5f5ffd5b5f819050919050565b61009581610083565b811461009f575f5ffd5b50565b5f815190506100b08161008c565b92915050565b5f73ffffffffffffffffffffffffffffffffffffffff82169050919050565b5f6100df826100b6565b9050919050565b6100ef816100d5565b81146100f9575f5ffd5b50565b5f8151905061010a816100e6565b92915050565b5f5f604083850312156101265761012561007f565b5b5f610133858286016100a2565b9250506020610144858286016100fc565b9150509250929050565b6114dd8061015b5f395ff3fe60806040526004361061009b575f3560e01c806381d12c581161006357806381d12c581461017957806382fde093146101b95780638a9cfd55146101e3578063937e09b11461020b578063d7bb99ba14610235578063d7d1bbdb1461023f5761009b565b8063034410061461009f5780630a144391146100bb5780633410452a146100f75780634051ddac14610121578063481c6a751461014f575b5f5ffd5b6100b960048036038101906100b49190610988565b610267565b005b3480156100c6575f5ffd5b506100e160048036038101906100dc9190610a0d565b61043b565b6040516100ee9190610a52565b60405180910390f35b348015610102575f5ffd5b5061010b610458565b6040516101189190610a7a565b60405180910390f35b34801561012c575f5ffd5b50610135610461565b604051610146959493929190610aa2565b60405180910390f35b34801561015a575f5ffd5b506101636104a3565b6040516101709190610af3565b60405180910390f35b348015610184575f5ffd5b5061019f600480360381019061019a9190610988565b6104c8565b6040516101b0959493929190610b9c565b60405180910390f35b3480156101c4575f5ffd5b506101cd6105ab565b6040516101da9190610a7a565b60405180910390f35b3480156101ee575f5ffd5b5061020960048036038101906102049190610d4a565b6105b1565b005b348015610216575f5ffd5b5061021f6106ef565b60405161022c9190610a7a565b60405180910390f35b61023d6106f5565b005b34801561024a575f5ffd5b5061026560048036038101906102609190610988565b6107a8565b005b60015f9054906101000a900473ffffffffffffffffffffffffffffffffffffffff1673ffffffffffffffffffffffffffffffffffffffff163373ffffffffffffffffffffffffffffffffffffffff16146102f6576040517f08c379a00000000000000000000000000000000000000000000000000000000081526004016102ed90610e26565b60405180910390fd5b5f5f5f8381526020019081526020015f20905060026005546103189190610e9e565b81600301541161035d576040517f08c379a000000000000000000000000000000000000000000000000000000000815260040161035490610f3e565b60405180910390fd5b8060020160149054906101000a900460ff16156103af576040517f08c379a00000000000000000000000000000000000000000000000000000000081526004016103a690610fcc565b60405180910390fd5b806002015f9054906101000a900473ffffffffffffffffffffffffffffffffffffffff1673ffffffffffffffffffffffffffffffffffffffff166108fc826001015490811502906040515f60405180830381858888f19350505050158015610419573d5f5f3e3d5ffd5b5060018160020160146101000a81548160ff0219169083151502179055505050565b6003602052805f5260405f205f915054906101000a900460ff1681565b5f600454905090565b5f5f5f5f5f6002544760045460055460015f9054906101000a900473ffffffffffffffffffffffffffffffffffffffff16945094509450945094509091929394565b60015f9054906101000a900473ffffffffffffffffffffffffffffffffffffffff1681565b5f602052805f5260405f205f91509050805f0180546104e690611017565b80601f016020809104026020016040519081016040528092919081815260200182805461051290611017565b801561055d5780601f106105345761010080835404028352916020019161055d565b820191905f5260205f20905b81548152906001019060200180831161054057829003601f168201915b505050505090806001015490806002015f9054906101000a900473ffffffffffffffffffffffffffffffffffffffff16908060020160149054906101000a900460ff16908060030154905085565b60055481565b60015f9054906101000a900473ffffffffffffffffffffffffffffffffffffffff1673ffffffffffffffffffffffffffffffffffffffff163373ffffffffffffffffffffffffffffffffffffffff1614610640576040517f08c379a000000000000000000000000000000000000000000000000000000000815260040161063790610e26565b60405180910390fd5b5f5f5f60045f81548092919061065590611047565b9190505581526020019081526020015f20905083815f019081610678919061122e565b5082816001018190555081816002015f6101000a81548173ffffffffffffffffffffffffffffffffffffffff021916908373ffffffffffffffffffffffffffffffffffffffff1602179055505f8160020160146101000a81548160ff0219169083151502179055505f816003018190555050505050565b60025481565b60025434101561073a576040517f08c379a00000000000000000000000000000000000000000000000000000000081526004016107319061136d565b60405180910390fd5b600160035f3373ffffffffffffffffffffffffffffffffffffffff1673ffffffffffffffffffffffffffffffffffffffff1681526020019081526020015f205f6101000a81548160ff02191690831515021790555060055f8154809291906107a190611047565b9190505550565b5f5f5f8381526020019081526020015f20905060035f3373ffffffffffffffffffffffffffffffffffffffff1673ffffffffffffffffffffffffffffffffffffffff1681526020019081526020015f205f9054906101000a900460ff16610844576040517f08c379a000000000000000000000000000000000000000000000000000000000815260040161083b906113fb565b60405180910390fd5b806004015f3373ffffffffffffffffffffffffffffffffffffffff1673ffffffffffffffffffffffffffffffffffffffff1681526020019081526020015f205f9054906101000a900460ff16156108d0576040517f08c379a00000000000000000000000000000000000000000000000000000000081526004016108c790611489565b60405180910390fd5b6001816004015f3373ffffffffffffffffffffffffffffffffffffffff1673ffffffffffffffffffffffffffffffffffffffff1681526020019081526020015f205f6101000a81548160ff021916908315150217905550806003015f81548092919061093b90611047565b91905055505050565b5f604051905090565b5f5ffd5b5f5ffd5b5f819050919050565b61096781610955565b8114610971575f5ffd5b50565b5f813590506109828161095e565b92915050565b5f6020828403121561099d5761099c61094d565b5b5f6109aa84828501610974565b91505092915050565b5f73ffffffffffffffffffffffffffffffffffffffff82169050919050565b5f6109dc826109b3565b9050919050565b6109ec816109d2565b81146109f6575f5ffd5b50565b5f81359050610a07816109e3565b92915050565b5f60208284031215610a2257610a2161094d565b5b5f610a2f848285016109f9565b91505092915050565b5f8115159050919050565b610a4c81610a38565b82525050565b5f602082019050610a655f830184610a43565b92915050565b610a7481610955565b82525050565b5f602082019050610a8d5f830184610a6b565b92915050565b610a9c816109d2565b82525050565b5f60a082019050610ab55f830188610a6b565b610ac26020830187610a6b565b610acf6040830186610a6b565b610adc6060830185610a6b565b610ae96080830184610a93565b9695505050505050565b5f602082019050610b065f830184610a93565b92915050565b5f81519050919050565b5f82825260208201905092915050565b8281835e5f83830152505050565b5f601f19601f8301169050919050565b5f610b4e82610b0c565b610b588185610b16565b9350610b68818560208601610b26565b610b7181610b34565b840191505092915050565b5f610b86826109b3565b9050919050565b610b9681610b7c565b82525050565b5f60a0820190508181035f830152610bb48188610b44565b9050610bc36020830187610a6b565b610bd06040830186610b8d565b610bdd6060830185610a43565b610bea6080830184610a6b565b9695505050505050565b5f5ffd5b5f5ffd5b7f4e487b71000000000000000000000000000000000000000000000000000000005f52604160045260245ffd5b610c3282610b34565b810181811067ffffffffffffffff82111715610c5157610c50610bfc565b5b80604052505050565b5f610c63610944565b9050610c6f8282610c29565b919050565b5f67ffffffffffffffff821115610c8e57610c8d610bfc565b5b610c9782610b34565b9050602081019050919050565b828183375f83830152505050565b5f610cc4610cbf84610c74565b610c5a565b905082815260208101848484011115610ce057610cdf610bf8565b5b610ceb848285610ca4565b509392505050565b5f82601f830112610d0757610d06610bf4565b5b8135610d17848260208601610cb2565b91505092915050565b610d2981610b7c565b8114610d33575f5ffd5b50565b5f81359050610d4481610d20565b92915050565b5f5f5f60608486031215610d6157610d6061094d565b5b5f84013567ffffffffffffffff811115610d7e57610d7d610951565b5b610d8a86828701610cf3565b9350506020610d9b86828701610974565b9250506040610dac86828701610d36565b9150509250925092565b7f4f6e6c79207468652063616d706169676e206d616e616765722063616e2063615f8201527f6c6c20746869732066756e6374696f6e2e000000000000000000000000000000602082015250565b5f610e10603183610b16565b9150610e1b82610db6565b604082019050919050565b5f6020820190508181035f830152610e3d81610e04565b9050919050565b7f4e487b71000000000000000000000000000000000000000000000000000000005f52601260045260245ffd5b7f4e487b71000000000000000000000000000000000000000000000000000000005f52601160045260245ffd5b5f610ea882610955565b9150610eb383610955565b925082610ec357610ec2610e44565b5b828204905092915050565b7f546869732072657175657374206e65656473206d6f726520617070726f76616c5f8201527f73206265666f72652069742063616e2062652066696e616c697a656400000000602082015250565b5f610f28603c83610b16565b9150610f3382610ece565b604082019050919050565b5f6020820190508181035f830152610f5581610f1c565b9050919050565b7f5468697320726571756573742068617320616c7265616479206265656e2066695f8201527f6e616c697a656400000000000000000000000000000000000000000000000000602082015250565b5f610fb6602783610b16565b9150610fc182610f5c565b604082019050919050565b5f6020820190508181035f830152610fe381610faa565b9050919050565b7f4e487b71000000000000000000000000000000000000000000000000000000005f52602260045260245ffd5b5f600282049050600182168061102e57607f821691505b60208210810361104157611040610fea565b5b50919050565b5f61105182610955565b91507fffffffffffffffffffffffffffffffffffffffffffffffffffffffffffffffff820361108357611082610e71565b5b600182019050919050565b5f819050815f5260205f209050919050565b5f6020601f8301049050919050565b5f82821b905092915050565b5f600883026110ea7fffffffffffffffffffffffffffffffffffffffffffffffffffffffffffffffff826110af565b6110f486836110af565b95508019841693508086168417925050509392505050565b5f819050919050565b5f61112f61112a61112584610955565b61110c565b610955565b9050919050565b5f819050919050565b61114883611115565b61115c61115482611136565b8484546110bb565b825550505050565b5f5f905090565b611173611164565b61117e81848461113f565b505050565b5b818110156111a1576111965f8261116b565b600181019050611184565b5050565b601f8211156111e6576111b78161108e565b6111c0846110a0565b810160208510156111cf578190505b6111e36111db856110a0565b830182611183565b50505b505050565b5f82821c905092915050565b5f6112065f19846008026111eb565b1980831691505092915050565b5f61121e83836111f7565b9150826002028217905092915050565b61123782610b0c565b67ffffffffffffffff8111156112505761124f610bfc565b5b61125a8254611017565b6112658282856111a5565b5f60209050601f831160018114611296575f8415611284578287015190505b61128e8582611213565b8655506112f5565b601f1984166112a48661108e565b5f5b828110156112cb578489015182556001820191506020850194506020810190506112a6565b868310156112e857848901516112e4601f8916826111f7565b8355505b6001600288020188555050505b505050505050565b7f41206d696e756d756d20636f6e747269627574696f6e206973207265717569725f8201527f65642e0000000000000000000000000000000000000000000000000000000000602082015250565b5f611357602383610b16565b9150611362826112fd565b604082019050919050565b5f6020820190508181035f8301526113848161134b565b9050919050565b7f4f6e6c7920636f6e7472696275746f72732063616e20617070726f76652061205f8201527f7370656369666963207061796d656e7420726571756573740000000000000000602082015250565b5f6113e5603883610b16565b91506113f08261138b565b604082019050919050565b5f6020820190508181035f830152611412816113d9565b9050919050565b7f596f75206861766520616c726561647920766f74656420746f20617070726f765f8201527f6520746869732072657175657374000000000000000000000000000000000000602082015250565b5f611473602e83610b16565b915061147e82611419565b604082019050919050565b5f6020820190508181035f8301526114a081611467565b905091905056fea2646970667358221220934916665ad7f359f7d1e0a3202287a389ad18a8b2199bc5e792ffe6c78bb29e64736f6c634300081b0033a264697066735822122071335fdd150935b4b5c1f3ecc33d3e1883f8f3fc84f07558843fe18b023a10c464736f6c634300081b0033","opcodes":"PUSH1 0x80 PUSH1 0x40 MSTORE CALLVALUE DUP1 ISZERO PUSH1 0xE JUMPI PUSH0 PUSH0 REVERT JUMPDEST POP PUSH2 0x1AA7 DUP1 PUSH2 0x1C PUSH0 CODECOPY PUSH0 RETURN INVALID PUSH1 0x80 PUSH1 0x40 MSTORE CALLVALUE DUP1 ISZERO PUSH2 0xF JUMPI PUSH0 PUSH0 REVERT JUMPDEST POP PUSH1 0x4 CALLDATASIZE LT PUSH2 0x3F JUMPI PUSH0 CALLDATALOAD PUSH1 0xE0 SHR DUP1 PUSH4 0x339D50A5 EQ PUSH2 0x43 JUMPI DUP1 PUSH4 0x5EAC0007 EQ PUSH2 0x73 JUMPI DUP1 PUSH4 0xA3303A75 EQ PUSH2 0x91 JUMPI JUMPDEST PUSH0 PUSH0 REVERT JUMPDEST PUSH2 0x5D PUSH1 0x4 DUP1 CALLDATASIZE SUB DUP2 ADD SWAP1 PUSH2 0x58 SWAP2 SWAP1 PUSH2 0x24E JUMP JUMPDEST PUSH2 0xAD JUMP JUMPDEST PUSH1 0x40 MLOAD PUSH2 0x6A SWAP2 SWAP1 PUSH2 0x2F3 JUMP JUMPDEST PUSH1 0x40 MLOAD DUP1 SWAP2 SUB SWAP1 RETURN JUMPDEST PUSH2 0x7B PUSH2 0xE7 JUMP JUMPDEST PUSH1 0x40 MLOAD PUSH2 0x88 SWAP2 SWAP1 PUSH2 0x3C3 JUMP JUMPDEST PUSH1 0x40 MLOAD DUP1 SWAP2 SUB SWAP1 RETURN JUMPDEST PUSH2 0xAB PUSH1 0x4 DUP1 CALLDATASIZE SUB DUP2 ADD SWAP1 PUSH2 0xA6 SWAP2 SWAP1 PUSH2 0x24E JUMP JUMPDEST PUSH2 0x171 JUMP JUMPDEST STOP JUMPDEST PUSH0 DUP2 DUP2 SLOAD DUP2 LT PUSH2 0xBB JUMPI PUSH0 DUP1 REVERT JUMPDEST SWAP1 PUSH0 MSTORE PUSH1 0x20 PUSH0 KECCAK256 ADD PUSH0 SWAP2 POP SLOAD SWAP1 PUSH2 0x100 EXP SWAP1 DIV PUSH20 0xFFFFFFFFFFFFFFFFFFFFFFFFFFFFFFFFFFFFFFFF AND DUP2 JUMP JUMPDEST PUSH1 0x60 PUSH0 DUP1 SLOAD DUP1 PUSH1 0x20 MUL PUSH1 0x20 ADD PUSH1 0x40 MLOAD SWAP1 DUP2 ADD PUSH1 0x40 MSTORE DUP1 SWAP3 SWAP2 SWAP1 DUP2 DUP2 MSTORE PUSH1 0x20 ADD DUP3 DUP1 SLOAD DUP1 ISZERO PUSH2 0x167 JUMPI PUSH1 0x20 MUL DUP3 ADD SWAP2 SWAP1 PUSH0 MSTORE PUSH1 0x20 PUSH0 KECCAK256 SWAP1 JUMPDEST DUP2 PUSH0 SWAP1 SLOAD SWAP1 PUSH2 0x100 EXP SWAP1 DIV PUSH20 0xFFFFFFFFFFFFFFFFFFFFFFFFFFFFFFFFFFFFFFFF AND PUSH20 0xFFFFFFFFFFFFFFFFFFFFFFFFFFFFFFFFFFFFFFFF AND DUP2 MSTORE PUSH1 0x20 ADD SWAP1 PUSH1 0x1 ADD SWAP1 DUP1 DUP4 GT PUSH2 0x11E JUMPI JUMPDEST POP POP POP POP POP SWAP1 POP SWAP1 JUMP JUMPDEST PUSH0 DUP2 CALLER PUSH1 0x40 MLOAD PUSH2 0x180 SWAP1 PUSH2 0x20A JUMP JUMPDEST PUSH2 0x18B SWAP3 SWAP2 SWAP1 PUSH2 0x412 JUMP JUMPDEST PUSH1 0x40 MLOAD DUP1 SWAP2 SUB SWAP1 PUSH0 CREATE DUP1 ISZERO DUP1 ISZERO PUSH2 0x1A4 JUMPI RETURNDATASIZE PUSH0 PUSH0 RETURNDATACOPY RETURNDATASIZE PUSH0 REVERT JUMPDEST POP SWAP1 POP PUSH0 DUP2 SWAP1 DUP1 PUSH1 0x1 DUP2 SLOAD ADD DUP1 DUP3 SSTORE DUP1 SWAP2 POP POP PUSH1 0x1 SWAP1 SUB SWAP1 PUSH0 MSTORE PUSH1 0x20 PUSH0 KECCAK256 ADD PUSH0 SWAP1 SWAP2 SWAP1 SWAP2 SWAP1 SWAP2 PUSH2 0x100 EXP DUP2 SLOAD DUP2 PUSH20 0xFFFFFFFFFFFFFFFFFFFFFFFFFFFFFFFFFFFFFFFF MUL NOT AND SWAP1 DUP4 PUSH20 0xFFFFFFFFFFFFFFFFFFFFFFFFFFFFFFFFFFFFFFFF AND MUL OR SWAP1 SSTORE POP POP POP JUMP JUMPDEST PUSH2 0x1638 DUP1 PUSH2 0x43A DUP4 CODECOPY ADD SWAP1 JUMP JUMPDEST PUSH0 PUSH0 REVERT JUMPDEST PUSH0 DUP2 SWAP1 POP SWAP2 SWAP1 POP JUMP JUMPDEST PUSH2 0x22D DUP2 PUSH2 0x21B JUMP JUMPDEST DUP2 EQ PUSH2 0x237 JUMPI PUSH0 PUSH0 REVERT JUMPDEST POP JUMP JUMPDEST PUSH0 DUP2 CALLDATALOAD SWAP1 POP PUSH2 0x248 DUP2 PUSH2 0x224 JUMP JUMPDEST SWAP3 SWAP2 POP POP JUMP JUMPDEST PUSH0 PUSH1 0x20 DUP3 DUP5 SUB SLT ISZERO PUSH2 0x263 JUMPI PUSH2 0x262 PUSH2 0x217 JUMP JUMPDEST JUMPDEST PUSH0 PUSH2 0x270 DUP5 DUP3 DUP6 ADD PUSH2 0x23A JUMP JUMPDEST SWAP2 POP POP SWAP3 SWAP2 POP POP JUMP JUMPDEST PUSH0 PUSH20 0xFFFFFFFFFFFFFFFFFFFFFFFFFFFFFFFFFFFFFFFF DUP3 AND SWAP1 POP SWAP2 SWAP1 POP JUMP JUMPDEST PUSH0 DUP2 SWAP1 POP SWAP2 SWAP1 POP JUMP JUMPDEST PUSH0 PUSH2 0x2BB PUSH2 0x2B6 PUSH2 0x2B1 DUP5 PUSH2 0x279 JUMP JUMPDEST PUSH2 0x298 JUMP JUMPDEST PUSH2 0x279 JUMP JUMPDEST SWAP1 POP SWAP2 SWAP1 POP JUMP JUMPDEST PUSH0 PUSH2 0x2CC DUP3 PUSH2 0x2A1 JUMP JUMPDEST SWAP1 POP SWAP2 SWAP1 POP JUMP JUMPDEST PUSH0 PUSH2 0x2DD DUP3 PUSH2 0x2C2 JUMP JUMPDEST SWAP1 POP SWAP2 SWAP1 POP JUMP JUMPDEST PUSH2 0x2ED DUP2 PUSH2 0x2D3 JUMP JUMPDEST DUP3 MSTORE POP POP JUMP JUMPDEST PUSH0 PUSH1 0x20 DUP3 ADD SWAP1 POP PUSH2 0x306 PUSH0 DUP4 ADD DUP5 PUSH2 0x2E4 JUMP JUMPDEST SWAP3 SWAP2 POP POP JUMP JUMPDEST PUSH0 DUP2 MLOAD SWAP1 POP SWAP2 SWAP1 POP JUMP JUMPDEST PUSH0 DUP3 DUP3 MSTORE PUSH1 0x20 DUP3 ADD SWAP1 POP SWAP3 SWAP2 POP POP JUMP JUMPDEST PUSH0 DUP2 SWAP1 POP PUSH1 0x20 DUP3 ADD SWAP1 POP SWAP2 SWAP1 POP JUMP JUMPDEST PUSH2 0x33E DUP2 PUSH2 0x2D3 JUMP JUMPDEST DUP3 MSTORE POP POP JUMP JUMPDEST PUSH0 PUSH2 0x34F DUP4 DUP4 PUSH2 0x335 JUMP JUMPDEST PUSH1 0x20 DUP4 ADD SWAP1 POP SWAP3 SWAP2 POP POP JUMP JUMPDEST PUSH0 PUSH1 0x20 DUP3 ADD SWAP1 POP SWAP2 SWAP1 POP JUMP JUMPDEST PUSH0 PUSH2 0x371 DUP3 PUSH2 0x30C JUMP JUMPDEST PUSH2 0x37B DUP2 DUP6 PUSH2 0x316 JUMP JUMPDEST SWAP4 POP PUSH2 0x386 DUP4 PUSH2 0x326 JUMP JUMPDEST DUP1 PUSH0 JUMPDEST DUP4 DUP2 LT ISZERO PUSH2 0x3B6 JUMPI DUP2 MLOAD PUSH2 0x39D DUP9 DUP3 PUSH2 0x344 JUMP JUMPDEST SWAP8 POP PUSH2 0x3A8 DUP4 PUSH2 0x35B JUMP JUMPDEST SWAP3 POP POP PUSH1 0x1 DUP2 ADD SWAP1 POP PUSH2 0x389 JUMP JUMPDEST POP DUP6 SWAP4 POP POP POP POP SWAP3 SWAP2 POP POP JUMP JUMPDEST PUSH0 PUSH1 0x20 DUP3 ADD SWAP1 POP DUP2 DUP2 SUB PUSH0 DUP4 ADD MSTORE PUSH2 0x3DB DUP2 DUP5 PUSH2 0x367 JUMP JUMPDEST SWAP1 POP SWAP3 SWAP2 POP POP JUMP JUMPDEST PUSH2 0x3EC DUP2 PUSH2 0x21B JUMP JUMPDEST DUP3 MSTORE POP POP JUMP JUMPDEST PUSH0 PUSH2 0x3FC DUP3 PUSH2 0x279 JUMP JUMPDEST SWAP1 POP SWAP2 SWAP1 POP JUMP JUMPDEST PUSH2 0x40C DUP2 PUSH2 0x3F2 JUMP JUMPDEST DUP3 MSTORE POP POP JUMP JUMPDEST PUSH0 PUSH1 0x40 DUP3 ADD SWAP1 POP PUSH2 0x425 PUSH0 DUP4 ADD DUP6 PUSH2 0x3E3 JUMP JUMPDEST PUSH2 0x432 PUSH1 0x20 DUP4 ADD DUP5 PUSH2 0x403 JUMP JUMPDEST SWAP4 SWAP3 POP POP POP JUMP INVALID PUSH1 0x80 PUSH1 0x40 MSTORE CALLVALUE DUP1 ISZERO PUSH2 0xF JUMPI PUSH0 PUSH0 REVERT JUMPDEST POP PUSH1 0x40 MLOAD PUSH2 0x1638 CODESIZE SUB DUP1 PUSH2 0x1638 DUP4 CODECOPY DUP2 DUP2 ADD PUSH1 0x40 MSTORE DUP2 ADD SWAP1 PUSH2 0x31 SWAP2 SWAP1 PUSH2 0x110 JUMP JUMPDEST DUP1 PUSH1 0x1 PUSH0 PUSH2 0x100 EXP DUP2 SLOAD DUP2 PUSH20 0xFFFFFFFFFFFFFFFFFFFFFFFFFFFFFFFFFFFFFFFF MUL NOT AND SWAP1 DUP4 PUSH20 0xFFFFFFFFFFFFFFFFFFFFFFFFFFFFFFFFFFFFFFFF AND MUL OR SWAP1 SSTORE POP DUP2 PUSH1 0x2 DUP2 SWAP1 SSTORE POP POP POP PUSH2 0x14E JUMP JUMPDEST PUSH0 PUSH0 REVERT JUMPDEST PUSH0 DUP2 SWAP1 POP SWAP2 SWAP1 POP JUMP JUMPDEST PUSH2 0x95 DUP2 PUSH2 0x83 JUMP JUMPDEST DUP2 EQ PUSH2 0x9F JUMPI PUSH0 PUSH0 REVERT JUMPDEST POP JUMP JUMPDEST PUSH0 DUP2 MLOAD SWAP1 POP PUSH2 0xB0 DUP2 PUSH2 0x8C JUMP JUMPDEST SWAP3 SWAP2 POP POP JUMP JUMPDEST PUSH0 PUSH20 0xFFFFFFFFFFFFFFFFFFFFFFFFFFFFFFFFFFFFFFFF DUP3 AND SWAP1 POP SWAP2 SWAP1 POP JUMP JUMPDEST PUSH0 PUSH2 0xDF DUP3 PUSH2 0xB6 JUMP JUMPDEST SWAP1 POP SWAP2 SWAP1 POP JUMP JUMPDEST PUSH2 0xEF DUP2 PUSH2 0xD5 JUMP JUMPDEST DUP2 EQ PUSH2 0xF9 JUMPI PUSH0 PUSH0 REVERT JUMPDEST POP JUMP JUMPDEST PUSH0 DUP2 MLOAD SWAP1 POP PUSH2 0x10A DUP2 PUSH2 0xE6 JUMP JUMPDEST SWAP3 SWAP2 POP POP JUMP JUMPDEST PUSH0 PUSH0 PUSH1 0x40 DUP4 DUP6 SUB SLT ISZERO PUSH2 0x126 JUMPI PUSH2 0x125 PUSH2 0x7F JUMP JUMPDEST JUMPDEST PUSH0 PUSH2 0x133 DUP6 DUP3 DUP7 ADD PUSH2 0xA2 JUMP JUMPDEST SWAP3 POP POP PUSH1 0x20 PUSH2 0x144 DUP6 DUP3 DUP7 ADD PUSH2 0xFC JUMP JUMPDEST SWAP2 POP POP SWAP3 POP SWAP3 SWAP1 POP JUMP JUMPDEST PUSH2 0x14DD DUP1 PUSH2 0x15B PUSH0 CODECOPY PUSH0 RETURN INVALID PUSH1 0x80 PUSH1 0x40 MSTORE PUSH1 0x4 CALLDATASIZE LT PUSH2 0x9B JUMPI PUSH0 CALLDATALOAD PUSH1 0xE0 SHR DUP1 PUSH4 0x81D12C58 GT PUSH2 0x63 JUMPI DUP1 PUSH4 0x81D12C58 EQ PUSH2 0x179 JUMPI DUP1 PUSH4 0x82FDE093 EQ PUSH2 0x1B9 JUMPI DUP1 PUSH4 0x8A9CFD55 EQ PUSH2 0x1E3 JUMPI DUP1 PUSH4 0x937E09B1 EQ PUSH2 0x20B JUMPI DUP1 PUSH4 0xD7BB99BA EQ PUSH2 0x235 JUMPI DUP1 PUSH4 0xD7D1BBDB EQ PUSH2 0x23F JUMPI PUSH2 0x9B JUMP JUMPDEST DUP1 PUSH4 0x3441006 EQ PUSH2 0x9F JUMPI DUP1 PUSH4 0xA144391 EQ PUSH2 0xBB JUMPI DUP1 PUSH4 0x3410452A EQ PUSH2 0xF7 JUMPI DUP1 PUSH4 0x4051DDAC EQ PUSH2 0x121 JUMPI DUP1 PUSH4 0x481C6A75 EQ PUSH2 0x14F JUMPI JUMPDEST PUSH0 PUSH0 REVERT JUMPDEST PUSH2 0xB9 PUSH1 0x4 DUP1 CALLDATASIZE SUB DUP2 ADD SWAP1 PUSH2 0xB4 SWAP2 SWAP1 PUSH2 0x988 JUMP JUMPDEST PUSH2 0x267 JUMP JUMPDEST STOP JUMPDEST CALLVALUE DUP1 ISZERO PUSH2 0xC6 JUMPI PUSH0 PUSH0 REVERT JUMPDEST POP PUSH2 0xE1 PUSH1 0x4 DUP1 CALLDATASIZE SUB DUP2 ADD SWAP1 PUSH2 0xDC SWAP2 SWAP1 PUSH2 0xA0D JUMP JUMPDEST PUSH2 0x43B JUMP JUMPDEST PUSH1 0x40 MLOAD PUSH2 0xEE SWAP2 SWAP1 PUSH2 0xA52 JUMP JUMPDEST PUSH1 0x40 MLOAD DUP1 SWAP2 SUB SWAP1 RETURN JUMPDEST CALLVALUE DUP1 ISZERO PUSH2 0x102 JUMPI PUSH0 PUSH0 REVERT JUMPDEST POP PUSH2 0x10B PUSH2 0x458 JUMP JUMPDEST PUSH1 0x40 MLOAD PUSH2 0x118 SWAP2 SWAP1 PUSH2 0xA7A JUMP JUMPDEST PUSH1 0x40 MLOAD DUP1 SWAP2 SUB SWAP1 RETURN JUMPDEST CALLVALUE DUP1 ISZERO PUSH2 0x12C JUMPI PUSH0 PUSH0 REVERT JUMPDEST POP PUSH2 0x135 PUSH2 0x461 JUMP JUMPDEST PUSH1 0x40 MLOAD PUSH2 0x146 SWAP6 SWAP5 SWAP4 SWAP3 SWAP2 SWAP1 PUSH2 0xAA2 JUMP JUMPDEST PUSH1 0x40 MLOAD DUP1 SWAP2 SUB SWAP1 RETURN JUMPDEST CALLVALUE DUP1 ISZERO PUSH2 0x15A JUMPI PUSH0 PUSH0 REVERT JUMPDEST POP PUSH2 0x163 PUSH2 0x4A3 JUMP JUMPDEST PUSH1 0x40 MLOAD PUSH2 0x170 SWAP2 SWAP1 PUSH2 0xAF3 JUMP JUMPDEST PUSH1 0x40 MLOAD DUP1 SWAP2 SUB SWAP1 RETURN JUMPDEST CALLVALUE DUP1 ISZERO PUSH2 0x184 JUMPI PUSH0 PUSH0 REVERT JUMPDEST POP PUSH2 0x19F PUSH1 0x4 DUP1 CALLDATASIZE SUB DUP2 ADD SWAP1 PUSH2 0x19A SWAP2 SWAP1 PUSH2 0x988 JUMP JUMPDEST PUSH2 0x4C8 JUMP JUMPDEST PUSH1 0x40 MLOAD PUSH2 0x1B0 SWAP6 SWAP5 SWAP4 SWAP3 SWAP2 SWAP1 PUSH2 0xB9C JUMP JUMPDEST PUSH1 0x40 MLOAD DUP1 SWAP2 SUB SWAP1 RETURN JUMPDEST CALLVALUE DUP1 ISZERO PUSH2 0x1C4 JUMPI PUSH0 PUSH0 REVERT JUMPDEST POP PUSH2 0x1CD PUSH2 0x5AB JUMP JUMPDEST PUSH1 0x40 MLOAD PUSH2 0x1DA SWAP2 SWAP1 PUSH2 0xA7A JUMP JUMPDEST PUSH1 0x40 MLOAD DUP1 SWAP2 SUB SWAP1 RETURN JUMPDEST CALLVALUE DUP1 ISZERO PUSH2 0x1EE JUMPI PUSH0 PUSH0 REVERT JUMPDEST POP PUSH2 0x209 PUSH1 0x4 DUP1 CALLDATASIZE SUB DUP2 ADD SWAP1 PUSH2 0x204 SWAP2 SWAP1 PUSH2 0xD4A JUMP JUMPDEST PUSH2 0x5B1 JUMP JUMPDEST STOP JUMPDEST CALLVALUE DUP1 ISZERO PUSH2 0x216 JUMPI PUSH0 PUSH0 REVERT JUMPDEST POP PUSH2 0x21F PUSH2 0x6EF JUMP JUMPDEST PUSH1 0x40 MLOAD PUSH2 0x22C SWAP2 SWAP1 PUSH2 0xA7A JUMP JUMPDEST PUSH1 0x40 MLOAD DUP1 SWAP2 SUB SWAP1 RETURN JUMPDEST PUSH2 0x23D PUSH2 0x6F5 JUMP JUMPDEST STOP JUMPDEST CALLVALUE DUP1 ISZERO PUSH2 0x24A JUMPI PUSH0 PUSH0 REVERT JUMPDEST POP PUSH2 0x265 PUSH1 0x4 DUP1 CALLDATASIZE SUB DUP2 ADD SWAP1 PUSH2 0x260 SWAP2 SWAP1 PUSH2 0x988 JUMP JUMPDEST PUSH2 0x7A8 JUMP JUMPDEST STOP JUMPDEST PUSH1 0x1 PUSH0 SWAP1 SLOAD SWAP1 PUSH2 0x100 EXP SWAP1 DIV PUSH20 0xFFFFFFFFFFFFFFFFFFFFFFFFFFFFFFFFFFFFFFFF AND PUSH20 0xFFFFFFFFFFFFFFFFFFFFFFFFFFFFFFFFFFFFFFFF AND CALLER PUSH20 0xFFFFFFFFFFFFFFFFFFFFFFFFFFFFFFFFFFFFFFFF AND EQ PUSH2 0x2F6 JUMPI PUSH1 0x40 MLOAD PUSH32 0x8C379A000000000000000000000000000000000000000000000000000000000 DUP2 MSTORE PUSH1 0x4 ADD PUSH2 0x2ED SWAP1 PUSH2 0xE26 JUMP JUMPDEST PUSH1 0x40 MLOAD DUP1 SWAP2 SUB SWAP1 REVERT JUMPDEST PUSH0 PUSH0 PUSH0 DUP4 DUP2 MSTORE PUSH1 0x20 ADD SWAP1 DUP2 MSTORE PUSH1 0x20 ADD PUSH0 KECCAK256 SWAP1 POP PUSH1 0x2 PUSH1 0x5 SLOAD PUSH2 0x318 SWAP2 SWAP1 PUSH2 0xE9E JUMP JUMPDEST DUP2 PUSH1 0x3 ADD SLOAD GT PUSH2 0x35D JUMPI PUSH1 0x40 MLOAD PUSH32 0x8C379A000000000000000000000000000000000000000000000000000000000 DUP2 MSTORE PUSH1 0x4 ADD PUSH2 0x354 SWAP1 PUSH2 0xF3E JUMP JUMPDEST PUSH1 0x40 MLOAD DUP1 SWAP2 SUB SWAP1 REVERT JUMPDEST DUP1 PUSH1 0x2 ADD PUSH1 0x14 SWAP1 SLOAD SWAP1 PUSH2 0x100 EXP SWAP1 DIV PUSH1 0xFF AND ISZERO PUSH2 0x3AF JUMPI PUSH1 0x40 MLOAD PUSH32 0x8C379A000000000000000000000000000000000000000000000000000000000 DUP2 MSTORE PUSH1 0x4 ADD PUSH2 0x3A6 SWAP1 PUSH2 0xFCC JUMP JUMPDEST PUSH1 0x40 MLOAD DUP1 SWAP2 SUB SWAP1 REVERT JUMPDEST DUP1 PUSH1 0x2 ADD PUSH0 SWAP1 SLOAD SWAP1 PUSH2 0x100 EXP SWAP1 DIV PUSH20 0xFFFFFFFFFFFFFFFFFFFFFFFFFFFFFFFFFFFFFFFF AND PUSH20 0xFFFFFFFFFFFFFFFFFFFFFFFFFFFFFFFFFFFFFFFF AND PUSH2 0x8FC DUP3 PUSH1 0x1 ADD SLOAD SWAP1 DUP2 ISZERO MUL SWAP1 PUSH1 0x40 MLOAD PUSH0 PUSH1 0x40 MLOAD DUP1 DUP4 SUB DUP2 DUP6 DUP9 DUP9 CALL SWAP4 POP POP POP POP ISZERO DUP1 ISZERO PUSH2 0x419 JUMPI RETURNDATASIZE PUSH0 PUSH0 RETURNDATACOPY RETURNDATASIZE PUSH0 REVERT JUMPDEST POP PUSH1 0x1 DUP2 PUSH1 0x2 ADD PUSH1 0x14 PUSH2 0x100 EXP DUP2 SLOAD DUP2 PUSH1 0xFF MUL NOT AND SWAP1 DUP4 ISZERO ISZERO MUL OR SWAP1 SSTORE POP POP POP JUMP JUMPDEST PUSH1 0x3 PUSH1 0x20 MSTORE DUP1 PUSH0 MSTORE PUSH1 0x40 PUSH0 KECCAK256 PUSH0 SWAP2 POP SLOAD SWAP1 PUSH2 0x100 EXP SWAP1 DIV PUSH1 0xFF AND DUP2 JUMP JUMPDEST PUSH0 PUSH1 0x4 SLOAD SWAP1 POP SWAP1 JUMP JUMPDEST PUSH0 PUSH0 PUSH0 PUSH0 PUSH0 PUSH1 0x2 SLOAD SELFBALANCE PUSH1 0x4 SLOAD PUSH1 0x5 SLOAD PUSH1 0x1 PUSH0 SWAP1 SLOAD SWAP1 PUSH2 0x100 EXP SWAP1 DIV PUSH20 0xFFFFFFFFFFFFFFFFFFFFFFFFFFFFFFFFFFFFFFFF AND SWAP5 POP SWAP5 POP SWAP5 POP SWAP5 POP SWAP5 POP SWAP1 SWAP2 SWAP3 SWAP4 SWAP5 JUMP JUMPDEST PUSH1 0x1 PUSH0 SWAP1 SLOAD SWAP1 PUSH2 0x100 EXP SWAP1 DIV PUSH20 0xFFFFFFFFFFFFFFFFFFFFFFFFFFFFFFFFFFFFFFFF AND DUP2 JUMP JUMPDEST PUSH0 PUSH1 0x20 MSTORE DUP1 PUSH0 MSTORE PUSH1 0x40 PUSH0 KECCAK256 PUSH0 SWAP2 POP SWAP1 POP DUP1 PUSH0 ADD DUP1 SLOAD PUSH2 0x4E6 SWAP1 PUSH2 0x1017 JUMP JUMPDEST DUP1 PUSH1 0x1F ADD PUSH1 0x20 DUP1 SWAP2 DIV MUL PUSH1 0x20 ADD PUSH1 0x40 MLOAD SWAP1 DUP2 ADD PUSH1 0x40 MSTORE DUP1 SWAP3 SWAP2 SWAP1 DUP2 DUP2 MSTORE PUSH1 0x20 ADD DUP3 DUP1 SLOAD PUSH2 0x512 SWAP1 PUSH2 0x1017 JUMP JUMPDEST DUP1 ISZERO PUSH2 0x55D JUMPI DUP1 PUSH1 0x1F LT PUSH2 0x534 JUMPI PUSH2 0x100 DUP1 DUP4 SLOAD DIV MUL DUP4 MSTORE SWAP2 PUSH1 0x20 ADD SWAP2 PUSH2 0x55D JUMP JUMPDEST DUP3 ADD SWAP2 SWAP1 PUSH0 MSTORE PUSH1 0x20 PUSH0 KECCAK256 SWAP1 JUMPDEST DUP2 SLOAD DUP2 MSTORE SWAP1 PUSH1 0x1 ADD SWAP1 PUSH1 0x20 ADD DUP1 DUP4 GT PUSH2 0x540 JUMPI DUP3 SWAP1 SUB PUSH1 0x1F AND DUP3 ADD SWAP2 JUMPDEST POP POP POP POP POP SWAP1 DUP1 PUSH1 0x1 ADD SLOAD SWAP1 DUP1 PUSH1 0x2 ADD PUSH0 SWAP1 SLOAD SWAP1 PUSH2 0x100 EXP SWAP1 DIV PUSH20 0xFFFFFFFFFFFFFFFFFFFFFFFFFFFFFFFFFFFFFFFF AND SWAP1 DUP1 PUSH1 0x2 ADD PUSH1 0x14 SWAP1 SLOAD SWAP1 PUSH2 0x100 EXP SWAP1 DIV PUSH1 0xFF AND SWAP1 DUP1 PUSH1 0x3 ADD SLOAD SWAP1 POP DUP6 JUMP JUMPDEST PUSH1 0x5 SLOAD DUP2 JUMP JUMPDEST PUSH1 0x1 PUSH0 SWAP1 SLOAD SWAP1 PUSH2 0x100 EXP SWAP1 DIV PUSH20 0xFFFFFFFFFFFFFFFFFFFFFFFFFFFFFFFFFFFFFFFF AND PUSH20 0xFFFFFFFFFFFFFFFFFFFFFFFFFFFFFFFFFFFFFFFF AND CALLER PUSH20 0xFFFFFFFFFFFFFFFFFFFFFFFFFFFFFFFFFFFFFFFF AND EQ PUSH2 0x640 JUMPI PUSH1 0x40 MLOAD PUSH32 0x8C379A000000000000000000000000000000000000000000000000000000000 DUP2 MSTORE PUSH1 0x4 ADD PUSH2 0x637 SWAP1 PUSH2 0xE26 JUMP JUMPDEST PUSH1 0x40 MLOAD DUP1 SWAP2 SUB SWAP1 REVERT JUMPDEST PUSH0 PUSH0 PUSH0 PUSH1 0x4 PUSH0 DUP2 SLOAD DUP1 SWAP3 SWAP2 SWAP1 PUSH2 0x655 SWAP1 PUSH2 0x1047 JUMP JUMPDEST SWAP2 SWAP1 POP SSTORE DUP2 MSTORE PUSH1 0x20 ADD SWAP1 DUP2 MSTORE PUSH1 0x20 ADD PUSH0 KECCAK256 SWAP1 POP DUP4 DUP2 PUSH0 ADD SWAP1 DUP2 PUSH2 0x678 SWAP2 SWAP1 PUSH2 0x122E JUMP JUMPDEST POP DUP3 DUP2 PUSH1 0x1 ADD DUP2 SWAP1 SSTORE POP DUP2 DUP2 PUSH1 0x2 ADD PUSH0 PUSH2 0x100 EXP DUP2 SLOAD DUP2 PUSH20 0xFFFFFFFFFFFFFFFFFFFFFFFFFFFFFFFFFFFFFFFF MUL NOT AND SWAP1 DUP4 PUSH20 0xFFFFFFFFFFFFFFFFFFFFFFFFFFFFFFFFFFFFFFFF AND MUL OR SWAP1 SSTORE POP PUSH0 DUP2 PUSH1 0x2 ADD PUSH1 0x14 PUSH2 0x100 EXP DUP2 SLOAD DUP2 PUSH1 0xFF MUL NOT AND SWAP1 DUP4 ISZERO ISZERO MUL OR SWAP1 SSTORE POP PUSH0 DUP2 PUSH1 0x3 ADD DUP2 SWAP1 SSTORE POP POP POP POP POP JUMP JUMPDEST PUSH1 0x2 SLOAD DUP2 JUMP JUMPDEST PUSH1 0x2 SLOAD CALLVALUE LT ISZERO PUSH2 0x73A JUMPI PUSH1 0x40 MLOAD PUSH32 0x8C379A000000000000000000000000000000000000000000000000000000000 DUP2 MSTORE PUSH1 0x4 ADD PUSH2 0x731 SWAP1 PUSH2 0x136D JUMP JUMPDEST PUSH1 0x40 MLOAD DUP1 SWAP2 SUB SWAP1 REVERT JUMPDEST PUSH1 0x1 PUSH1 0x3 PUSH0 CALLER PUSH20 0xFFFFFFFFFFFFFFFFFFFFFFFFFFFFFFFFFFFFFFFF AND PUSH20 0xFFFFFFFFFFFFFFFFFFFFFFFFFFFFFFFFFFFFFFFF AND DUP2 MSTORE PUSH1 0x20 ADD SWAP1 DUP2 MSTORE PUSH1 0x20 ADD PUSH0 KECCAK256 PUSH0 PUSH2 0x100 EXP DUP2 SLOAD DUP2 PUSH1 0xFF MUL NOT AND SWAP1 DUP4 ISZERO ISZERO MUL OR SWAP1 SSTORE POP PUSH1 0x5 PUSH0 DUP2 SLOAD DUP1 SWAP3 SWAP2 SWAP1 PUSH2 0x7A1 SWAP1 PUSH2 0x1047 JUMP JUMPDEST SWAP2 SWAP1 POP SSTORE POP JUMP JUMPDEST PUSH0 PUSH0 PUSH0 DUP4 DUP2 MSTORE PUSH1 0x20 ADD SWAP1 DUP2 MSTORE PUSH1 0x20 ADD PUSH0 KECCAK256 SWAP1 POP PUSH1 0x3 PUSH0 CALLER PUSH20 0xFFFFFFFFFFFFFFFFFFFFFFFFFFFFFFFFFFFFFFFF AND PUSH20 0xFFFFFFFFFFFFFFFFFFFFFFFFFFFFFFFFFFFFFFFF AND DUP2 MSTORE PUSH1 0x20 ADD SWAP1 DUP2 MSTORE PUSH1 0x20 ADD PUSH0 KECCAK256 PUSH0 SWAP1 SLOAD SWAP1 PUSH2 0x100 EXP SWAP1 DIV PUSH1 0xFF AND PUSH2 0x844 JUMPI PUSH1 0x40 MLOAD PUSH32 0x8C379A000000000000000000000000000000000000000000000000000000000 DUP2 MSTORE PUSH1 0x4 ADD PUSH2 0x83B SWAP1 PUSH2 0x13FB JUMP JUMPDEST PUSH1 0x40 MLOAD DUP1 SWAP2 SUB SWAP1 REVERT JUMPDEST DUP1 PUSH1 0x4 ADD PUSH0 CALLER PUSH20 0xFFFFFFFFFFFFFFFFFFFFFFFFFFFFFFFFFFFFFFFF AND PUSH20 0xFFFFFFFFFFFFFFFFFFFFFFFFFFFFFFFFFFFFFFFF AND DUP2 MSTORE PUSH1 0x20 ADD SWAP1 DUP2 MSTORE PUSH1 0x20 ADD PUSH0 KECCAK256 PUSH0 SWAP1 SLOAD SWAP1 PUSH2 0x100 EXP SWAP1 DIV PUSH1 0xFF AND ISZERO PUSH2 0x8D0 JUMPI PUSH1 0x40 MLOAD PUSH32 0x8C379A000000000000000000000000000000000000000000000000000000000 DUP2 MSTORE PUSH1 0x4 ADD PUSH2 0x8C7 SWAP1 PUSH2 0x1489 JUMP JUMPDEST PUSH1 0x40 MLOAD DUP1 SWAP2 SUB SWAP1 REVERT JUMPDEST PUSH1 0x1 DUP2 PUSH1 0x4 ADD PUSH0 CALLER PUSH20 0xFFFFFFFFFFFFFFFFFFFFFFFFFFFFFFFFFFFFFFFF AND PUSH20 0xFFFFFFFFFFFFFFFFFFFFFFFFFFFFFFFFFFFFFFFF AND DUP2 MSTORE PUSH1 0x20 ADD SWAP1 DUP2 MSTORE PUSH1 0x20 ADD PUSH0 KECCAK256 PUSH0 PUSH2 0x100 EXP DUP2 SLOAD DUP2 PUSH1 0xFF MUL NOT AND SWAP1 DUP4 ISZERO ISZERO MUL OR SWAP1 SSTORE POP DUP1 PUSH1 0x3 ADD PUSH0 DUP2 SLOAD DUP1 SWAP3 SWAP2 SWAP1 PUSH2 0x93B SWAP1 PUSH2 0x1047 JUMP JUMPDEST SWAP2 SWAP1 POP SSTORE POP POP POP JUMP JUMPDEST PUSH0 PUSH1 0x40 MLOAD SWAP1 POP SWAP1 JUMP JUMPDEST PUSH0 PUSH0 REVERT JUMPDEST PUSH0 PUSH0 REVERT JUMPDEST PUSH0 DUP2 SWAP1 POP SWAP2 SWAP1 POP JUMP JUMPDEST PUSH2 0x967 DUP2 PUSH2 0x955 JUMP JUMPDEST DUP2 EQ PUSH2 0x971 JUMPI PUSH0 PUSH0 REVERT JUMPDEST POP JUMP JUMPDEST PUSH0 DUP2 CALLDATALOAD SWAP1 POP PUSH2 0x982 DUP2 PUSH2 0x95E JUMP JUMPDEST SWAP3 SWAP2 POP POP JUMP JUMPDEST PUSH0 PUSH1 0x20 DUP3 DUP5 SUB SLT ISZERO PUSH2 0x99D JUMPI PUSH2 0x99C PUSH2 0x94D JUMP JUMPDEST JUMPDEST PUSH0 PUSH2 0x9AA DUP5 DUP3 DUP6 ADD PUSH2 0x974 JUMP JUMPDEST SWAP2 POP POP SWAP3 SWAP2 POP POP JUMP JUMPDEST PUSH0 PUSH20 0xFFFFFFFFFFFFFFFFFFFFFFFFFFFFFFFFFFFFFFFF DUP3 AND SWAP1 POP SWAP2 SWAP1 POP JUMP JUMPDEST PUSH0 PUSH2 0x9DC DUP3 PUSH2 0x9B3 JUMP JUMPDEST SWAP1 POP SWAP2 SWAP1 POP JUMP JUMPDEST PUSH2 0x9EC DUP2 PUSH2 0x9D2 JUMP JUMPDEST DUP2 EQ PUSH2 0x9F6 JUMPI PUSH0 PUSH0 REVERT JUMPDEST POP JUMP JUMPDEST PUSH0 DUP2 CALLDATALOAD SWAP1 POP PUSH2 0xA07 DUP2 PUSH2 0x9E3 JUMP JUMPDEST SWAP3 SWAP2 POP POP JUMP JUMPDEST PUSH0 PUSH1 0x20 DUP3 DUP5 SUB SLT ISZERO PUSH2 0xA22 JUMPI PUSH2 0xA21 PUSH2 0x94D JUMP JUMPDEST JUMPDEST PUSH0 PUSH2 0xA2F DUP5 DUP3 DUP6 ADD PUSH2 0x9F9 JUMP JUMPDEST SWAP2 POP POP SWAP3 SWAP2 POP POP JUMP JUMPDEST PUSH0 DUP2 ISZERO ISZERO SWAP1 POP SWAP2 SWAP1 POP JUMP JUMPDEST PUSH2 0xA4C DUP2 PUSH2 0xA38 JUMP JUMPDEST DUP3 MSTORE POP POP JUMP JUMPDEST PUSH0 PUSH1 0x20 DUP3 ADD SWAP1 POP PUSH2 0xA65 PUSH0 DUP4 ADD DUP5 PUSH2 0xA43 JUMP JUMPDEST SWAP3 SWAP2 POP POP JUMP JUMPDEST PUSH2 0xA74 DUP2 PUSH2 0x955 JUMP JUMPDEST DUP3 MSTORE POP POP JUMP JUMPDEST PUSH0 PUSH1 0x20 DUP3 ADD SWAP1 POP PUSH2 0xA8D PUSH0 DUP4 ADD DUP5 PUSH2 0xA6B JUMP JUMPDEST SWAP3 SWAP2 POP POP JUMP JUMPDEST PUSH2 0xA9C DUP2 PUSH2 0x9D2 JUMP JUMPDEST DUP3 MSTORE POP POP JUMP JUMPDEST PUSH0 PUSH1 0xA0 DUP3 ADD SWAP1 POP PUSH2 0xAB5 PUSH0 DUP4 ADD DUP9 PUSH2 0xA6B JUMP JUMPDEST PUSH2 0xAC2 PUSH1 0x20 DUP4 ADD DUP8 PUSH2 0xA6B JUMP JUMPDEST PUSH2 0xACF PUSH1 0x40 DUP4 ADD DUP7 PUSH2 0xA6B JUMP JUMPDEST PUSH2 0xADC PUSH1 0x60 DUP4 ADD DUP6 PUSH2 0xA6B JUMP JUMPDEST PUSH2 0xAE9 PUSH1 0x80 DUP4 ADD DUP5 PUSH2 0xA93 JUMP JUMPDEST SWAP7 SWAP6 POP POP POP POP POP POP JUMP JUMPDEST PUSH0 PUSH1 0x20 DUP3 ADD SWAP1 POP PUSH2 0xB06 PUSH0 DUP4 ADD DUP5 PUSH2 0xA93 JUMP JUMPDEST SWAP3 SWAP2 POP POP JUMP JUMPDEST PUSH0 DUP2 MLOAD SWAP1 POP SWAP2 SWAP1 POP JUMP JUMPDEST PUSH0 DUP3 DUP3 MSTORE PUSH1 0x20 DUP3 ADD SWAP1 POP SWAP3 SWAP2 POP POP JUMP JUMPDEST DUP3 DUP2 DUP4 MCOPY PUSH0 DUP4 DUP4 ADD MSTORE POP POP POP JUMP JUMPDEST PUSH0 PUSH1 0x1F NOT PUSH1 0x1F DUP4 ADD AND SWAP1 POP SWAP2 SWAP1 POP JUMP JUMPDEST PUSH0 PUSH2 0xB4E DUP3 PUSH2 0xB0C JUMP JUMPDEST PUSH2 0xB58 DUP2 DUP6 PUSH2 0xB16 JUMP JUMPDEST SWAP4 POP PUSH2 0xB68 DUP2 DUP6 PUSH1 0x20 DUP7 ADD PUSH2 0xB26 JUMP JUMPDEST PUSH2 0xB71 DUP2 PUSH2 0xB34 JUMP JUMPDEST DUP5 ADD SWAP2 POP POP SWAP3 SWAP2 POP POP JUMP JUMPDEST PUSH0 PUSH2 0xB86 DUP3 PUSH2 0x9B3 JUMP JUMPDEST SWAP1 POP SWAP2 SWAP1 POP JUMP JUMPDEST PUSH2 0xB96 DUP2 PUSH2 0xB7C JUMP JUMPDEST DUP3 MSTORE POP POP JUMP JUMPDEST PUSH0 PUSH1 0xA0 DUP3 ADD SWAP1 POP DUP2 DUP2 SUB PUSH0 DUP4 ADD MSTORE PUSH2 0xBB4 DUP2 DUP9 PUSH2 0xB44 JUMP JUMPDEST SWAP1 POP PUSH2 0xBC3 PUSH1 0x20 DUP4 ADD DUP8 PUSH2 0xA6B JUMP JUMPDEST PUSH2 0xBD0 PUSH1 0x40 DUP4 ADD DUP7 PUSH2 0xB8D JUMP JUMPDEST PUSH2 0xBDD PUSH1 0x60 DUP4 ADD DUP6 PUSH2 0xA43 JUMP JUMPDEST PUSH2 0xBEA PUSH1 0x80 DUP4 ADD DUP5 PUSH2 0xA6B JUMP JUMPDEST SWAP7 SWAP6 POP POP POP POP POP POP JUMP JUMPDEST PUSH0 PUSH0 REVERT JUMPDEST PUSH0 PUSH0 REVERT JUMPDEST PUSH32 0x4E487B7100000000000000000000000000000000000000000000000000000000 PUSH0 MSTORE PUSH1 0x41 PUSH1 0x4 MSTORE PUSH1 0x24 PUSH0 REVERT JUMPDEST PUSH2 0xC32 DUP3 PUSH2 0xB34 JUMP JUMPDEST DUP2 ADD DUP2 DUP2 LT PUSH8 0xFFFFFFFFFFFFFFFF DUP3 GT OR ISZERO PUSH2 0xC51 JUMPI PUSH2 0xC50 PUSH2 0xBFC JUMP JUMPDEST JUMPDEST DUP1 PUSH1 0x40 MSTORE POP POP POP JUMP JUMPDEST PUSH0 PUSH2 0xC63 PUSH2 0x944 JUMP JUMPDEST SWAP1 POP PUSH2 0xC6F DUP3 DUP3 PUSH2 0xC29 JUMP JUMPDEST SWAP2 SWAP1 POP JUMP JUMPDEST PUSH0 PUSH8 0xFFFFFFFFFFFFFFFF DUP3 GT ISZERO PUSH2 0xC8E JUMPI PUSH2 0xC8D PUSH2 0xBFC JUMP JUMPDEST JUMPDEST PUSH2 0xC97 DUP3 PUSH2 0xB34 JUMP JUMPDEST SWAP1 POP PUSH1 0x20 DUP2 ADD SWAP1 POP SWAP2 SWAP1 POP JUMP JUMPDEST DUP3 DUP2 DUP4 CALLDATACOPY PUSH0 DUP4 DUP4 ADD MSTORE POP POP POP JUMP JUMPDEST PUSH0 PUSH2 0xCC4 PUSH2 0xCBF DUP5 PUSH2 0xC74 JUMP JUMPDEST PUSH2 0xC5A JUMP JUMPDEST SWAP1 POP DUP3 DUP2 MSTORE PUSH1 0x20 DUP2 ADD DUP5 DUP5 DUP5 ADD GT ISZERO PUSH2 0xCE0 JUMPI PUSH2 0xCDF PUSH2 0xBF8 JUMP JUMPDEST JUMPDEST PUSH2 0xCEB DUP5 DUP3 DUP6 PUSH2 0xCA4 JUMP JUMPDEST POP SWAP4 SWAP3 POP POP POP JUMP JUMPDEST PUSH0 DUP3 PUSH1 0x1F DUP4 ADD SLT PUSH2 0xD07 JUMPI PUSH2 0xD06 PUSH2 0xBF4 JUMP JUMPDEST JUMPDEST DUP2 CALLDATALOAD PUSH2 0xD17 DUP5 DUP3 PUSH1 0x20 DUP7 ADD PUSH2 0xCB2 JUMP JUMPDEST SWAP2 POP POP SWAP3 SWAP2 POP POP JUMP JUMPDEST PUSH2 0xD29 DUP2 PUSH2 0xB7C JUMP JUMPDEST DUP2 EQ PUSH2 0xD33 JUMPI PUSH0 PUSH0 REVERT JUMPDEST POP JUMP JUMPDEST PUSH0 DUP2 CALLDATALOAD SWAP1 POP PUSH2 0xD44 DUP2 PUSH2 0xD20 JUMP JUMPDEST SWAP3 SWAP2 POP POP JUMP JUMPDEST PUSH0 PUSH0 PUSH0 PUSH1 0x60 DUP5 DUP7 SUB SLT ISZERO PUSH2 0xD61 JUMPI PUSH2 0xD60 PUSH2 0x94D JUMP JUMPDEST JUMPDEST PUSH0 DUP5 ADD CALLDATALOAD PUSH8 0xFFFFFFFFFFFFFFFF DUP2 GT ISZERO PUSH2 0xD7E JUMPI PUSH2 0xD7D PUSH2 0x951 JUMP JUMPDEST JUMPDEST PUSH2 0xD8A DUP7 DUP3 DUP8 ADD PUSH2 0xCF3 JUMP JUMPDEST SWAP4 POP POP PUSH1 0x20 PUSH2 0xD9B DUP7 DUP3 DUP8 ADD PUSH2 0x974 JUMP JUMPDEST SWAP3 POP POP PUSH1 0x40 PUSH2 0xDAC DUP7 DUP3 DUP8 ADD PUSH2 0xD36 JUMP JUMPDEST SWAP2 POP POP SWAP3 POP SWAP3 POP SWAP3 JUMP JUMPDEST PUSH32 0x4F6E6C79207468652063616D706169676E206D616E616765722063616E206361 PUSH0 DUP3 ADD MSTORE PUSH32 0x6C6C20746869732066756E6374696F6E2E000000000000000000000000000000 PUSH1 0x20 DUP3 ADD MSTORE POP JUMP JUMPDEST PUSH0 PUSH2 0xE10 PUSH1 0x31 DUP4 PUSH2 0xB16 JUMP JUMPDEST SWAP2 POP PUSH2 0xE1B DUP3 PUSH2 0xDB6 JUMP JUMPDEST PUSH1 0x40 DUP3 ADD SWAP1 POP SWAP2 SWAP1 POP JUMP JUMPDEST PUSH0 PUSH1 0x20 DUP3 ADD SWAP1 POP DUP2 DUP2 SUB PUSH0 DUP4 ADD MSTORE PUSH2 0xE3D DUP2 PUSH2 0xE04 JUMP JUMPDEST SWAP1 POP SWAP2 SWAP1 POP JUMP JUMPDEST PUSH32 0x4E487B7100000000000000000000000000000000000000000000000000000000 PUSH0 MSTORE PUSH1 0x12 PUSH1 0x4 MSTORE PUSH1 0x24 PUSH0 REVERT JUMPDEST PUSH32 0x4E487B7100000000000000000000000000000000000000000000000000000000 PUSH0 MSTORE PUSH1 0x11 PUSH1 0x4 MSTORE PUSH1 0x24 PUSH0 REVERT JUMPDEST PUSH0 PUSH2 0xEA8 DUP3 PUSH2 0x955 JUMP JUMPDEST SWAP2 POP PUSH2 0xEB3 DUP4 PUSH2 0x955 JUMP JUMPDEST SWAP3 POP DUP3 PUSH2 0xEC3 JUMPI PUSH2 0xEC2 PUSH2 0xE44 JUMP JUMPDEST JUMPDEST DUP3 DUP3 DIV SWAP1 POP SWAP3 SWAP2 POP POP JUMP JUMPDEST PUSH32 0x546869732072657175657374206E65656473206D6F726520617070726F76616C PUSH0 DUP3 ADD MSTORE PUSH32 0x73206265666F72652069742063616E2062652066696E616C697A656400000000 PUSH1 0x20 DUP3 ADD MSTORE POP JUMP JUMPDEST PUSH0 PUSH2 0xF28 PUSH1 0x3C DUP4 PUSH2 0xB16 JUMP JUMPDEST SWAP2 POP PUSH2 0xF33 DUP3 PUSH2 0xECE JUMP JUMPDEST PUSH1 0x40 DUP3 ADD SWAP1 POP SWAP2 SWAP1 POP JUMP JUMPDEST PUSH0 PUSH1 0x20 DUP3 ADD SWAP1 POP DUP2 DUP2 SUB PUSH0 DUP4 ADD MSTORE PUSH2 0xF55 DUP2 PUSH2 0xF1C JUMP JUMPDEST SWAP1 POP SWAP2 SWAP1 POP JUMP JUMPDEST PUSH32 0x5468697320726571756573742068617320616C7265616479206265656E206669 PUSH0 DUP3 ADD MSTORE PUSH32 0x6E616C697A656400000000000000000000000000000000000000000000000000 PUSH1 0x20 DUP3 ADD MSTORE POP JUMP JUMPDEST PUSH0 PUSH2 0xFB6 PUSH1 0x27 DUP4 PUSH2 0xB16 JUMP JUMPDEST SWAP2 POP PUSH2 0xFC1 DUP3 PUSH2 0xF5C JUMP JUMPDEST PUSH1 0x40 DUP3 ADD SWAP1 POP SWAP2 SWAP1 POP JUMP JUMPDEST PUSH0 PUSH1 0x20 DUP3 ADD SWAP1 POP DUP2 DUP2 SUB PUSH0 DUP4 ADD MSTORE PUSH2 0xFE3 DUP2 PUSH2 0xFAA JUMP JUMPDEST SWAP1 POP SWAP2 SWAP1 POP JUMP JUMPDEST PUSH32 0x4E487B7100000000000000000000000000000000000000000000000000000000 PUSH0 MSTORE PUSH1 0x22 PUSH1 0x4 MSTORE PUSH1 0x24 PUSH0 REVERT JUMPDEST PUSH0 PUSH1 0x2 DUP3 DIV SWAP1 POP PUSH1 0x1 DUP3 AND DUP1 PUSH2 0x102E JUMPI PUSH1 0x7F DUP3 AND SWAP2 POP JUMPDEST PUSH1 0x20 DUP3 LT DUP2 SUB PUSH2 0x1041 JUMPI PUSH2 0x1040 PUSH2 0xFEA JUMP JUMPDEST JUMPDEST POP SWAP2 SWAP1 POP JUMP JUMPDEST PUSH0 PUSH2 0x1051 DUP3 PUSH2 0x955 JUMP JUMPDEST SWAP2 POP PUSH32 0xFFFFFFFFFFFFFFFFFFFFFFFFFFFFFFFFFFFFFFFFFFFFFFFFFFFFFFFFFFFFFFFF DUP3 SUB PUSH2 0x1083 JUMPI PUSH2 0x1082 PUSH2 0xE71 JUMP JUMPDEST JUMPDEST PUSH1 0x1 DUP3 ADD SWAP1 POP SWAP2 SWAP1 POP JUMP JUMPDEST PUSH0 DUP2 SWAP1 POP DUP2 PUSH0 MSTORE PUSH1 0x20 PUSH0 KECCAK256 SWAP1 POP SWAP2 SWAP1 POP JUMP JUMPDEST PUSH0 PUSH1 0x20 PUSH1 0x1F DUP4 ADD DIV SWAP1 POP SWAP2 SWAP1 POP JUMP JUMPDEST PUSH0 DUP3 DUP3 SHL SWAP1 POP SWAP3 SWAP2 POP POP JUMP JUMPDEST PUSH0 PUSH1 0x8 DUP4 MUL PUSH2 0x10EA PUSH32 0xFFFFFFFFFFFFFFFFFFFFFFFFFFFFFFFFFFFFFFFFFFFFFFFFFFFFFFFFFFFFFFFF DUP3 PUSH2 0x10AF JUMP JUMPDEST PUSH2 0x10F4 DUP7 DUP4 PUSH2 0x10AF JUMP JUMPDEST SWAP6 POP DUP1 NOT DUP5 AND SWAP4 POP DUP1 DUP7 AND DUP5 OR SWAP3 POP POP POP SWAP4 SWAP3 POP POP POP JUMP JUMPDEST PUSH0 DUP2 SWAP1 POP SWAP2 SWAP1 POP JUMP JUMPDEST PUSH0 PUSH2 0x112F PUSH2 0x112A PUSH2 0x1125 DUP5 PUSH2 0x955 JUMP JUMPDEST PUSH2 0x110C JUMP JUMPDEST PUSH2 0x955 JUMP JUMPDEST SWAP1 POP SWAP2 SWAP1 POP JUMP JUMPDEST PUSH0 DUP2 SWAP1 POP SWAP2 SWAP1 POP JUMP JUMPDEST PUSH2 0x1148 DUP4 PUSH2 0x1115 JUMP JUMPDEST PUSH2 0x115C PUSH2 0x1154 DUP3 PUSH2 0x1136 JUMP JUMPDEST DUP5 DUP5 SLOAD PUSH2 0x10BB JUMP JUMPDEST DUP3 SSTORE POP POP POP POP JUMP JUMPDEST PUSH0 PUSH0 SWAP1 POP SWAP1 JUMP JUMPDEST PUSH2 0x1173 PUSH2 0x1164 JUMP JUMPDEST PUSH2 0x117E DUP2 DUP5 DUP5 PUSH2 0x113F JUMP JUMPDEST POP POP POP JUMP JUMPDEST JUMPDEST DUP2 DUP2 LT ISZERO PUSH2 0x11A1 JUMPI PUSH2 0x1196 PUSH0 DUP3 PUSH2 0x116B JUMP JUMPDEST PUSH1 0x1 DUP2 ADD SWAP1 POP PUSH2 0x1184 JUMP JUMPDEST POP POP JUMP JUMPDEST PUSH1 0x1F DUP3 GT ISZERO PUSH2 0x11E6 JUMPI PUSH2 0x11B7 DUP2 PUSH2 0x108E JUMP JUMPDEST PUSH2 0x11C0 DUP5 PUSH2 0x10A0 JUMP JUMPDEST DUP2 ADD PUSH1 0x20 DUP6 LT ISZERO PUSH2 0x11CF JUMPI DUP2 SWAP1 POP JUMPDEST PUSH2 0x11E3 PUSH2 0x11DB DUP6 PUSH2 0x10A0 JUMP JUMPDEST DUP4 ADD DUP3 PUSH2 0x1183 JUMP JUMPDEST POP POP JUMPDEST POP POP POP JUMP JUMPDEST PUSH0 DUP3 DUP3 SHR SWAP1 POP SWAP3 SWAP2 POP POP JUMP JUMPDEST PUSH0 PUSH2 0x1206 PUSH0 NOT DUP5 PUSH1 0x8 MUL PUSH2 0x11EB JUMP JUMPDEST NOT DUP1 DUP4 AND SWAP2 POP POP SWAP3 SWAP2 POP POP JUMP JUMPDEST PUSH0 PUSH2 0x121E DUP4 DUP4 PUSH2 0x11F7 JUMP JUMPDEST SWAP2 POP DUP3 PUSH1 0x2 MUL DUP3 OR SWAP1 POP SWAP3 SWAP2 POP POP JUMP JUMPDEST PUSH2 0x1237 DUP3 PUSH2 0xB0C JUMP JUMPDEST PUSH8 0xFFFFFFFFFFFFFFFF DUP2 GT ISZERO PUSH2 0x1250 JUMPI PUSH2 0x124F PUSH2 0xBFC JUMP JUMPDEST JUMPDEST PUSH2 0x125A DUP3 SLOAD PUSH2 0x1017 JUMP JUMPDEST PUSH2 0x1265 DUP3 DUP3 DUP6 PUSH2 0x11A5 JUMP JUMPDEST PUSH0 PUSH1 0x20 SWAP1 POP PUSH1 0x1F DUP4 GT PUSH1 0x1 DUP2 EQ PUSH2 0x1296 JUMPI PUSH0 DUP5 ISZERO PUSH2 0x1284 JUMPI DUP3 DUP8 ADD MLOAD SWAP1 POP JUMPDEST PUSH2 0x128E DUP6 DUP3 PUSH2 0x1213 JUMP JUMPDEST DUP7 SSTORE POP PUSH2 0x12F5 JUMP JUMPDEST PUSH1 0x1F NOT DUP5 AND PUSH2 0x12A4 DUP7 PUSH2 0x108E JUMP JUMPDEST PUSH0 JUMPDEST DUP3 DUP2 LT ISZERO PUSH2 0x12CB JUMPI DUP5 DUP10 ADD MLOAD DUP3 SSTORE PUSH1 0x1 DUP3 ADD SWAP2 POP PUSH1 0x20 DUP6 ADD SWAP5 POP PUSH1 0x20 DUP2 ADD SWAP1 POP PUSH2 0x12A6 JUMP JUMPDEST DUP7 DUP4 LT ISZERO PUSH2 0x12E8 JUMPI DUP5 DUP10 ADD MLOAD PUSH2 0x12E4 PUSH1 0x1F DUP10 AND DUP3 PUSH2 0x11F7 JUMP JUMPDEST DUP4 SSTORE POP JUMPDEST PUSH1 0x1 PUSH1 0x2 DUP9 MUL ADD DUP9 SSTORE POP POP POP JUMPDEST POP POP POP POP POP POP JUMP JUMPDEST PUSH32 0x41206D696E756D756D20636F6E747269627574696F6E20697320726571756972 PUSH0 DUP3 ADD MSTORE PUSH32 0x65642E0000000000000000000000000000000000000000000000000000000000 PUSH1 0x20 DUP3 ADD MSTORE POP JUMP JUMPDEST PUSH0 PUSH2 0x1357 PUSH1 0x23 DUP4 PUSH2 0xB16 JUMP JUMPDEST SWAP2 POP PUSH2 0x1362 DUP3 PUSH2 0x12FD JUMP JUMPDEST PUSH1 0x40 DUP3 ADD SWAP1 POP SWAP2 SWAP1 POP JUMP JUMPDEST PUSH0 PUSH1 0x20 DUP3 ADD SWAP1 POP DUP2 DUP2 SUB PUSH0 DUP4 ADD MSTORE PUSH2 0x1384 DUP2 PUSH2 0x134B JUMP JUMPDEST SWAP1 POP SWAP2 SWAP1 POP JUMP JUMPDEST PUSH32 0x4F6E6C7920636F6E7472696275746F72732063616E20617070726F7665206120 PUSH0 DUP3 ADD MSTORE PUSH32 0x7370656369666963207061796D656E7420726571756573740000000000000000 PUSH1 0x20 DUP3 ADD MSTORE POP JUMP JUMPDEST PUSH0 PUSH2 0x13E5 PUSH1 0x38 DUP4 PUSH2 0xB16 JUMP JUMPDEST SWAP2 POP PUSH2 0x13F0 DUP3 PUSH2 0x138B JUMP JUMPDEST PUSH1 0x40 DUP3 ADD SWAP1 POP SWAP2 SWAP1 POP JUMP JUMPDEST PUSH0 PUSH1 0x20 DUP3 ADD SWAP1 POP DUP2 DUP2 SUB PUSH0 DUP4 ADD MSTORE PUSH2 0x1412 DUP2 PUSH2 0x13D9 JUMP JUMPDEST SWAP1 POP SWAP2 SWAP1 POP JUMP JUMPDEST PUSH32 0x596F75206861766520616C726561647920766F74656420746F20617070726F76 PUSH0 DUP3 ADD MSTORE PUSH32 0x6520746869732072657175657374000000000000000000000000000000000000 PUSH1 0x20 DUP3 ADD MSTORE POP JUMP JUMPDEST PUSH0 PUSH2 0x1473 PUSH1 0x2E DUP4 PUSH2 0xB16 JUMP JUMPDEST SWAP2 POP PUSH2 0x147E DUP3 PUSH2 0x1419 JUMP JUMPDEST PUSH1 0x40 DUP3 ADD SWAP1 POP SWAP2 SWAP1 POP JUMP JUMPDEST PUSH0 PUSH1 0x20 DUP3 ADD SWAP1 POP DUP2 DUP2 SUB PUSH0 DUP4 ADD MSTORE PUSH2 0x14A0 DUP2 PUSH2 0x1467 JUMP JUMPDEST SWAP1 POP SWAP2 SWAP1 POP JUMP INVALID LOG2 PUSH5 0x6970667358 0x22 SLT KECCAK256 SWAP4 BLOBHASH AND PUSH7 0x5AD7F359F7D1E0 LOG3 KECCAK256 0x22 DUP8 LOG3 DUP10 0xAD XOR 0xA8 0xB2 NOT SWAP12 0xC5 0xE7 SWAP3 SELFDESTRUCT 0xE6 0xC7 DUP12 0xB2 SWAP15 PUSH5 0x736F6C6343 STOP ADDMOD SHL STOP CALLER LOG2 PUSH5 0x6970667358 0x22 SLT KECCAK256 PUSH18 0x335FDD150935B4B5C1F3ECC33D3E1883F8F3 0xFC DUP5 CREATE PUSH22 0x58843FE18B023A10C464736F6C634300081B00330000 "},"gasEstimates":{"creation":{"codeDepositCost":"1364600","executionCost":"1422","totalCost":"1366022"},"external":{"createCampaign(uint256)":"infinite","deployedCampaigns(uint256)":"infinite","getDeployedCampaign()":"infinite"}},"methodIdentifiers":{"createCampaign(uint256)":"a3303a75","deployedCampaigns(uint256)":"339d50a5","getDeployedCampaign()":"5eac0007"}},"storageLayout":{"storage":[{"astId":5,"contract":"Campaign.sol:CampaignFactory","label":"deployedCampaigns","offset":0,"slot":"0","type":"t_array(t_contract(Campaign)299)dyn_storage"}],"types":{"t_array(t_contract(Campaign)299)dyn_storage":{"base":"t_contract(Campaign)299","encoding":"dynamic_array","label":"contract Campaign[]","numberOfBytes":"32"},"t_contract(Campaign)299":{"encoding":"inplace","label":"contract Campaign","numberOfBytes":"20"}}},"transientStorageLayout":{"storage":[],"types":null},"userdoc":{"kind":"user","methods":{},"version":1}}